{
  "contracts/InfrastructureFunds.sol": {
    "InfrastructureFunds": {
      "abi": [
        {
          "inputs": [],
          "stateMutability": "nonpayable",
          "type": "constructor"
        },
        {
          "anonymous": false,
          "inputs": [
            {
              "indexed": false,
              "internalType": "uint256",
              "name": "projectId",
              "type": "uint256"
            },
            {
              "indexed": false,
              "internalType": "address",
              "name": "contractor",
              "type": "address"
            }
          ],
          "name": "ContractorAssigned",
          "type": "event"
        },
        {
          "anonymous": false,
          "inputs": [
            {
              "indexed": false,
              "internalType": "uint256",
              "name": "projectId",
              "type": "uint256"
            },
            {
              "indexed": false,
              "internalType": "address",
              "name": "contractor",
              "type": "address"
            },
            {
              "indexed": false,
              "internalType": "uint256",
              "name": "amount",
              "type": "uint256"
            }
          ],
          "name": "ContractorPaid",
          "type": "event"
        },
        {
          "anonymous": false,
          "inputs": [
            {
              "indexed": false,
              "internalType": "uint256",
              "name": "projectId",
              "type": "uint256"
            },
            {
              "indexed": false,
              "internalType": "uint256",
              "name": "expenseId",
              "type": "uint256"
            },
            {
              "indexed": false,
              "internalType": "string",
              "name": "description",
              "type": "string"
            },
            {
              "indexed": false,
              "internalType": "uint256",
              "name": "amount",
              "type": "uint256"
            }
          ],
          "name": "ExpenseIncurred",
          "type": "event"
        },
        {
          "anonymous": false,
          "inputs": [
            {
              "indexed": false,
              "internalType": "address",
              "name": "contributor",
              "type": "address"
            },
            {
              "indexed": false,
              "internalType": "uint256",
              "name": "amount",
              "type": "uint256"
            },
            {
              "indexed": false,
              "internalType": "uint256",
              "name": "projectId",
              "type": "uint256"
            }
          ],
          "name": "FundsReceived",
          "type": "event"
        },
        {
          "anonymous": false,
          "inputs": [
            {
              "indexed": false,
              "internalType": "uint256",
              "name": "projectId",
              "type": "uint256"
            },
            {
              "indexed": false,
              "internalType": "string",
              "name": "name",
              "type": "string"
            },
            {
              "indexed": false,
              "internalType": "address",
              "name": "contractor",
              "type": "address"
            },
            {
              "indexed": false,
              "internalType": "uint256",
              "name": "budget",
              "type": "uint256"
            }
          ],
          "name": "ProjectCreated",
          "type": "event"
        },
        {
          "inputs": [
            {
              "internalType": "uint256",
              "name": "_projectId",
              "type": "uint256"
            },
            {
              "internalType": "address",
              "name": "_contractor",
              "type": "address"
            }
          ],
          "name": "assignContractor",
          "outputs": [],
          "stateMutability": "nonpayable",
          "type": "function"
        },
        {
          "inputs": [
            {
              "internalType": "string",
              "name": "_name",
              "type": "string"
            },
            {
              "internalType": "uint256",
              "name": "_budgetInEther",
              "type": "uint256"
            }
          ],
          "name": "createProject",
          "outputs": [],
          "stateMutability": "nonpayable",
          "type": "function"
        },
        {
          "inputs": [],
          "name": "expenseCount",
          "outputs": [
            {
              "internalType": "uint256",
              "name": "",
              "type": "uint256"
            }
          ],
          "stateMutability": "view",
          "type": "function"
        },
        {
          "inputs": [
            {
              "internalType": "uint256",
              "name": "",
              "type": "uint256"
            }
          ],
          "name": "expenses",
          "outputs": [
            {
              "internalType": "uint256",
              "name": "projectId",
              "type": "uint256"
            },
            {
              "internalType": "uint256",
              "name": "id",
              "type": "uint256"
            },
            {
              "internalType": "string",
              "name": "description",
              "type": "string"
            },
            {
              "internalType": "uint256",
              "name": "amount",
              "type": "uint256"
            }
          ],
          "stateMutability": "view",
          "type": "function"
        },
        {
          "inputs": [],
          "name": "getAllContributions",
          "outputs": [
            {
              "components": [
                {
                  "internalType": "uint256",
                  "name": "projectId",
                  "type": "uint256"
                },
                {
                  "internalType": "address",
                  "name": "contributor",
                  "type": "address"
                },
                {
                  "internalType": "uint256",
                  "name": "amount",
                  "type": "uint256"
                },
                {
                  "internalType": "uint256",
                  "name": "timestamp",
                  "type": "uint256"
                }
              ],
              "internalType": "struct InfrastructureFunds.Contribution[]",
              "name": "",
              "type": "tuple[]"
            }
          ],
          "stateMutability": "view",
          "type": "function"
        },
        {
          "inputs": [],
          "name": "getAllExpenses",
          "outputs": [
            {
              "components": [
                {
                  "internalType": "uint256",
                  "name": "projectId",
                  "type": "uint256"
                },
                {
                  "internalType": "uint256",
                  "name": "id",
                  "type": "uint256"
                },
                {
                  "internalType": "string",
                  "name": "description",
                  "type": "string"
                },
                {
                  "internalType": "uint256",
                  "name": "amount",
                  "type": "uint256"
                }
              ],
              "internalType": "struct InfrastructureFunds.Expense[]",
              "name": "",
              "type": "tuple[]"
            }
          ],
          "stateMutability": "view",
          "type": "function"
        },
        {
          "inputs": [
            {
              "internalType": "uint256",
              "name": "_projectId",
              "type": "uint256"
            }
          ],
          "name": "getAllExpensesByProjectId",
          "outputs": [
            {
              "components": [
                {
                  "internalType": "uint256",
                  "name": "projectId",
                  "type": "uint256"
                },
                {
                  "internalType": "uint256",
                  "name": "id",
                  "type": "uint256"
                },
                {
                  "internalType": "string",
                  "name": "description",
                  "type": "string"
                },
                {
                  "internalType": "uint256",
                  "name": "amount",
                  "type": "uint256"
                }
              ],
              "internalType": "struct InfrastructureFunds.Expense[]",
              "name": "",
              "type": "tuple[]"
            }
          ],
          "stateMutability": "view",
          "type": "function"
        },
        {
          "inputs": [],
          "name": "getAllProjects",
          "outputs": [
            {
              "components": [
                {
                  "internalType": "uint256",
                  "name": "id",
                  "type": "uint256"
                },
                {
                  "internalType": "string",
                  "name": "name",
                  "type": "string"
                },
                {
                  "internalType": "address",
                  "name": "contractor",
                  "type": "address"
                },
                {
                  "internalType": "uint256",
                  "name": "budget",
                  "type": "uint256"
                },
                {
                  "internalType": "uint256",
                  "name": "spent",
                  "type": "uint256"
                },
                {
                  "internalType": "bool",
                  "name": "completed",
                  "type": "bool"
                },
                {
                  "internalType": "bool",
                  "name": "funded",
                  "type": "bool"
                }
              ],
              "internalType": "struct InfrastructureFunds.Project[]",
              "name": "",
              "type": "tuple[]"
            }
          ],
          "stateMutability": "view",
          "type": "function"
        },
        {
          "inputs": [],
          "name": "getContractBalance",
          "outputs": [
            {
              "internalType": "uint256",
              "name": "",
              "type": "uint256"
            }
          ],
          "stateMutability": "view",
          "type": "function"
        },
        {
          "inputs": [
            {
              "internalType": "uint256",
              "name": "_projectId",
              "type": "uint256"
            }
          ],
          "name": "getContributionsByProjectId",
          "outputs": [
            {
              "components": [
                {
                  "internalType": "uint256",
                  "name": "projectId",
                  "type": "uint256"
                },
                {
                  "internalType": "address",
                  "name": "contributor",
                  "type": "address"
                },
                {
                  "internalType": "uint256",
                  "name": "amount",
                  "type": "uint256"
                },
                {
                  "internalType": "uint256",
                  "name": "timestamp",
                  "type": "uint256"
                }
              ],
              "internalType": "struct InfrastructureFunds.Contribution[]",
              "name": "",
              "type": "tuple[]"
            }
          ],
          "stateMutability": "view",
          "type": "function"
        },
        {
          "inputs": [
            {
              "internalType": "uint256",
              "name": "_projectId",
              "type": "uint256"
            },
            {
              "internalType": "string",
              "name": "_description",
              "type": "string"
            },
            {
              "internalType": "address",
              "name": "_payee",
              "type": "address"
            },
            {
              "internalType": "uint256",
              "name": "_amountInEther",
              "type": "uint256"
            }
          ],
          "name": "incurExpense",
          "outputs": [],
          "stateMutability": "nonpayable",
          "type": "function"
        },
        {
          "inputs": [
            {
              "internalType": "uint256",
              "name": "_projectId",
              "type": "uint256"
            },
            {
              "internalType": "uint256",
              "name": "_amountInEther",
              "type": "uint256"
            }
          ],
          "name": "payContractor",
          "outputs": [],
          "stateMutability": "nonpayable",
          "type": "function"
        },
        {
          "inputs": [
            {
              "internalType": "uint256",
              "name": "",
              "type": "uint256"
            },
            {
              "internalType": "uint256",
              "name": "",
              "type": "uint256"
            }
          ],
          "name": "projectContributions",
          "outputs": [
            {
              "internalType": "uint256",
              "name": "projectId",
              "type": "uint256"
            },
            {
              "internalType": "address",
              "name": "contributor",
              "type": "address"
            },
            {
              "internalType": "uint256",
              "name": "amount",
              "type": "uint256"
            },
            {
              "internalType": "uint256",
              "name": "timestamp",
              "type": "uint256"
            }
          ],
          "stateMutability": "view",
          "type": "function"
        },
        {
          "inputs": [],
          "name": "projectCount",
          "outputs": [
            {
              "internalType": "uint256",
              "name": "",
              "type": "uint256"
            }
          ],
          "stateMutability": "view",
          "type": "function"
        },
        {
          "inputs": [
            {
              "internalType": "uint256",
              "name": "",
              "type": "uint256"
            }
          ],
          "name": "projects",
          "outputs": [
            {
              "internalType": "uint256",
              "name": "id",
              "type": "uint256"
            },
            {
              "internalType": "string",
              "name": "name",
              "type": "string"
            },
            {
              "internalType": "address",
              "name": "contractor",
              "type": "address"
            },
            {
              "internalType": "uint256",
              "name": "budget",
              "type": "uint256"
            },
            {
              "internalType": "uint256",
              "name": "spent",
              "type": "uint256"
            },
            {
              "internalType": "bool",
              "name": "completed",
              "type": "bool"
            },
            {
              "internalType": "bool",
              "name": "funded",
              "type": "bool"
            }
          ],
          "stateMutability": "view",
          "type": "function"
        },
        {
          "inputs": [
            {
              "internalType": "uint256",
              "name": "_projectId",
              "type": "uint256"
            }
          ],
          "name": "receiveFunds",
          "outputs": [],
          "stateMutability": "payable",
          "type": "function"
        }
      ],
      "evm": {
        "bytecode": {
          "linkReferences": {},
          "object": "6080604052348015600f57600080fd5b50612eff8061001f6000396000f3fe6080604052600436106100f35760003560e01c806380d038291161008a57806396694b301161005957806396694b3014610312578063af4afe0a1461034f578063dd53ff6c1461038f578063fddf2a00146103ba576100f3565b806380d03829146102625780638827e09b1461028d5780638f9b6b41146102a957806391754a5d146102e9576100f3565b806337f3061d116100c657806337f3061d146101b857806352e7df5d146101e35780636f9fb98a1461020e578063720959f114610239576100f3565b8063107046bd146100f857806322c2ec601461013b5780633434d6d51461016457806336fbad261461018d575b600080fd5b34801561010457600080fd5b5061011f600480360381019061011a9190611be8565b6103f7565b6040516101329796959493929190611d10565b60405180910390f35b34801561014757600080fd5b50610162600480360381019061015d9190611d86565b6104fb565b005b34801561017057600080fd5b5061018b60048036038101906101869190611df2565b6108cb565b005b34801561019957600080fd5b506101a2610a58565b6040516101af9190611e32565b60405180910390f35b3480156101c457600080fd5b506101cd610a5e565b6040516101da9190611f6f565b60405180910390f35b3480156101ef57600080fd5b506101f8610c30565b6040516102059190611e32565b60405180910390f35b34801561021a57600080fd5b50610223610c36565b6040516102309190611e32565b60405180910390f35b34801561024557600080fd5b50610260600480360381019061025b91906120c6565b610c3e565b005b34801561026e57600080fd5b50610277610eec565b6040516102849190612300565b60405180910390f35b6102a760048036038101906102a29190611be8565b6110f6565b005b3480156102b557600080fd5b506102d060048036038101906102cb9190611d86565b6112d7565b6040516102e09493929190612322565b60405180910390f35b3480156102f557600080fd5b50610310600480360381019061030b9190612367565b611344565b005b34801561031e57600080fd5b5061033960048036038101906103349190611be8565b611521565b6040516103469190611f6f565b60405180910390f35b34801561035b57600080fd5b5061037660048036038101906103719190611be8565b61165f565b60405161038694939291906123c3565b60405180910390f35b34801561039b57600080fd5b506103a4611717565b6040516103b19190612534565b60405180910390f35b3480156103c657600080fd5b506103e160048036038101906103dc9190611be8565b611896565b6040516103ee9190612534565b60405180910390f35b600060205280600052604060002060009150905080600001549080600101805461042090612585565b80601f016020809104026020016040519081016040528092919081815260200182805461044c90612585565b80156104995780601f1061046e57610100808354040283529160200191610499565b820191906000526020600020905b81548152906001019060200180831161047c57829003601f168201915b5050505050908060020160009054906101000a900473ffffffffffffffffffffffffffffffffffffffff16908060030154908060040154908060050160009054906101000a900460ff16908060050160019054906101000a900460ff16905087565b600073ffffffffffffffffffffffffffffffffffffffff1660008084815260200190815260200160002060020160009054906101000a900473ffffffffffffffffffffffffffffffffffffffff1673ffffffffffffffffffffffffffffffffffffffff160361059f576040517f08c379a000000000000000000000000000000000000000000000000000000000815260040161059690612602565b60405180910390fd5b600081116105e2576040517f08c379a00000000000000000000000000000000000000000000000000000000081526004016105d99061266e565b60405180910390fd5b60008083815260200190815260200160002060030154816000808581526020019081526020016000206004015461061991906126bd565b111561065a576040517f08c379a00000000000000000000000000000000000000000000000000000000081526004016106519061273d565b60405180910390fd5b8047101561069d576040517f08c379a0000000000000000000000000000000000000000000000000000000008152600401610694906127a9565b60405180910390fd5b6000670de0b6b3a7640000826106b391906127c9565b9050600460008154809291906106c89061280b565b9190505550604051806080016040528084815260200160045481526020016040518060400160405280601581526020017f5061796d656e7420746f20436f6e74726163746f7200000000000000000000008152508152602001828152506001600060045481526020019081526020016000206000820151816000015560208201518160010155604082015181600201908161076391906129ff565b506060820151816003015590505080600080858152602001908152602001600020600401600082825461079691906126bd565b9250508190555060008084815260200190815260200160002060020160009054906101000a900473ffffffffffffffffffffffffffffffffffffffff1673ffffffffffffffffffffffffffffffffffffffff166108fc829081150290604051600060405180830381858888f19350505050158015610818573d6000803e3d6000fd5b507f1733a4c87d5bbf75b3d2c8157bcc2104705a85666ed7f41e7ade3affa3817f8c8360008086815260200190815260200160002060020160009054906101000a900473ffffffffffffffffffffffffffffffffffffffff168360405161088193929190612ad1565b60405180910390a17fccbbd25a39d091195458b3eb433bd458a5c176f99639fd0b18aa1b36be80f4a183600454836040516108be93929190612b54565b60405180910390a1505050565b60008060008481526020019081526020016000206000015403610923576040517f08c379a000000000000000000000000000000000000000000000000000000000815260040161091a90612bea565b60405180910390fd5b600073ffffffffffffffffffffffffffffffffffffffff1660008084815260200190815260200160002060020160009054906101000a900473ffffffffffffffffffffffffffffffffffffffff1673ffffffffffffffffffffffffffffffffffffffff16146109c7576040517f08c379a00000000000000000000000000000000000000000000000000000000081526004016109be90612c56565b60405180910390fd5b8060008084815260200190815260200160002060020160006101000a81548173ffffffffffffffffffffffffffffffffffffffff021916908373ffffffffffffffffffffffffffffffffffffffff1602179055507f44f1f4aa1ae6aa480e93c8392cc3b10ea56fa5a0e299e0699809026eaea663968282604051610a4c929190612c76565b60405180910390a15050565b60035481565b6060600080600190505b6003548111610aa857600260008281526020019081526020016000208054905082610a9391906126bd565b91508080610aa09061280b565b915050610a68565b5060008167ffffffffffffffff811115610ac557610ac4611f9b565b5b604051908082528060200260200182016040528015610afe57816020015b610aeb611ae1565b815260200190600190039081610ae35790505b509050600080600190505b6003548111610c2657600060026000838152602001908152602001600020905060005b8180549050811015610c1157818181548110610b4b57610b4a612c9f565b5b9060005260206000209060040201604051806080016040529081600082015481526020016001820160009054906101000a900473ffffffffffffffffffffffffffffffffffffffff1673ffffffffffffffffffffffffffffffffffffffff1673ffffffffffffffffffffffffffffffffffffffff16815260200160028201548152602001600382015481525050858581518110610beb57610bea612c9f565b5b60200260200101819052508380610c019061280b565b9450508080600101915050610b2c565b50508080610c1e9061280b565b915050610b09565b5081935050505090565b60045481565b600047905090565b60008060008681526020019081526020016000206000015403610c96576040517f08c379a0000000000000000000000000000000000000000000000000000000008152600401610c8d90612bea565b60405180910390fd5b60008111610cd9576040517f08c379a0000000000000000000000000000000000000000000000000000000008152600401610cd090612d1a565b60405180910390fd5b600080858152602001908152602001600020600301548160008087815260200190815260200160002060040154610d1091906126bd565b1115610d51576040517f08c379a0000000000000000000000000000000000000000000000000000000008152600401610d489061273d565b60405180910390fd5b80471015610d94576040517f08c379a0000000000000000000000000000000000000000000000000000000008152600401610d8b906127a9565b60405180910390fd5b6000670de0b6b3a764000082610daa91906127c9565b905060046000815480929190610dbf9061280b565b9190505550604051806080016040528086815260200160045481526020018581526020018281525060016000600454815260200190815260200160002060008201518160000155602082015181600101556040820151816002019081610e2591906129ff565b5060608201518160030155905050806000808781526020019081526020016000206004016000828254610e5891906126bd565b925050819055508273ffffffffffffffffffffffffffffffffffffffff166108fc829081150290604051600060405180830381858888f19350505050158015610ea5573d6000803e3d6000fd5b507fccbbd25a39d091195458b3eb433bd458a5c176f99639fd0b18aa1b36be80f4a1856004548684604051610edd94939291906123c3565b60405180910390a15050505050565b6060600060035467ffffffffffffffff811115610f0c57610f0b611f9b565b5b604051908082528060200260200182016040528015610f4557816020015b610f32611b1f565b815260200190600190039081610f2a5790505b5090506000600190505b60035481116110ee576000808281526020019081526020016000206040518060e001604052908160008201548152602001600182018054610f8f90612585565b80601f0160208091040260200160405190810160405280929190818152602001828054610fbb90612585565b80156110085780601f10610fdd57610100808354040283529160200191611008565b820191906000526020600020905b815481529060010190602001808311610feb57829003601f168201915b505050505081526020016002820160009054906101000a900473ffffffffffffffffffffffffffffffffffffffff1673ffffffffffffffffffffffffffffffffffffffff1673ffffffffffffffffffffffffffffffffffffffff16815260200160038201548152602001600482015481526020016005820160009054906101000a900460ff161515151581526020016005820160019054906101000a900460ff161515151581525050826001836110bf9190612d3a565b815181106110d0576110cf612c9f565b5b602002602001018190525080806110e69061280b565b915050610f4f565b508091505090565b60003411611139576040517f08c379a000000000000000000000000000000000000000000000000000000000815260040161113090612dba565b60405180910390fd5b60008060008381526020019081526020016000206000015403611191576040517f08c379a000000000000000000000000000000000000000000000000000000000815260040161118890612bea565b60405180910390fd5b6002600082815260200190815260200160002060405180608001604052808381526020013373ffffffffffffffffffffffffffffffffffffffff1681526020013481526020014281525090806001815401808255809150506001900390600052602060002090600402016000909190919091506000820151816000015560208201518160010160006101000a81548173ffffffffffffffffffffffffffffffffffffffff021916908373ffffffffffffffffffffffffffffffffffffffff16021790555060408201518160020155606082015181600301555050600160008083815260200190815260200160002060050160016101000a81548160ff0219169083151502179055507f363f315f930a17d1266b86a20d6dd34b1cfbc5a9db9f13a65d06a689c3a2af8a3334836040516112cc93929190612dda565b60405180910390a150565b600260205281600052604060002081815481106112f357600080fd5b9060005260206000209060040201600091509150508060000154908060010160009054906101000a900473ffffffffffffffffffffffffffffffffffffffff16908060020154908060030154905084565b60008111611387576040517f08c379a000000000000000000000000000000000000000000000000000000000815260040161137e90612e5d565b60405180910390fd5b6000670de0b6b3a76400008261139d91906127c9565b9050600360008154809291906113b29061280b565b91905055506040518060e001604052806003548152602001848152602001600073ffffffffffffffffffffffffffffffffffffffff1681526020018281526020016000815260200160001515815260200160001515815250600080600354815260200190815260200160002060008201518160000155602082015181600101908161143d91906129ff565b5060408201518160020160006101000a81548173ffffffffffffffffffffffffffffffffffffffff021916908373ffffffffffffffffffffffffffffffffffffffff160217905550606082015181600301556080820151816004015560a08201518160050160006101000a81548160ff02191690831515021790555060c08201518160050160016101000a81548160ff0219169083151502179055509050507fa026ee65bff24e0219543a4cec2746ef952b145e2658ac5db36953d7044712a9600354846000846040516115149493929190612e7d565b60405180910390a1505050565b60606000806000848152602001908152602001600020600001540361157b576040517f08c379a000000000000000000000000000000000000000000000000000000000815260040161157290612bea565b60405180910390fd5b60026000838152602001908152602001600020805480602002602001604051908101604052809291908181526020016000905b828210156116545783829060005260206000209060040201604051806080016040529081600082015481526020016001820160009054906101000a900473ffffffffffffffffffffffffffffffffffffffff1673ffffffffffffffffffffffffffffffffffffffff1673ffffffffffffffffffffffffffffffffffffffff16815260200160028201548152602001600382015481525050815260200190600101906115ae565b505050509050919050565b600160205280600052604060002060009150905080600001549080600101549080600201805461168e90612585565b80601f01602080910402602001604051908101604052809291908181526020018280546116ba90612585565b80156117075780601f106116dc57610100808354040283529160200191611707565b820191906000526020600020905b8154815290600101906020018083116116ea57829003601f168201915b5050505050908060030154905084565b6060600060045467ffffffffffffffff81111561173757611736611f9b565b5b60405190808252806020026020018201604052801561177057816020015b61175d611b76565b8152602001906001900390816117555790505b5090506000600190505b600454811161188e576001600082815260200190815260200160002060405180608001604052908160008201548152602001600182015481526020016002820180546117c590612585565b80601f01602080910402602001604051908101604052809291908181526020018280546117f190612585565b801561183e5780601f106118135761010080835404028352916020019161183e565b820191906000526020600020905b81548152906001019060200180831161182157829003601f168201915b505050505081526020016003820154815250508260018361185f9190612d3a565b815181106118705761186f612c9f565b5b602002602001018190525080806118869061280b565b91505061177a565b508091505090565b6060600080600084815260200190815260200160002060000154036118f0576040517f08c379a00000000000000000000000000000000000000000000000000000000081526004016118e790612bea565b60405180910390fd5b600080600190505b6004548111611940578360016000838152602001908152602001600020600001540361192d5781806119299061280b565b9250505b80806119389061280b565b9150506118f8565b5060008167ffffffffffffffff81111561195d5761195c611f9b565b5b60405190808252806020026020018201604052801561199657816020015b611983611b76565b81526020019060019003908161197b5790505b509050600080600190505b6004548111611ad55785600160008381526020019081526020016000206000015403611ac257600160008281526020019081526020016000206040518060800160405290816000820154815260200160018201548152602001600282018054611a0990612585565b80601f0160208091040260200160405190810160405280929190818152602001828054611a3590612585565b8015611a825780601f10611a5757610100808354040283529160200191611a82565b820191906000526020600020905b815481529060010190602001808311611a6557829003601f168201915b50505050508152602001600382015481525050838381518110611aa857611aa7612c9f565b5b60200260200101819052508180611abe9061280b565b9250505b8080611acd9061280b565b9150506119a1565b50819350505050919050565b604051806080016040528060008152602001600073ffffffffffffffffffffffffffffffffffffffff16815260200160008152602001600081525090565b6040518060e001604052806000815260200160608152602001600073ffffffffffffffffffffffffffffffffffffffff16815260200160008152602001600081526020016000151581526020016000151581525090565b6040518060800160405280600081526020016000815260200160608152602001600081525090565b6000604051905090565b600080fd5b600080fd5b6000819050919050565b611bc581611bb2565b8114611bd057600080fd5b50565b600081359050611be281611bbc565b92915050565b600060208284031215611bfe57611bfd611ba8565b5b6000611c0c84828501611bd3565b91505092915050565b611c1e81611bb2565b82525050565b600081519050919050565b600082825260208201905092915050565b60005b83811015611c5e578082015181840152602081019050611c43565b60008484015250505050565b6000601f19601f8301169050919050565b6000611c8682611c24565b611c908185611c2f565b9350611ca0818560208601611c40565b611ca981611c6a565b840191505092915050565b600073ffffffffffffffffffffffffffffffffffffffff82169050919050565b6000611cdf82611cb4565b9050919050565b611cef81611cd4565b82525050565b60008115159050919050565b611d0a81611cf5565b82525050565b600060e082019050611d25600083018a611c15565b8181036020830152611d378189611c7b565b9050611d466040830188611ce6565b611d536060830187611c15565b611d606080830186611c15565b611d6d60a0830185611d01565b611d7a60c0830184611d01565b98975050505050505050565b60008060408385031215611d9d57611d9c611ba8565b5b6000611dab85828601611bd3565b9250506020611dbc85828601611bd3565b9150509250929050565b611dcf81611cd4565b8114611dda57600080fd5b50565b600081359050611dec81611dc6565b92915050565b60008060408385031215611e0957611e08611ba8565b5b6000611e1785828601611bd3565b9250506020611e2885828601611ddd565b9150509250929050565b6000602082019050611e476000830184611c15565b92915050565b600081519050919050565b600082825260208201905092915050565b6000819050602082019050919050565b611e8281611bb2565b82525050565b611e9181611cd4565b82525050565b608082016000820151611ead6000850182611e79565b506020820151611ec06020850182611e88565b506040820151611ed36040850182611e79565b506060820151611ee66060850182611e79565b50505050565b6000611ef88383611e97565b60808301905092915050565b6000602082019050919050565b6000611f1c82611e4d565b611f268185611e58565b9350611f3183611e69565b8060005b83811015611f62578151611f498882611eec565b9750611f5483611f04565b925050600181019050611f35565b5085935050505092915050565b60006020820190508181036000830152611f898184611f11565b905092915050565b600080fd5b600080fd5b7f4e487b7100000000000000000000000000000000000000000000000000000000600052604160045260246000fd5b611fd382611c6a565b810181811067ffffffffffffffff82111715611ff257611ff1611f9b565b5b80604052505050565b6000612005611b9e565b90506120118282611fca565b919050565b600067ffffffffffffffff82111561203157612030611f9b565b5b61203a82611c6a565b9050602081019050919050565b82818337600083830152505050565b600061206961206484612016565b611ffb565b90508281526020810184848401111561208557612084611f96565b5b612090848285612047565b509392505050565b600082601f8301126120ad576120ac611f91565b5b81356120bd848260208601612056565b91505092915050565b600080600080608085870312156120e0576120df611ba8565b5b60006120ee87828801611bd3565b945050602085013567ffffffffffffffff81111561210f5761210e611bad565b5b61211b87828801612098565b935050604061212c87828801611ddd565b925050606061213d87828801611bd3565b91505092959194509250565b600081519050919050565b600082825260208201905092915050565b6000819050602082019050919050565b600082825260208201905092915050565b600061219182611c24565b61219b8185612175565b93506121ab818560208601611c40565b6121b481611c6a565b840191505092915050565b6121c881611cf5565b82525050565b600060e0830160008301516121e66000860182611e79565b50602083015184820360208601526121fe8282612186565b91505060408301516122136040860182611e88565b5060608301516122266060860182611e79565b5060808301516122396080860182611e79565b5060a083015161224c60a08601826121bf565b5060c083015161225f60c08601826121bf565b508091505092915050565b600061227683836121ce565b905092915050565b6000602082019050919050565b600061229682612149565b6122a08185612154565b9350836020820285016122b285612165565b8060005b858110156122ee57848403895281516122cf858261226a565b94506122da8361227e565b925060208a019950506001810190506122b6565b50829750879550505050505092915050565b6000602082019050818103600083015261231a818461228b565b905092915050565b60006080820190506123376000830187611c15565b6123446020830186611ce6565b6123516040830185611c15565b61235e6060830184611c15565b95945050505050565b6000806040838503121561237e5761237d611ba8565b5b600083013567ffffffffffffffff81111561239c5761239b611bad565b5b6123a885828601612098565b92505060206123b985828601611bd3565b9150509250929050565b60006080820190506123d86000830187611c15565b6123e56020830186611c15565b81810360408301526123f78185611c7b565b90506124066060830184611c15565b95945050505050565b600081519050919050565b600082825260208201905092915050565b6000819050602082019050919050565b60006080830160008301516124536000860182611e79565b5060208301516124666020860182611e79565b506040830151848203604086015261247e8282612186565b91505060608301516124936060860182611e79565b508091505092915050565b60006124aa838361243b565b905092915050565b6000602082019050919050565b60006124ca8261240f565b6124d4818561241a565b9350836020820285016124e68561242b565b8060005b858110156125225784840389528151612503858261249e565b945061250e836124b2565b925060208a019950506001810190506124ea565b50829750879550505050505092915050565b6000602082019050818103600083015261254e81846124bf565b905092915050565b7f4e487b7100000000000000000000000000000000000000000000000000000000600052602260045260246000fd5b6000600282049050600182168061259d57607f821691505b6020821081036125b0576125af612556565b5b50919050565b7f436f6e74726163746f72206e6f742061737369676e6564000000000000000000600082015250565b60006125ec601783611c2f565b91506125f7826125b6565b602082019050919050565b6000602082019050818103600083015261261b816125df565b9050919050565b7f416d6f756e74206d7573742062652067726561746572207468616e2030000000600082015250565b6000612658601d83611c2f565b915061266382612622565b602082019050919050565b600060208201905081810360008301526126878161264b565b9050919050565b7f4e487b7100000000000000000000000000000000000000000000000000000000600052601160045260246000fd5b60006126c882611bb2565b91506126d383611bb2565b92508282019050808211156126eb576126ea61268e565b5b92915050565b7f4578636565647320627564676574000000000000000000000000000000000000600082015250565b6000612727600e83611c2f565b9150612732826126f1565b602082019050919050565b600060208201905081810360008301526127568161271a565b9050919050565b7f496e73756666696369656e7420636f6e74726163742062616c616e6365000000600082015250565b6000612793601d83611c2f565b915061279e8261275d565b602082019050919050565b600060208201905081810360008301526127c281612786565b9050919050565b60006127d482611bb2565b91506127df83611bb2565b92508282026127ed81611bb2565b915082820484148315176128045761280361268e565b5b5092915050565b600061281682611bb2565b91507fffffffffffffffffffffffffffffffffffffffffffffffffffffffffffffffff82036128485761284761268e565b5b600182019050919050565b60008190508160005260206000209050919050565b60006020601f8301049050919050565b600082821b905092915050565b6000600883026128b57fffffffffffffffffffffffffffffffffffffffffffffffffffffffffffffffff82612878565b6128bf8683612878565b95508019841693508086168417925050509392505050565b6000819050919050565b60006128fc6128f76128f284611bb2565b6128d7565b611bb2565b9050919050565b6000819050919050565b612916836128e1565b61292a61292282612903565b848454612885565b825550505050565b600090565b61293f612932565b61294a81848461290d565b505050565b5b8181101561296e57612963600082612937565b600181019050612950565b5050565b601f8211156129b35761298481612853565b61298d84612868565b8101602085101561299c578190505b6129b06129a885612868565b83018261294f565b50505b505050565b600082821c905092915050565b60006129d6600019846008026129b8565b1980831691505092915050565b60006129ef83836129c5565b9150826002028217905092915050565b612a0882611c24565b67ffffffffffffffff811115612a2157612a20611f9b565b5b612a2b8254612585565b612a36828285612972565b600060209050601f831160018114612a695760008415612a57578287015190505b612a6185826129e3565b865550612ac9565b601f198416612a7786612853565b60005b82811015612a9f57848901518255600182019150602085019450602081019050612a7a565b86831015612abc5784890151612ab8601f8916826129c5565b8355505b6001600288020188555050505b505050505050565b6000606082019050612ae66000830186611c15565b612af36020830185611ce6565b612b006040830184611c15565b949350505050565b7f5061796d656e7420746f20436f6e74726163746f720000000000000000000000600082015250565b6000612b3e601583611c2f565b9150612b4982612b08565b602082019050919050565b6000608082019050612b696000830186611c15565b612b766020830185611c15565b8181036040830152612b8781612b31565b9050612b966060830184611c15565b949350505050565b7f50726f6a65637420646f6573206e6f7420657869737400000000000000000000600082015250565b6000612bd4601683611c2f565b9150612bdf82612b9e565b602082019050919050565b60006020820190508181036000830152612c0381612bc7565b9050919050565b7f436f6e74726163746f7220616c72656164792061737369676e65640000000000600082015250565b6000612c40601b83611c2f565b9150612c4b82612c0a565b602082019050919050565b60006020820190508181036000830152612c6f81612c33565b9050919050565b6000604082019050612c8b6000830185611c15565b612c986020830184611ce6565b9392505050565b7f4e487b7100000000000000000000000000000000000000000000000000000000600052603260045260246000fd5b7f457870656e7365206d7573742062652067726561746572207468616e20300000600082015250565b6000612d04601e83611c2f565b9150612d0f82612cce565b602082019050919050565b60006020820190508181036000830152612d3381612cf7565b9050919050565b6000612d4582611bb2565b9150612d5083611bb2565b9250828203905081811115612d6857612d6761268e565b5b92915050565b7f4d7573742073656e642066756e64730000000000000000000000000000000000600082015250565b6000612da4600f83611c2f565b9150612daf82612d6e565b602082019050919050565b60006020820190508181036000830152612dd381612d97565b9050919050565b6000606082019050612def6000830186611ce6565b612dfc6020830185611c15565b612e096040830184611c15565b949350505050565b7f427564676574206d7573742062652067726561746572207468616e2030000000600082015250565b6000612e47601d83611c2f565b9150612e5282612e11565b602082019050919050565b60006020820190508181036000830152612e7681612e3a565b9050919050565b6000608082019050612e926000830187611c15565b8181036020830152612ea48186611c7b565b9050612eb36040830185611ce6565b612ec06060830184611c15565b9594505050505056fea264697066735822122008603134c652d48cb8a56fc0de1a0494b530cd653f6a7b7cb16076c1215054b864736f6c634300081b0033",
          "opcodes": "PUSH1 0x80 PUSH1 0x40 MSTORE CALLVALUE DUP1 ISZERO PUSH1 0xF JUMPI PUSH1 0x0 DUP1 REVERT JUMPDEST POP PUSH2 0x2EFF DUP1 PUSH2 0x1F PUSH1 0x0 CODECOPY PUSH1 0x0 RETURN INVALID PUSH1 0x80 PUSH1 0x40 MSTORE PUSH1 0x4 CALLDATASIZE LT PUSH2 0xF3 JUMPI PUSH1 0x0 CALLDATALOAD PUSH1 0xE0 SHR DUP1 PUSH4 0x80D03829 GT PUSH2 0x8A JUMPI DUP1 PUSH4 0x96694B30 GT PUSH2 0x59 JUMPI DUP1 PUSH4 0x96694B30 EQ PUSH2 0x312 JUMPI DUP1 PUSH4 0xAF4AFE0A EQ PUSH2 0x34F JUMPI DUP1 PUSH4 0xDD53FF6C EQ PUSH2 0x38F JUMPI DUP1 PUSH4 0xFDDF2A00 EQ PUSH2 0x3BA JUMPI PUSH2 0xF3 JUMP JUMPDEST DUP1 PUSH4 0x80D03829 EQ PUSH2 0x262 JUMPI DUP1 PUSH4 0x8827E09B EQ PUSH2 0x28D JUMPI DUP1 PUSH4 0x8F9B6B41 EQ PUSH2 0x2A9 JUMPI DUP1 PUSH4 0x91754A5D EQ PUSH2 0x2E9 JUMPI PUSH2 0xF3 JUMP JUMPDEST DUP1 PUSH4 0x37F3061D GT PUSH2 0xC6 JUMPI DUP1 PUSH4 0x37F3061D EQ PUSH2 0x1B8 JUMPI DUP1 PUSH4 0x52E7DF5D EQ PUSH2 0x1E3 JUMPI DUP1 PUSH4 0x6F9FB98A EQ PUSH2 0x20E JUMPI DUP1 PUSH4 0x720959F1 EQ PUSH2 0x239 JUMPI PUSH2 0xF3 JUMP JUMPDEST DUP1 PUSH4 0x107046BD EQ PUSH2 0xF8 JUMPI DUP1 PUSH4 0x22C2EC60 EQ PUSH2 0x13B JUMPI DUP1 PUSH4 0x3434D6D5 EQ PUSH2 0x164 JUMPI DUP1 PUSH4 0x36FBAD26 EQ PUSH2 0x18D JUMPI JUMPDEST PUSH1 0x0 DUP1 REVERT JUMPDEST CALLVALUE DUP1 ISZERO PUSH2 0x104 JUMPI PUSH1 0x0 DUP1 REVERT JUMPDEST POP PUSH2 0x11F PUSH1 0x4 DUP1 CALLDATASIZE SUB DUP2 ADD SWAP1 PUSH2 0x11A SWAP2 SWAP1 PUSH2 0x1BE8 JUMP JUMPDEST PUSH2 0x3F7 JUMP JUMPDEST PUSH1 0x40 MLOAD PUSH2 0x132 SWAP8 SWAP7 SWAP6 SWAP5 SWAP4 SWAP3 SWAP2 SWAP1 PUSH2 0x1D10 JUMP JUMPDEST PUSH1 0x40 MLOAD DUP1 SWAP2 SUB SWAP1 RETURN JUMPDEST CALLVALUE DUP1 ISZERO PUSH2 0x147 JUMPI PUSH1 0x0 DUP1 REVERT JUMPDEST POP PUSH2 0x162 PUSH1 0x4 DUP1 CALLDATASIZE SUB DUP2 ADD SWAP1 PUSH2 0x15D SWAP2 SWAP1 PUSH2 0x1D86 JUMP JUMPDEST PUSH2 0x4FB JUMP JUMPDEST STOP JUMPDEST CALLVALUE DUP1 ISZERO PUSH2 0x170 JUMPI PUSH1 0x0 DUP1 REVERT JUMPDEST POP PUSH2 0x18B PUSH1 0x4 DUP1 CALLDATASIZE SUB DUP2 ADD SWAP1 PUSH2 0x186 SWAP2 SWAP1 PUSH2 0x1DF2 JUMP JUMPDEST PUSH2 0x8CB JUMP JUMPDEST STOP JUMPDEST CALLVALUE DUP1 ISZERO PUSH2 0x199 JUMPI PUSH1 0x0 DUP1 REVERT JUMPDEST POP PUSH2 0x1A2 PUSH2 0xA58 JUMP JUMPDEST PUSH1 0x40 MLOAD PUSH2 0x1AF SWAP2 SWAP1 PUSH2 0x1E32 JUMP JUMPDEST PUSH1 0x40 MLOAD DUP1 SWAP2 SUB SWAP1 RETURN JUMPDEST CALLVALUE DUP1 ISZERO PUSH2 0x1C4 JUMPI PUSH1 0x0 DUP1 REVERT JUMPDEST POP PUSH2 0x1CD PUSH2 0xA5E JUMP JUMPDEST PUSH1 0x40 MLOAD PUSH2 0x1DA SWAP2 SWAP1 PUSH2 0x1F6F JUMP JUMPDEST PUSH1 0x40 MLOAD DUP1 SWAP2 SUB SWAP1 RETURN JUMPDEST CALLVALUE DUP1 ISZERO PUSH2 0x1EF JUMPI PUSH1 0x0 DUP1 REVERT JUMPDEST POP PUSH2 0x1F8 PUSH2 0xC30 JUMP JUMPDEST PUSH1 0x40 MLOAD PUSH2 0x205 SWAP2 SWAP1 PUSH2 0x1E32 JUMP JUMPDEST PUSH1 0x40 MLOAD DUP1 SWAP2 SUB SWAP1 RETURN JUMPDEST CALLVALUE DUP1 ISZERO PUSH2 0x21A JUMPI PUSH1 0x0 DUP1 REVERT JUMPDEST POP PUSH2 0x223 PUSH2 0xC36 JUMP JUMPDEST PUSH1 0x40 MLOAD PUSH2 0x230 SWAP2 SWAP1 PUSH2 0x1E32 JUMP JUMPDEST PUSH1 0x40 MLOAD DUP1 SWAP2 SUB SWAP1 RETURN JUMPDEST CALLVALUE DUP1 ISZERO PUSH2 0x245 JUMPI PUSH1 0x0 DUP1 REVERT JUMPDEST POP PUSH2 0x260 PUSH1 0x4 DUP1 CALLDATASIZE SUB DUP2 ADD SWAP1 PUSH2 0x25B SWAP2 SWAP1 PUSH2 0x20C6 JUMP JUMPDEST PUSH2 0xC3E JUMP JUMPDEST STOP JUMPDEST CALLVALUE DUP1 ISZERO PUSH2 0x26E JUMPI PUSH1 0x0 DUP1 REVERT JUMPDEST POP PUSH2 0x277 PUSH2 0xEEC JUMP JUMPDEST PUSH1 0x40 MLOAD PUSH2 0x284 SWAP2 SWAP1 PUSH2 0x2300 JUMP JUMPDEST PUSH1 0x40 MLOAD DUP1 SWAP2 SUB SWAP1 RETURN JUMPDEST PUSH2 0x2A7 PUSH1 0x4 DUP1 CALLDATASIZE SUB DUP2 ADD SWAP1 PUSH2 0x2A2 SWAP2 SWAP1 PUSH2 0x1BE8 JUMP JUMPDEST PUSH2 0x10F6 JUMP JUMPDEST STOP JUMPDEST CALLVALUE DUP1 ISZERO PUSH2 0x2B5 JUMPI PUSH1 0x0 DUP1 REVERT JUMPDEST POP PUSH2 0x2D0 PUSH1 0x4 DUP1 CALLDATASIZE SUB DUP2 ADD SWAP1 PUSH2 0x2CB SWAP2 SWAP1 PUSH2 0x1D86 JUMP JUMPDEST PUSH2 0x12D7 JUMP JUMPDEST PUSH1 0x40 MLOAD PUSH2 0x2E0 SWAP5 SWAP4 SWAP3 SWAP2 SWAP1 PUSH2 0x2322 JUMP JUMPDEST PUSH1 0x40 MLOAD DUP1 SWAP2 SUB SWAP1 RETURN JUMPDEST CALLVALUE DUP1 ISZERO PUSH2 0x2F5 JUMPI PUSH1 0x0 DUP1 REVERT JUMPDEST POP PUSH2 0x310 PUSH1 0x4 DUP1 CALLDATASIZE SUB DUP2 ADD SWAP1 PUSH2 0x30B SWAP2 SWAP1 PUSH2 0x2367 JUMP JUMPDEST PUSH2 0x1344 JUMP JUMPDEST STOP JUMPDEST CALLVALUE DUP1 ISZERO PUSH2 0x31E JUMPI PUSH1 0x0 DUP1 REVERT JUMPDEST POP PUSH2 0x339 PUSH1 0x4 DUP1 CALLDATASIZE SUB DUP2 ADD SWAP1 PUSH2 0x334 SWAP2 SWAP1 PUSH2 0x1BE8 JUMP JUMPDEST PUSH2 0x1521 JUMP JUMPDEST PUSH1 0x40 MLOAD PUSH2 0x346 SWAP2 SWAP1 PUSH2 0x1F6F JUMP JUMPDEST PUSH1 0x40 MLOAD DUP1 SWAP2 SUB SWAP1 RETURN JUMPDEST CALLVALUE DUP1 ISZERO PUSH2 0x35B JUMPI PUSH1 0x0 DUP1 REVERT JUMPDEST POP PUSH2 0x376 PUSH1 0x4 DUP1 CALLDATASIZE SUB DUP2 ADD SWAP1 PUSH2 0x371 SWAP2 SWAP1 PUSH2 0x1BE8 JUMP JUMPDEST PUSH2 0x165F JUMP JUMPDEST PUSH1 0x40 MLOAD PUSH2 0x386 SWAP5 SWAP4 SWAP3 SWAP2 SWAP1 PUSH2 0x23C3 JUMP JUMPDEST PUSH1 0x40 MLOAD DUP1 SWAP2 SUB SWAP1 RETURN JUMPDEST CALLVALUE DUP1 ISZERO PUSH2 0x39B JUMPI PUSH1 0x0 DUP1 REVERT JUMPDEST POP PUSH2 0x3A4 PUSH2 0x1717 JUMP JUMPDEST PUSH1 0x40 MLOAD PUSH2 0x3B1 SWAP2 SWAP1 PUSH2 0x2534 JUMP JUMPDEST PUSH1 0x40 MLOAD DUP1 SWAP2 SUB SWAP1 RETURN JUMPDEST CALLVALUE DUP1 ISZERO PUSH2 0x3C6 JUMPI PUSH1 0x0 DUP1 REVERT JUMPDEST POP PUSH2 0x3E1 PUSH1 0x4 DUP1 CALLDATASIZE SUB DUP2 ADD SWAP1 PUSH2 0x3DC SWAP2 SWAP1 PUSH2 0x1BE8 JUMP JUMPDEST PUSH2 0x1896 JUMP JUMPDEST PUSH1 0x40 MLOAD PUSH2 0x3EE SWAP2 SWAP1 PUSH2 0x2534 JUMP JUMPDEST PUSH1 0x40 MLOAD DUP1 SWAP2 SUB SWAP1 RETURN JUMPDEST PUSH1 0x0 PUSH1 0x20 MSTORE DUP1 PUSH1 0x0 MSTORE PUSH1 0x40 PUSH1 0x0 KECCAK256 PUSH1 0x0 SWAP2 POP SWAP1 POP DUP1 PUSH1 0x0 ADD SLOAD SWAP1 DUP1 PUSH1 0x1 ADD DUP1 SLOAD PUSH2 0x420 SWAP1 PUSH2 0x2585 JUMP JUMPDEST DUP1 PUSH1 0x1F ADD PUSH1 0x20 DUP1 SWAP2 DIV MUL PUSH1 0x20 ADD PUSH1 0x40 MLOAD SWAP1 DUP2 ADD PUSH1 0x40 MSTORE DUP1 SWAP3 SWAP2 SWAP1 DUP2 DUP2 MSTORE PUSH1 0x20 ADD DUP3 DUP1 SLOAD PUSH2 0x44C SWAP1 PUSH2 0x2585 JUMP JUMPDEST DUP1 ISZERO PUSH2 0x499 JUMPI DUP1 PUSH1 0x1F LT PUSH2 0x46E JUMPI PUSH2 0x100 DUP1 DUP4 SLOAD DIV MUL DUP4 MSTORE SWAP2 PUSH1 0x20 ADD SWAP2 PUSH2 0x499 JUMP JUMPDEST DUP3 ADD SWAP2 SWAP1 PUSH1 0x0 MSTORE PUSH1 0x20 PUSH1 0x0 KECCAK256 SWAP1 JUMPDEST DUP2 SLOAD DUP2 MSTORE SWAP1 PUSH1 0x1 ADD SWAP1 PUSH1 0x20 ADD DUP1 DUP4 GT PUSH2 0x47C JUMPI DUP3 SWAP1 SUB PUSH1 0x1F AND DUP3 ADD SWAP2 JUMPDEST POP POP POP POP POP SWAP1 DUP1 PUSH1 0x2 ADD PUSH1 0x0 SWAP1 SLOAD SWAP1 PUSH2 0x100 EXP SWAP1 DIV PUSH20 0xFFFFFFFFFFFFFFFFFFFFFFFFFFFFFFFFFFFFFFFF AND SWAP1 DUP1 PUSH1 0x3 ADD SLOAD SWAP1 DUP1 PUSH1 0x4 ADD SLOAD SWAP1 DUP1 PUSH1 0x5 ADD PUSH1 0x0 SWAP1 SLOAD SWAP1 PUSH2 0x100 EXP SWAP1 DIV PUSH1 0xFF AND SWAP1 DUP1 PUSH1 0x5 ADD PUSH1 0x1 SWAP1 SLOAD SWAP1 PUSH2 0x100 EXP SWAP1 DIV PUSH1 0xFF AND SWAP1 POP DUP8 JUMP JUMPDEST PUSH1 0x0 PUSH20 0xFFFFFFFFFFFFFFFFFFFFFFFFFFFFFFFFFFFFFFFF AND PUSH1 0x0 DUP1 DUP5 DUP2 MSTORE PUSH1 0x20 ADD SWAP1 DUP2 MSTORE PUSH1 0x20 ADD PUSH1 0x0 KECCAK256 PUSH1 0x2 ADD PUSH1 0x0 SWAP1 SLOAD SWAP1 PUSH2 0x100 EXP SWAP1 DIV PUSH20 0xFFFFFFFFFFFFFFFFFFFFFFFFFFFFFFFFFFFFFFFF AND PUSH20 0xFFFFFFFFFFFFFFFFFFFFFFFFFFFFFFFFFFFFFFFF AND SUB PUSH2 0x59F JUMPI PUSH1 0x40 MLOAD PUSH32 0x8C379A000000000000000000000000000000000000000000000000000000000 DUP2 MSTORE PUSH1 0x4 ADD PUSH2 0x596 SWAP1 PUSH2 0x2602 JUMP JUMPDEST PUSH1 0x40 MLOAD DUP1 SWAP2 SUB SWAP1 REVERT JUMPDEST PUSH1 0x0 DUP2 GT PUSH2 0x5E2 JUMPI PUSH1 0x40 MLOAD PUSH32 0x8C379A000000000000000000000000000000000000000000000000000000000 DUP2 MSTORE PUSH1 0x4 ADD PUSH2 0x5D9 SWAP1 PUSH2 0x266E JUMP JUMPDEST PUSH1 0x40 MLOAD DUP1 SWAP2 SUB SWAP1 REVERT JUMPDEST PUSH1 0x0 DUP1 DUP4 DUP2 MSTORE PUSH1 0x20 ADD SWAP1 DUP2 MSTORE PUSH1 0x20 ADD PUSH1 0x0 KECCAK256 PUSH1 0x3 ADD SLOAD DUP2 PUSH1 0x0 DUP1 DUP6 DUP2 MSTORE PUSH1 0x20 ADD SWAP1 DUP2 MSTORE PUSH1 0x20 ADD PUSH1 0x0 KECCAK256 PUSH1 0x4 ADD SLOAD PUSH2 0x619 SWAP2 SWAP1 PUSH2 0x26BD JUMP JUMPDEST GT ISZERO PUSH2 0x65A JUMPI PUSH1 0x40 MLOAD PUSH32 0x8C379A000000000000000000000000000000000000000000000000000000000 DUP2 MSTORE PUSH1 0x4 ADD PUSH2 0x651 SWAP1 PUSH2 0x273D JUMP JUMPDEST PUSH1 0x40 MLOAD DUP1 SWAP2 SUB SWAP1 REVERT JUMPDEST DUP1 SELFBALANCE LT ISZERO PUSH2 0x69D JUMPI PUSH1 0x40 MLOAD PUSH32 0x8C379A000000000000000000000000000000000000000000000000000000000 DUP2 MSTORE PUSH1 0x4 ADD PUSH2 0x694 SWAP1 PUSH2 0x27A9 JUMP JUMPDEST PUSH1 0x40 MLOAD DUP1 SWAP2 SUB SWAP1 REVERT JUMPDEST PUSH1 0x0 PUSH8 0xDE0B6B3A7640000 DUP3 PUSH2 0x6B3 SWAP2 SWAP1 PUSH2 0x27C9 JUMP JUMPDEST SWAP1 POP PUSH1 0x4 PUSH1 0x0 DUP2 SLOAD DUP1 SWAP3 SWAP2 SWAP1 PUSH2 0x6C8 SWAP1 PUSH2 0x280B JUMP JUMPDEST SWAP2 SWAP1 POP SSTORE POP PUSH1 0x40 MLOAD DUP1 PUSH1 0x80 ADD PUSH1 0x40 MSTORE DUP1 DUP5 DUP2 MSTORE PUSH1 0x20 ADD PUSH1 0x4 SLOAD DUP2 MSTORE PUSH1 0x20 ADD PUSH1 0x40 MLOAD DUP1 PUSH1 0x40 ADD PUSH1 0x40 MSTORE DUP1 PUSH1 0x15 DUP2 MSTORE PUSH1 0x20 ADD PUSH32 0x5061796D656E7420746F20436F6E74726163746F720000000000000000000000 DUP2 MSTORE POP DUP2 MSTORE PUSH1 0x20 ADD DUP3 DUP2 MSTORE POP PUSH1 0x1 PUSH1 0x0 PUSH1 0x4 SLOAD DUP2 MSTORE PUSH1 0x20 ADD SWAP1 DUP2 MSTORE PUSH1 0x20 ADD PUSH1 0x0 KECCAK256 PUSH1 0x0 DUP3 ADD MLOAD DUP2 PUSH1 0x0 ADD SSTORE PUSH1 0x20 DUP3 ADD MLOAD DUP2 PUSH1 0x1 ADD SSTORE PUSH1 0x40 DUP3 ADD MLOAD DUP2 PUSH1 0x2 ADD SWAP1 DUP2 PUSH2 0x763 SWAP2 SWAP1 PUSH2 0x29FF JUMP JUMPDEST POP PUSH1 0x60 DUP3 ADD MLOAD DUP2 PUSH1 0x3 ADD SSTORE SWAP1 POP POP DUP1 PUSH1 0x0 DUP1 DUP6 DUP2 MSTORE PUSH1 0x20 ADD SWAP1 DUP2 MSTORE PUSH1 0x20 ADD PUSH1 0x0 KECCAK256 PUSH1 0x4 ADD PUSH1 0x0 DUP3 DUP3 SLOAD PUSH2 0x796 SWAP2 SWAP1 PUSH2 0x26BD JUMP JUMPDEST SWAP3 POP POP DUP2 SWAP1 SSTORE POP PUSH1 0x0 DUP1 DUP5 DUP2 MSTORE PUSH1 0x20 ADD SWAP1 DUP2 MSTORE PUSH1 0x20 ADD PUSH1 0x0 KECCAK256 PUSH1 0x2 ADD PUSH1 0x0 SWAP1 SLOAD SWAP1 PUSH2 0x100 EXP SWAP1 DIV PUSH20 0xFFFFFFFFFFFFFFFFFFFFFFFFFFFFFFFFFFFFFFFF AND PUSH20 0xFFFFFFFFFFFFFFFFFFFFFFFFFFFFFFFFFFFFFFFF AND PUSH2 0x8FC DUP3 SWAP1 DUP2 ISZERO MUL SWAP1 PUSH1 0x40 MLOAD PUSH1 0x0 PUSH1 0x40 MLOAD DUP1 DUP4 SUB DUP2 DUP6 DUP9 DUP9 CALL SWAP4 POP POP POP POP ISZERO DUP1 ISZERO PUSH2 0x818 JUMPI RETURNDATASIZE PUSH1 0x0 DUP1 RETURNDATACOPY RETURNDATASIZE PUSH1 0x0 REVERT JUMPDEST POP PUSH32 0x1733A4C87D5BBF75B3D2C8157BCC2104705A85666ED7F41E7ADE3AFFA3817F8C DUP4 PUSH1 0x0 DUP1 DUP7 DUP2 MSTORE PUSH1 0x20 ADD SWAP1 DUP2 MSTORE PUSH1 0x20 ADD PUSH1 0x0 KECCAK256 PUSH1 0x2 ADD PUSH1 0x0 SWAP1 SLOAD SWAP1 PUSH2 0x100 EXP SWAP1 DIV PUSH20 0xFFFFFFFFFFFFFFFFFFFFFFFFFFFFFFFFFFFFFFFF AND DUP4 PUSH1 0x40 MLOAD PUSH2 0x881 SWAP4 SWAP3 SWAP2 SWAP1 PUSH2 0x2AD1 JUMP JUMPDEST PUSH1 0x40 MLOAD DUP1 SWAP2 SUB SWAP1 LOG1 PUSH32 0xCCBBD25A39D091195458B3EB433BD458A5C176F99639FD0B18AA1B36BE80F4A1 DUP4 PUSH1 0x4 SLOAD DUP4 PUSH1 0x40 MLOAD PUSH2 0x8BE SWAP4 SWAP3 SWAP2 SWAP1 PUSH2 0x2B54 JUMP JUMPDEST PUSH1 0x40 MLOAD DUP1 SWAP2 SUB SWAP1 LOG1 POP POP POP JUMP JUMPDEST PUSH1 0x0 DUP1 PUSH1 0x0 DUP5 DUP2 MSTORE PUSH1 0x20 ADD SWAP1 DUP2 MSTORE PUSH1 0x20 ADD PUSH1 0x0 KECCAK256 PUSH1 0x0 ADD SLOAD SUB PUSH2 0x923 JUMPI PUSH1 0x40 MLOAD PUSH32 0x8C379A000000000000000000000000000000000000000000000000000000000 DUP2 MSTORE PUSH1 0x4 ADD PUSH2 0x91A SWAP1 PUSH2 0x2BEA JUMP JUMPDEST PUSH1 0x40 MLOAD DUP1 SWAP2 SUB SWAP1 REVERT JUMPDEST PUSH1 0x0 PUSH20 0xFFFFFFFFFFFFFFFFFFFFFFFFFFFFFFFFFFFFFFFF AND PUSH1 0x0 DUP1 DUP5 DUP2 MSTORE PUSH1 0x20 ADD SWAP1 DUP2 MSTORE PUSH1 0x20 ADD PUSH1 0x0 KECCAK256 PUSH1 0x2 ADD PUSH1 0x0 SWAP1 SLOAD SWAP1 PUSH2 0x100 EXP SWAP1 DIV PUSH20 0xFFFFFFFFFFFFFFFFFFFFFFFFFFFFFFFFFFFFFFFF AND PUSH20 0xFFFFFFFFFFFFFFFFFFFFFFFFFFFFFFFFFFFFFFFF AND EQ PUSH2 0x9C7 JUMPI PUSH1 0x40 MLOAD PUSH32 0x8C379A000000000000000000000000000000000000000000000000000000000 DUP2 MSTORE PUSH1 0x4 ADD PUSH2 0x9BE SWAP1 PUSH2 0x2C56 JUMP JUMPDEST PUSH1 0x40 MLOAD DUP1 SWAP2 SUB SWAP1 REVERT JUMPDEST DUP1 PUSH1 0x0 DUP1 DUP5 DUP2 MSTORE PUSH1 0x20 ADD SWAP1 DUP2 MSTORE PUSH1 0x20 ADD PUSH1 0x0 KECCAK256 PUSH1 0x2 ADD PUSH1 0x0 PUSH2 0x100 EXP DUP2 SLOAD DUP2 PUSH20 0xFFFFFFFFFFFFFFFFFFFFFFFFFFFFFFFFFFFFFFFF MUL NOT AND SWAP1 DUP4 PUSH20 0xFFFFFFFFFFFFFFFFFFFFFFFFFFFFFFFFFFFFFFFF AND MUL OR SWAP1 SSTORE POP PUSH32 0x44F1F4AA1AE6AA480E93C8392CC3B10EA56FA5A0E299E0699809026EAEA66396 DUP3 DUP3 PUSH1 0x40 MLOAD PUSH2 0xA4C SWAP3 SWAP2 SWAP1 PUSH2 0x2C76 JUMP JUMPDEST PUSH1 0x40 MLOAD DUP1 SWAP2 SUB SWAP1 LOG1 POP POP JUMP JUMPDEST PUSH1 0x3 SLOAD DUP2 JUMP JUMPDEST PUSH1 0x60 PUSH1 0x0 DUP1 PUSH1 0x1 SWAP1 POP JUMPDEST PUSH1 0x3 SLOAD DUP2 GT PUSH2 0xAA8 JUMPI PUSH1 0x2 PUSH1 0x0 DUP3 DUP2 MSTORE PUSH1 0x20 ADD SWAP1 DUP2 MSTORE PUSH1 0x20 ADD PUSH1 0x0 KECCAK256 DUP1 SLOAD SWAP1 POP DUP3 PUSH2 0xA93 SWAP2 SWAP1 PUSH2 0x26BD JUMP JUMPDEST SWAP2 POP DUP1 DUP1 PUSH2 0xAA0 SWAP1 PUSH2 0x280B JUMP JUMPDEST SWAP2 POP POP PUSH2 0xA68 JUMP JUMPDEST POP PUSH1 0x0 DUP2 PUSH8 0xFFFFFFFFFFFFFFFF DUP2 GT ISZERO PUSH2 0xAC5 JUMPI PUSH2 0xAC4 PUSH2 0x1F9B JUMP JUMPDEST JUMPDEST PUSH1 0x40 MLOAD SWAP1 DUP1 DUP3 MSTORE DUP1 PUSH1 0x20 MUL PUSH1 0x20 ADD DUP3 ADD PUSH1 0x40 MSTORE DUP1 ISZERO PUSH2 0xAFE JUMPI DUP2 PUSH1 0x20 ADD JUMPDEST PUSH2 0xAEB PUSH2 0x1AE1 JUMP JUMPDEST DUP2 MSTORE PUSH1 0x20 ADD SWAP1 PUSH1 0x1 SWAP1 SUB SWAP1 DUP2 PUSH2 0xAE3 JUMPI SWAP1 POP JUMPDEST POP SWAP1 POP PUSH1 0x0 DUP1 PUSH1 0x1 SWAP1 POP JUMPDEST PUSH1 0x3 SLOAD DUP2 GT PUSH2 0xC26 JUMPI PUSH1 0x0 PUSH1 0x2 PUSH1 0x0 DUP4 DUP2 MSTORE PUSH1 0x20 ADD SWAP1 DUP2 MSTORE PUSH1 0x20 ADD PUSH1 0x0 KECCAK256 SWAP1 POP PUSH1 0x0 JUMPDEST DUP2 DUP1 SLOAD SWAP1 POP DUP2 LT ISZERO PUSH2 0xC11 JUMPI DUP2 DUP2 DUP2 SLOAD DUP2 LT PUSH2 0xB4B JUMPI PUSH2 0xB4A PUSH2 0x2C9F JUMP JUMPDEST JUMPDEST SWAP1 PUSH1 0x0 MSTORE PUSH1 0x20 PUSH1 0x0 KECCAK256 SWAP1 PUSH1 0x4 MUL ADD PUSH1 0x40 MLOAD DUP1 PUSH1 0x80 ADD PUSH1 0x40 MSTORE SWAP1 DUP2 PUSH1 0x0 DUP3 ADD SLOAD DUP2 MSTORE PUSH1 0x20 ADD PUSH1 0x1 DUP3 ADD PUSH1 0x0 SWAP1 SLOAD SWAP1 PUSH2 0x100 EXP SWAP1 DIV PUSH20 0xFFFFFFFFFFFFFFFFFFFFFFFFFFFFFFFFFFFFFFFF AND PUSH20 0xFFFFFFFFFFFFFFFFFFFFFFFFFFFFFFFFFFFFFFFF AND PUSH20 0xFFFFFFFFFFFFFFFFFFFFFFFFFFFFFFFFFFFFFFFF AND DUP2 MSTORE PUSH1 0x20 ADD PUSH1 0x2 DUP3 ADD SLOAD DUP2 MSTORE PUSH1 0x20 ADD PUSH1 0x3 DUP3 ADD SLOAD DUP2 MSTORE POP POP DUP6 DUP6 DUP2 MLOAD DUP2 LT PUSH2 0xBEB JUMPI PUSH2 0xBEA PUSH2 0x2C9F JUMP JUMPDEST JUMPDEST PUSH1 0x20 MUL PUSH1 0x20 ADD ADD DUP2 SWAP1 MSTORE POP DUP4 DUP1 PUSH2 0xC01 SWAP1 PUSH2 0x280B JUMP JUMPDEST SWAP5 POP POP DUP1 DUP1 PUSH1 0x1 ADD SWAP2 POP POP PUSH2 0xB2C JUMP JUMPDEST POP POP DUP1 DUP1 PUSH2 0xC1E SWAP1 PUSH2 0x280B JUMP JUMPDEST SWAP2 POP POP PUSH2 0xB09 JUMP JUMPDEST POP DUP2 SWAP4 POP POP POP POP SWAP1 JUMP JUMPDEST PUSH1 0x4 SLOAD DUP2 JUMP JUMPDEST PUSH1 0x0 SELFBALANCE SWAP1 POP SWAP1 JUMP JUMPDEST PUSH1 0x0 DUP1 PUSH1 0x0 DUP7 DUP2 MSTORE PUSH1 0x20 ADD SWAP1 DUP2 MSTORE PUSH1 0x20 ADD PUSH1 0x0 KECCAK256 PUSH1 0x0 ADD SLOAD SUB PUSH2 0xC96 JUMPI PUSH1 0x40 MLOAD PUSH32 0x8C379A000000000000000000000000000000000000000000000000000000000 DUP2 MSTORE PUSH1 0x4 ADD PUSH2 0xC8D SWAP1 PUSH2 0x2BEA JUMP JUMPDEST PUSH1 0x40 MLOAD DUP1 SWAP2 SUB SWAP1 REVERT JUMPDEST PUSH1 0x0 DUP2 GT PUSH2 0xCD9 JUMPI PUSH1 0x40 MLOAD PUSH32 0x8C379A000000000000000000000000000000000000000000000000000000000 DUP2 MSTORE PUSH1 0x4 ADD PUSH2 0xCD0 SWAP1 PUSH2 0x2D1A JUMP JUMPDEST PUSH1 0x40 MLOAD DUP1 SWAP2 SUB SWAP1 REVERT JUMPDEST PUSH1 0x0 DUP1 DUP6 DUP2 MSTORE PUSH1 0x20 ADD SWAP1 DUP2 MSTORE PUSH1 0x20 ADD PUSH1 0x0 KECCAK256 PUSH1 0x3 ADD SLOAD DUP2 PUSH1 0x0 DUP1 DUP8 DUP2 MSTORE PUSH1 0x20 ADD SWAP1 DUP2 MSTORE PUSH1 0x20 ADD PUSH1 0x0 KECCAK256 PUSH1 0x4 ADD SLOAD PUSH2 0xD10 SWAP2 SWAP1 PUSH2 0x26BD JUMP JUMPDEST GT ISZERO PUSH2 0xD51 JUMPI PUSH1 0x40 MLOAD PUSH32 0x8C379A000000000000000000000000000000000000000000000000000000000 DUP2 MSTORE PUSH1 0x4 ADD PUSH2 0xD48 SWAP1 PUSH2 0x273D JUMP JUMPDEST PUSH1 0x40 MLOAD DUP1 SWAP2 SUB SWAP1 REVERT JUMPDEST DUP1 SELFBALANCE LT ISZERO PUSH2 0xD94 JUMPI PUSH1 0x40 MLOAD PUSH32 0x8C379A000000000000000000000000000000000000000000000000000000000 DUP2 MSTORE PUSH1 0x4 ADD PUSH2 0xD8B SWAP1 PUSH2 0x27A9 JUMP JUMPDEST PUSH1 0x40 MLOAD DUP1 SWAP2 SUB SWAP1 REVERT JUMPDEST PUSH1 0x0 PUSH8 0xDE0B6B3A7640000 DUP3 PUSH2 0xDAA SWAP2 SWAP1 PUSH2 0x27C9 JUMP JUMPDEST SWAP1 POP PUSH1 0x4 PUSH1 0x0 DUP2 SLOAD DUP1 SWAP3 SWAP2 SWAP1 PUSH2 0xDBF SWAP1 PUSH2 0x280B JUMP JUMPDEST SWAP2 SWAP1 POP SSTORE POP PUSH1 0x40 MLOAD DUP1 PUSH1 0x80 ADD PUSH1 0x40 MSTORE DUP1 DUP7 DUP2 MSTORE PUSH1 0x20 ADD PUSH1 0x4 SLOAD DUP2 MSTORE PUSH1 0x20 ADD DUP6 DUP2 MSTORE PUSH1 0x20 ADD DUP3 DUP2 MSTORE POP PUSH1 0x1 PUSH1 0x0 PUSH1 0x4 SLOAD DUP2 MSTORE PUSH1 0x20 ADD SWAP1 DUP2 MSTORE PUSH1 0x20 ADD PUSH1 0x0 KECCAK256 PUSH1 0x0 DUP3 ADD MLOAD DUP2 PUSH1 0x0 ADD SSTORE PUSH1 0x20 DUP3 ADD MLOAD DUP2 PUSH1 0x1 ADD SSTORE PUSH1 0x40 DUP3 ADD MLOAD DUP2 PUSH1 0x2 ADD SWAP1 DUP2 PUSH2 0xE25 SWAP2 SWAP1 PUSH2 0x29FF JUMP JUMPDEST POP PUSH1 0x60 DUP3 ADD MLOAD DUP2 PUSH1 0x3 ADD SSTORE SWAP1 POP POP DUP1 PUSH1 0x0 DUP1 DUP8 DUP2 MSTORE PUSH1 0x20 ADD SWAP1 DUP2 MSTORE PUSH1 0x20 ADD PUSH1 0x0 KECCAK256 PUSH1 0x4 ADD PUSH1 0x0 DUP3 DUP3 SLOAD PUSH2 0xE58 SWAP2 SWAP1 PUSH2 0x26BD JUMP JUMPDEST SWAP3 POP POP DUP2 SWAP1 SSTORE POP DUP3 PUSH20 0xFFFFFFFFFFFFFFFFFFFFFFFFFFFFFFFFFFFFFFFF AND PUSH2 0x8FC DUP3 SWAP1 DUP2 ISZERO MUL SWAP1 PUSH1 0x40 MLOAD PUSH1 0x0 PUSH1 0x40 MLOAD DUP1 DUP4 SUB DUP2 DUP6 DUP9 DUP9 CALL SWAP4 POP POP POP POP ISZERO DUP1 ISZERO PUSH2 0xEA5 JUMPI RETURNDATASIZE PUSH1 0x0 DUP1 RETURNDATACOPY RETURNDATASIZE PUSH1 0x0 REVERT JUMPDEST POP PUSH32 0xCCBBD25A39D091195458B3EB433BD458A5C176F99639FD0B18AA1B36BE80F4A1 DUP6 PUSH1 0x4 SLOAD DUP7 DUP5 PUSH1 0x40 MLOAD PUSH2 0xEDD SWAP5 SWAP4 SWAP3 SWAP2 SWAP1 PUSH2 0x23C3 JUMP JUMPDEST PUSH1 0x40 MLOAD DUP1 SWAP2 SUB SWAP1 LOG1 POP POP POP POP POP JUMP JUMPDEST PUSH1 0x60 PUSH1 0x0 PUSH1 0x3 SLOAD PUSH8 0xFFFFFFFFFFFFFFFF DUP2 GT ISZERO PUSH2 0xF0C JUMPI PUSH2 0xF0B PUSH2 0x1F9B JUMP JUMPDEST JUMPDEST PUSH1 0x40 MLOAD SWAP1 DUP1 DUP3 MSTORE DUP1 PUSH1 0x20 MUL PUSH1 0x20 ADD DUP3 ADD PUSH1 0x40 MSTORE DUP1 ISZERO PUSH2 0xF45 JUMPI DUP2 PUSH1 0x20 ADD JUMPDEST PUSH2 0xF32 PUSH2 0x1B1F JUMP JUMPDEST DUP2 MSTORE PUSH1 0x20 ADD SWAP1 PUSH1 0x1 SWAP1 SUB SWAP1 DUP2 PUSH2 0xF2A JUMPI SWAP1 POP JUMPDEST POP SWAP1 POP PUSH1 0x0 PUSH1 0x1 SWAP1 POP JUMPDEST PUSH1 0x3 SLOAD DUP2 GT PUSH2 0x10EE JUMPI PUSH1 0x0 DUP1 DUP3 DUP2 MSTORE PUSH1 0x20 ADD SWAP1 DUP2 MSTORE PUSH1 0x20 ADD PUSH1 0x0 KECCAK256 PUSH1 0x40 MLOAD DUP1 PUSH1 0xE0 ADD PUSH1 0x40 MSTORE SWAP1 DUP2 PUSH1 0x0 DUP3 ADD SLOAD DUP2 MSTORE PUSH1 0x20 ADD PUSH1 0x1 DUP3 ADD DUP1 SLOAD PUSH2 0xF8F SWAP1 PUSH2 0x2585 JUMP JUMPDEST DUP1 PUSH1 0x1F ADD PUSH1 0x20 DUP1 SWAP2 DIV MUL PUSH1 0x20 ADD PUSH1 0x40 MLOAD SWAP1 DUP2 ADD PUSH1 0x40 MSTORE DUP1 SWAP3 SWAP2 SWAP1 DUP2 DUP2 MSTORE PUSH1 0x20 ADD DUP3 DUP1 SLOAD PUSH2 0xFBB SWAP1 PUSH2 0x2585 JUMP JUMPDEST DUP1 ISZERO PUSH2 0x1008 JUMPI DUP1 PUSH1 0x1F LT PUSH2 0xFDD JUMPI PUSH2 0x100 DUP1 DUP4 SLOAD DIV MUL DUP4 MSTORE SWAP2 PUSH1 0x20 ADD SWAP2 PUSH2 0x1008 JUMP JUMPDEST DUP3 ADD SWAP2 SWAP1 PUSH1 0x0 MSTORE PUSH1 0x20 PUSH1 0x0 KECCAK256 SWAP1 JUMPDEST DUP2 SLOAD DUP2 MSTORE SWAP1 PUSH1 0x1 ADD SWAP1 PUSH1 0x20 ADD DUP1 DUP4 GT PUSH2 0xFEB JUMPI DUP3 SWAP1 SUB PUSH1 0x1F AND DUP3 ADD SWAP2 JUMPDEST POP POP POP POP POP DUP2 MSTORE PUSH1 0x20 ADD PUSH1 0x2 DUP3 ADD PUSH1 0x0 SWAP1 SLOAD SWAP1 PUSH2 0x100 EXP SWAP1 DIV PUSH20 0xFFFFFFFFFFFFFFFFFFFFFFFFFFFFFFFFFFFFFFFF AND PUSH20 0xFFFFFFFFFFFFFFFFFFFFFFFFFFFFFFFFFFFFFFFF AND PUSH20 0xFFFFFFFFFFFFFFFFFFFFFFFFFFFFFFFFFFFFFFFF AND DUP2 MSTORE PUSH1 0x20 ADD PUSH1 0x3 DUP3 ADD SLOAD DUP2 MSTORE PUSH1 0x20 ADD PUSH1 0x4 DUP3 ADD SLOAD DUP2 MSTORE PUSH1 0x20 ADD PUSH1 0x5 DUP3 ADD PUSH1 0x0 SWAP1 SLOAD SWAP1 PUSH2 0x100 EXP SWAP1 DIV PUSH1 0xFF AND ISZERO ISZERO ISZERO ISZERO DUP2 MSTORE PUSH1 0x20 ADD PUSH1 0x5 DUP3 ADD PUSH1 0x1 SWAP1 SLOAD SWAP1 PUSH2 0x100 EXP SWAP1 DIV PUSH1 0xFF AND ISZERO ISZERO ISZERO ISZERO DUP2 MSTORE POP POP DUP3 PUSH1 0x1 DUP4 PUSH2 0x10BF SWAP2 SWAP1 PUSH2 0x2D3A JUMP JUMPDEST DUP2 MLOAD DUP2 LT PUSH2 0x10D0 JUMPI PUSH2 0x10CF PUSH2 0x2C9F JUMP JUMPDEST JUMPDEST PUSH1 0x20 MUL PUSH1 0x20 ADD ADD DUP2 SWAP1 MSTORE POP DUP1 DUP1 PUSH2 0x10E6 SWAP1 PUSH2 0x280B JUMP JUMPDEST SWAP2 POP POP PUSH2 0xF4F JUMP JUMPDEST POP DUP1 SWAP2 POP POP SWAP1 JUMP JUMPDEST PUSH1 0x0 CALLVALUE GT PUSH2 0x1139 JUMPI PUSH1 0x40 MLOAD PUSH32 0x8C379A000000000000000000000000000000000000000000000000000000000 DUP2 MSTORE PUSH1 0x4 ADD PUSH2 0x1130 SWAP1 PUSH2 0x2DBA JUMP JUMPDEST PUSH1 0x40 MLOAD DUP1 SWAP2 SUB SWAP1 REVERT JUMPDEST PUSH1 0x0 DUP1 PUSH1 0x0 DUP4 DUP2 MSTORE PUSH1 0x20 ADD SWAP1 DUP2 MSTORE PUSH1 0x20 ADD PUSH1 0x0 KECCAK256 PUSH1 0x0 ADD SLOAD SUB PUSH2 0x1191 JUMPI PUSH1 0x40 MLOAD PUSH32 0x8C379A000000000000000000000000000000000000000000000000000000000 DUP2 MSTORE PUSH1 0x4 ADD PUSH2 0x1188 SWAP1 PUSH2 0x2BEA JUMP JUMPDEST PUSH1 0x40 MLOAD DUP1 SWAP2 SUB SWAP1 REVERT JUMPDEST PUSH1 0x2 PUSH1 0x0 DUP3 DUP2 MSTORE PUSH1 0x20 ADD SWAP1 DUP2 MSTORE PUSH1 0x20 ADD PUSH1 0x0 KECCAK256 PUSH1 0x40 MLOAD DUP1 PUSH1 0x80 ADD PUSH1 0x40 MSTORE DUP1 DUP4 DUP2 MSTORE PUSH1 0x20 ADD CALLER PUSH20 0xFFFFFFFFFFFFFFFFFFFFFFFFFFFFFFFFFFFFFFFF AND DUP2 MSTORE PUSH1 0x20 ADD CALLVALUE DUP2 MSTORE PUSH1 0x20 ADD TIMESTAMP DUP2 MSTORE POP SWAP1 DUP1 PUSH1 0x1 DUP2 SLOAD ADD DUP1 DUP3 SSTORE DUP1 SWAP2 POP POP PUSH1 0x1 SWAP1 SUB SWAP1 PUSH1 0x0 MSTORE PUSH1 0x20 PUSH1 0x0 KECCAK256 SWAP1 PUSH1 0x4 MUL ADD PUSH1 0x0 SWAP1 SWAP2 SWAP1 SWAP2 SWAP1 SWAP2 POP PUSH1 0x0 DUP3 ADD MLOAD DUP2 PUSH1 0x0 ADD SSTORE PUSH1 0x20 DUP3 ADD MLOAD DUP2 PUSH1 0x1 ADD PUSH1 0x0 PUSH2 0x100 EXP DUP2 SLOAD DUP2 PUSH20 0xFFFFFFFFFFFFFFFFFFFFFFFFFFFFFFFFFFFFFFFF MUL NOT AND SWAP1 DUP4 PUSH20 0xFFFFFFFFFFFFFFFFFFFFFFFFFFFFFFFFFFFFFFFF AND MUL OR SWAP1 SSTORE POP PUSH1 0x40 DUP3 ADD MLOAD DUP2 PUSH1 0x2 ADD SSTORE PUSH1 0x60 DUP3 ADD MLOAD DUP2 PUSH1 0x3 ADD SSTORE POP POP PUSH1 0x1 PUSH1 0x0 DUP1 DUP4 DUP2 MSTORE PUSH1 0x20 ADD SWAP1 DUP2 MSTORE PUSH1 0x20 ADD PUSH1 0x0 KECCAK256 PUSH1 0x5 ADD PUSH1 0x1 PUSH2 0x100 EXP DUP2 SLOAD DUP2 PUSH1 0xFF MUL NOT AND SWAP1 DUP4 ISZERO ISZERO MUL OR SWAP1 SSTORE POP PUSH32 0x363F315F930A17D1266B86A20D6DD34B1CFBC5A9DB9F13A65D06A689C3A2AF8A CALLER CALLVALUE DUP4 PUSH1 0x40 MLOAD PUSH2 0x12CC SWAP4 SWAP3 SWAP2 SWAP1 PUSH2 0x2DDA JUMP JUMPDEST PUSH1 0x40 MLOAD DUP1 SWAP2 SUB SWAP1 LOG1 POP JUMP JUMPDEST PUSH1 0x2 PUSH1 0x20 MSTORE DUP2 PUSH1 0x0 MSTORE PUSH1 0x40 PUSH1 0x0 KECCAK256 DUP2 DUP2 SLOAD DUP2 LT PUSH2 0x12F3 JUMPI PUSH1 0x0 DUP1 REVERT JUMPDEST SWAP1 PUSH1 0x0 MSTORE PUSH1 0x20 PUSH1 0x0 KECCAK256 SWAP1 PUSH1 0x4 MUL ADD PUSH1 0x0 SWAP2 POP SWAP2 POP POP DUP1 PUSH1 0x0 ADD SLOAD SWAP1 DUP1 PUSH1 0x1 ADD PUSH1 0x0 SWAP1 SLOAD SWAP1 PUSH2 0x100 EXP SWAP1 DIV PUSH20 0xFFFFFFFFFFFFFFFFFFFFFFFFFFFFFFFFFFFFFFFF AND SWAP1 DUP1 PUSH1 0x2 ADD SLOAD SWAP1 DUP1 PUSH1 0x3 ADD SLOAD SWAP1 POP DUP5 JUMP JUMPDEST PUSH1 0x0 DUP2 GT PUSH2 0x1387 JUMPI PUSH1 0x40 MLOAD PUSH32 0x8C379A000000000000000000000000000000000000000000000000000000000 DUP2 MSTORE PUSH1 0x4 ADD PUSH2 0x137E SWAP1 PUSH2 0x2E5D JUMP JUMPDEST PUSH1 0x40 MLOAD DUP1 SWAP2 SUB SWAP1 REVERT JUMPDEST PUSH1 0x0 PUSH8 0xDE0B6B3A7640000 DUP3 PUSH2 0x139D SWAP2 SWAP1 PUSH2 0x27C9 JUMP JUMPDEST SWAP1 POP PUSH1 0x3 PUSH1 0x0 DUP2 SLOAD DUP1 SWAP3 SWAP2 SWAP1 PUSH2 0x13B2 SWAP1 PUSH2 0x280B JUMP JUMPDEST SWAP2 SWAP1 POP SSTORE POP PUSH1 0x40 MLOAD DUP1 PUSH1 0xE0 ADD PUSH1 0x40 MSTORE DUP1 PUSH1 0x3 SLOAD DUP2 MSTORE PUSH1 0x20 ADD DUP5 DUP2 MSTORE PUSH1 0x20 ADD PUSH1 0x0 PUSH20 0xFFFFFFFFFFFFFFFFFFFFFFFFFFFFFFFFFFFFFFFF AND DUP2 MSTORE PUSH1 0x20 ADD DUP3 DUP2 MSTORE PUSH1 0x20 ADD PUSH1 0x0 DUP2 MSTORE PUSH1 0x20 ADD PUSH1 0x0 ISZERO ISZERO DUP2 MSTORE PUSH1 0x20 ADD PUSH1 0x0 ISZERO ISZERO DUP2 MSTORE POP PUSH1 0x0 DUP1 PUSH1 0x3 SLOAD DUP2 MSTORE PUSH1 0x20 ADD SWAP1 DUP2 MSTORE PUSH1 0x20 ADD PUSH1 0x0 KECCAK256 PUSH1 0x0 DUP3 ADD MLOAD DUP2 PUSH1 0x0 ADD SSTORE PUSH1 0x20 DUP3 ADD MLOAD DUP2 PUSH1 0x1 ADD SWAP1 DUP2 PUSH2 0x143D SWAP2 SWAP1 PUSH2 0x29FF JUMP JUMPDEST POP PUSH1 0x40 DUP3 ADD MLOAD DUP2 PUSH1 0x2 ADD PUSH1 0x0 PUSH2 0x100 EXP DUP2 SLOAD DUP2 PUSH20 0xFFFFFFFFFFFFFFFFFFFFFFFFFFFFFFFFFFFFFFFF MUL NOT AND SWAP1 DUP4 PUSH20 0xFFFFFFFFFFFFFFFFFFFFFFFFFFFFFFFFFFFFFFFF AND MUL OR SWAP1 SSTORE POP PUSH1 0x60 DUP3 ADD MLOAD DUP2 PUSH1 0x3 ADD SSTORE PUSH1 0x80 DUP3 ADD MLOAD DUP2 PUSH1 0x4 ADD SSTORE PUSH1 0xA0 DUP3 ADD MLOAD DUP2 PUSH1 0x5 ADD PUSH1 0x0 PUSH2 0x100 EXP DUP2 SLOAD DUP2 PUSH1 0xFF MUL NOT AND SWAP1 DUP4 ISZERO ISZERO MUL OR SWAP1 SSTORE POP PUSH1 0xC0 DUP3 ADD MLOAD DUP2 PUSH1 0x5 ADD PUSH1 0x1 PUSH2 0x100 EXP DUP2 SLOAD DUP2 PUSH1 0xFF MUL NOT AND SWAP1 DUP4 ISZERO ISZERO MUL OR SWAP1 SSTORE POP SWAP1 POP POP PUSH32 0xA026EE65BFF24E0219543A4CEC2746EF952B145E2658AC5DB36953D7044712A9 PUSH1 0x3 SLOAD DUP5 PUSH1 0x0 DUP5 PUSH1 0x40 MLOAD PUSH2 0x1514 SWAP5 SWAP4 SWAP3 SWAP2 SWAP1 PUSH2 0x2E7D JUMP JUMPDEST PUSH1 0x40 MLOAD DUP1 SWAP2 SUB SWAP1 LOG1 POP POP POP JUMP JUMPDEST PUSH1 0x60 PUSH1 0x0 DUP1 PUSH1 0x0 DUP5 DUP2 MSTORE PUSH1 0x20 ADD SWAP1 DUP2 MSTORE PUSH1 0x20 ADD PUSH1 0x0 KECCAK256 PUSH1 0x0 ADD SLOAD SUB PUSH2 0x157B JUMPI PUSH1 0x40 MLOAD PUSH32 0x8C379A000000000000000000000000000000000000000000000000000000000 DUP2 MSTORE PUSH1 0x4 ADD PUSH2 0x1572 SWAP1 PUSH2 0x2BEA JUMP JUMPDEST PUSH1 0x40 MLOAD DUP1 SWAP2 SUB SWAP1 REVERT JUMPDEST PUSH1 0x2 PUSH1 0x0 DUP4 DUP2 MSTORE PUSH1 0x20 ADD SWAP1 DUP2 MSTORE PUSH1 0x20 ADD PUSH1 0x0 KECCAK256 DUP1 SLOAD DUP1 PUSH1 0x20 MUL PUSH1 0x20 ADD PUSH1 0x40 MLOAD SWAP1 DUP2 ADD PUSH1 0x40 MSTORE DUP1 SWAP3 SWAP2 SWAP1 DUP2 DUP2 MSTORE PUSH1 0x20 ADD PUSH1 0x0 SWAP1 JUMPDEST DUP3 DUP3 LT ISZERO PUSH2 0x1654 JUMPI DUP4 DUP3 SWAP1 PUSH1 0x0 MSTORE PUSH1 0x20 PUSH1 0x0 KECCAK256 SWAP1 PUSH1 0x4 MUL ADD PUSH1 0x40 MLOAD DUP1 PUSH1 0x80 ADD PUSH1 0x40 MSTORE SWAP1 DUP2 PUSH1 0x0 DUP3 ADD SLOAD DUP2 MSTORE PUSH1 0x20 ADD PUSH1 0x1 DUP3 ADD PUSH1 0x0 SWAP1 SLOAD SWAP1 PUSH2 0x100 EXP SWAP1 DIV PUSH20 0xFFFFFFFFFFFFFFFFFFFFFFFFFFFFFFFFFFFFFFFF AND PUSH20 0xFFFFFFFFFFFFFFFFFFFFFFFFFFFFFFFFFFFFFFFF AND PUSH20 0xFFFFFFFFFFFFFFFFFFFFFFFFFFFFFFFFFFFFFFFF AND DUP2 MSTORE PUSH1 0x20 ADD PUSH1 0x2 DUP3 ADD SLOAD DUP2 MSTORE PUSH1 0x20 ADD PUSH1 0x3 DUP3 ADD SLOAD DUP2 MSTORE POP POP DUP2 MSTORE PUSH1 0x20 ADD SWAP1 PUSH1 0x1 ADD SWAP1 PUSH2 0x15AE JUMP JUMPDEST POP POP POP POP SWAP1 POP SWAP2 SWAP1 POP JUMP JUMPDEST PUSH1 0x1 PUSH1 0x20 MSTORE DUP1 PUSH1 0x0 MSTORE PUSH1 0x40 PUSH1 0x0 KECCAK256 PUSH1 0x0 SWAP2 POP SWAP1 POP DUP1 PUSH1 0x0 ADD SLOAD SWAP1 DUP1 PUSH1 0x1 ADD SLOAD SWAP1 DUP1 PUSH1 0x2 ADD DUP1 SLOAD PUSH2 0x168E SWAP1 PUSH2 0x2585 JUMP JUMPDEST DUP1 PUSH1 0x1F ADD PUSH1 0x20 DUP1 SWAP2 DIV MUL PUSH1 0x20 ADD PUSH1 0x40 MLOAD SWAP1 DUP2 ADD PUSH1 0x40 MSTORE DUP1 SWAP3 SWAP2 SWAP1 DUP2 DUP2 MSTORE PUSH1 0x20 ADD DUP3 DUP1 SLOAD PUSH2 0x16BA SWAP1 PUSH2 0x2585 JUMP JUMPDEST DUP1 ISZERO PUSH2 0x1707 JUMPI DUP1 PUSH1 0x1F LT PUSH2 0x16DC JUMPI PUSH2 0x100 DUP1 DUP4 SLOAD DIV MUL DUP4 MSTORE SWAP2 PUSH1 0x20 ADD SWAP2 PUSH2 0x1707 JUMP JUMPDEST DUP3 ADD SWAP2 SWAP1 PUSH1 0x0 MSTORE PUSH1 0x20 PUSH1 0x0 KECCAK256 SWAP1 JUMPDEST DUP2 SLOAD DUP2 MSTORE SWAP1 PUSH1 0x1 ADD SWAP1 PUSH1 0x20 ADD DUP1 DUP4 GT PUSH2 0x16EA JUMPI DUP3 SWAP1 SUB PUSH1 0x1F AND DUP3 ADD SWAP2 JUMPDEST POP POP POP POP POP SWAP1 DUP1 PUSH1 0x3 ADD SLOAD SWAP1 POP DUP5 JUMP JUMPDEST PUSH1 0x60 PUSH1 0x0 PUSH1 0x4 SLOAD PUSH8 0xFFFFFFFFFFFFFFFF DUP2 GT ISZERO PUSH2 0x1737 JUMPI PUSH2 0x1736 PUSH2 0x1F9B JUMP JUMPDEST JUMPDEST PUSH1 0x40 MLOAD SWAP1 DUP1 DUP3 MSTORE DUP1 PUSH1 0x20 MUL PUSH1 0x20 ADD DUP3 ADD PUSH1 0x40 MSTORE DUP1 ISZERO PUSH2 0x1770 JUMPI DUP2 PUSH1 0x20 ADD JUMPDEST PUSH2 0x175D PUSH2 0x1B76 JUMP JUMPDEST DUP2 MSTORE PUSH1 0x20 ADD SWAP1 PUSH1 0x1 SWAP1 SUB SWAP1 DUP2 PUSH2 0x1755 JUMPI SWAP1 POP JUMPDEST POP SWAP1 POP PUSH1 0x0 PUSH1 0x1 SWAP1 POP JUMPDEST PUSH1 0x4 SLOAD DUP2 GT PUSH2 0x188E JUMPI PUSH1 0x1 PUSH1 0x0 DUP3 DUP2 MSTORE PUSH1 0x20 ADD SWAP1 DUP2 MSTORE PUSH1 0x20 ADD PUSH1 0x0 KECCAK256 PUSH1 0x40 MLOAD DUP1 PUSH1 0x80 ADD PUSH1 0x40 MSTORE SWAP1 DUP2 PUSH1 0x0 DUP3 ADD SLOAD DUP2 MSTORE PUSH1 0x20 ADD PUSH1 0x1 DUP3 ADD SLOAD DUP2 MSTORE PUSH1 0x20 ADD PUSH1 0x2 DUP3 ADD DUP1 SLOAD PUSH2 0x17C5 SWAP1 PUSH2 0x2585 JUMP JUMPDEST DUP1 PUSH1 0x1F ADD PUSH1 0x20 DUP1 SWAP2 DIV MUL PUSH1 0x20 ADD PUSH1 0x40 MLOAD SWAP1 DUP2 ADD PUSH1 0x40 MSTORE DUP1 SWAP3 SWAP2 SWAP1 DUP2 DUP2 MSTORE PUSH1 0x20 ADD DUP3 DUP1 SLOAD PUSH2 0x17F1 SWAP1 PUSH2 0x2585 JUMP JUMPDEST DUP1 ISZERO PUSH2 0x183E JUMPI DUP1 PUSH1 0x1F LT PUSH2 0x1813 JUMPI PUSH2 0x100 DUP1 DUP4 SLOAD DIV MUL DUP4 MSTORE SWAP2 PUSH1 0x20 ADD SWAP2 PUSH2 0x183E JUMP JUMPDEST DUP3 ADD SWAP2 SWAP1 PUSH1 0x0 MSTORE PUSH1 0x20 PUSH1 0x0 KECCAK256 SWAP1 JUMPDEST DUP2 SLOAD DUP2 MSTORE SWAP1 PUSH1 0x1 ADD SWAP1 PUSH1 0x20 ADD DUP1 DUP4 GT PUSH2 0x1821 JUMPI DUP3 SWAP1 SUB PUSH1 0x1F AND DUP3 ADD SWAP2 JUMPDEST POP POP POP POP POP DUP2 MSTORE PUSH1 0x20 ADD PUSH1 0x3 DUP3 ADD SLOAD DUP2 MSTORE POP POP DUP3 PUSH1 0x1 DUP4 PUSH2 0x185F SWAP2 SWAP1 PUSH2 0x2D3A JUMP JUMPDEST DUP2 MLOAD DUP2 LT PUSH2 0x1870 JUMPI PUSH2 0x186F PUSH2 0x2C9F JUMP JUMPDEST JUMPDEST PUSH1 0x20 MUL PUSH1 0x20 ADD ADD DUP2 SWAP1 MSTORE POP DUP1 DUP1 PUSH2 0x1886 SWAP1 PUSH2 0x280B JUMP JUMPDEST SWAP2 POP POP PUSH2 0x177A JUMP JUMPDEST POP DUP1 SWAP2 POP POP SWAP1 JUMP JUMPDEST PUSH1 0x60 PUSH1 0x0 DUP1 PUSH1 0x0 DUP5 DUP2 MSTORE PUSH1 0x20 ADD SWAP1 DUP2 MSTORE PUSH1 0x20 ADD PUSH1 0x0 KECCAK256 PUSH1 0x0 ADD SLOAD SUB PUSH2 0x18F0 JUMPI PUSH1 0x40 MLOAD PUSH32 0x8C379A000000000000000000000000000000000000000000000000000000000 DUP2 MSTORE PUSH1 0x4 ADD PUSH2 0x18E7 SWAP1 PUSH2 0x2BEA JUMP JUMPDEST PUSH1 0x40 MLOAD DUP1 SWAP2 SUB SWAP1 REVERT JUMPDEST PUSH1 0x0 DUP1 PUSH1 0x1 SWAP1 POP JUMPDEST PUSH1 0x4 SLOAD DUP2 GT PUSH2 0x1940 JUMPI DUP4 PUSH1 0x1 PUSH1 0x0 DUP4 DUP2 MSTORE PUSH1 0x20 ADD SWAP1 DUP2 MSTORE PUSH1 0x20 ADD PUSH1 0x0 KECCAK256 PUSH1 0x0 ADD SLOAD SUB PUSH2 0x192D JUMPI DUP2 DUP1 PUSH2 0x1929 SWAP1 PUSH2 0x280B JUMP JUMPDEST SWAP3 POP POP JUMPDEST DUP1 DUP1 PUSH2 0x1938 SWAP1 PUSH2 0x280B JUMP JUMPDEST SWAP2 POP POP PUSH2 0x18F8 JUMP JUMPDEST POP PUSH1 0x0 DUP2 PUSH8 0xFFFFFFFFFFFFFFFF DUP2 GT ISZERO PUSH2 0x195D JUMPI PUSH2 0x195C PUSH2 0x1F9B JUMP JUMPDEST JUMPDEST PUSH1 0x40 MLOAD SWAP1 DUP1 DUP3 MSTORE DUP1 PUSH1 0x20 MUL PUSH1 0x20 ADD DUP3 ADD PUSH1 0x40 MSTORE DUP1 ISZERO PUSH2 0x1996 JUMPI DUP2 PUSH1 0x20 ADD JUMPDEST PUSH2 0x1983 PUSH2 0x1B76 JUMP JUMPDEST DUP2 MSTORE PUSH1 0x20 ADD SWAP1 PUSH1 0x1 SWAP1 SUB SWAP1 DUP2 PUSH2 0x197B JUMPI SWAP1 POP JUMPDEST POP SWAP1 POP PUSH1 0x0 DUP1 PUSH1 0x1 SWAP1 POP JUMPDEST PUSH1 0x4 SLOAD DUP2 GT PUSH2 0x1AD5 JUMPI DUP6 PUSH1 0x1 PUSH1 0x0 DUP4 DUP2 MSTORE PUSH1 0x20 ADD SWAP1 DUP2 MSTORE PUSH1 0x20 ADD PUSH1 0x0 KECCAK256 PUSH1 0x0 ADD SLOAD SUB PUSH2 0x1AC2 JUMPI PUSH1 0x1 PUSH1 0x0 DUP3 DUP2 MSTORE PUSH1 0x20 ADD SWAP1 DUP2 MSTORE PUSH1 0x20 ADD PUSH1 0x0 KECCAK256 PUSH1 0x40 MLOAD DUP1 PUSH1 0x80 ADD PUSH1 0x40 MSTORE SWAP1 DUP2 PUSH1 0x0 DUP3 ADD SLOAD DUP2 MSTORE PUSH1 0x20 ADD PUSH1 0x1 DUP3 ADD SLOAD DUP2 MSTORE PUSH1 0x20 ADD PUSH1 0x2 DUP3 ADD DUP1 SLOAD PUSH2 0x1A09 SWAP1 PUSH2 0x2585 JUMP JUMPDEST DUP1 PUSH1 0x1F ADD PUSH1 0x20 DUP1 SWAP2 DIV MUL PUSH1 0x20 ADD PUSH1 0x40 MLOAD SWAP1 DUP2 ADD PUSH1 0x40 MSTORE DUP1 SWAP3 SWAP2 SWAP1 DUP2 DUP2 MSTORE PUSH1 0x20 ADD DUP3 DUP1 SLOAD PUSH2 0x1A35 SWAP1 PUSH2 0x2585 JUMP JUMPDEST DUP1 ISZERO PUSH2 0x1A82 JUMPI DUP1 PUSH1 0x1F LT PUSH2 0x1A57 JUMPI PUSH2 0x100 DUP1 DUP4 SLOAD DIV MUL DUP4 MSTORE SWAP2 PUSH1 0x20 ADD SWAP2 PUSH2 0x1A82 JUMP JUMPDEST DUP3 ADD SWAP2 SWAP1 PUSH1 0x0 MSTORE PUSH1 0x20 PUSH1 0x0 KECCAK256 SWAP1 JUMPDEST DUP2 SLOAD DUP2 MSTORE SWAP1 PUSH1 0x1 ADD SWAP1 PUSH1 0x20 ADD DUP1 DUP4 GT PUSH2 0x1A65 JUMPI DUP3 SWAP1 SUB PUSH1 0x1F AND DUP3 ADD SWAP2 JUMPDEST POP POP POP POP POP DUP2 MSTORE PUSH1 0x20 ADD PUSH1 0x3 DUP3 ADD SLOAD DUP2 MSTORE POP POP DUP4 DUP4 DUP2 MLOAD DUP2 LT PUSH2 0x1AA8 JUMPI PUSH2 0x1AA7 PUSH2 0x2C9F JUMP JUMPDEST JUMPDEST PUSH1 0x20 MUL PUSH1 0x20 ADD ADD DUP2 SWAP1 MSTORE POP DUP2 DUP1 PUSH2 0x1ABE SWAP1 PUSH2 0x280B JUMP JUMPDEST SWAP3 POP POP JUMPDEST DUP1 DUP1 PUSH2 0x1ACD SWAP1 PUSH2 0x280B JUMP JUMPDEST SWAP2 POP POP PUSH2 0x19A1 JUMP JUMPDEST POP DUP2 SWAP4 POP POP POP POP SWAP2 SWAP1 POP JUMP JUMPDEST PUSH1 0x40 MLOAD DUP1 PUSH1 0x80 ADD PUSH1 0x40 MSTORE DUP1 PUSH1 0x0 DUP2 MSTORE PUSH1 0x20 ADD PUSH1 0x0 PUSH20 0xFFFFFFFFFFFFFFFFFFFFFFFFFFFFFFFFFFFFFFFF AND DUP2 MSTORE PUSH1 0x20 ADD PUSH1 0x0 DUP2 MSTORE PUSH1 0x20 ADD PUSH1 0x0 DUP2 MSTORE POP SWAP1 JUMP JUMPDEST PUSH1 0x40 MLOAD DUP1 PUSH1 0xE0 ADD PUSH1 0x40 MSTORE DUP1 PUSH1 0x0 DUP2 MSTORE PUSH1 0x20 ADD PUSH1 0x60 DUP2 MSTORE PUSH1 0x20 ADD PUSH1 0x0 PUSH20 0xFFFFFFFFFFFFFFFFFFFFFFFFFFFFFFFFFFFFFFFF AND DUP2 MSTORE PUSH1 0x20 ADD PUSH1 0x0 DUP2 MSTORE PUSH1 0x20 ADD PUSH1 0x0 DUP2 MSTORE PUSH1 0x20 ADD PUSH1 0x0 ISZERO ISZERO DUP2 MSTORE PUSH1 0x20 ADD PUSH1 0x0 ISZERO ISZERO DUP2 MSTORE POP SWAP1 JUMP JUMPDEST PUSH1 0x40 MLOAD DUP1 PUSH1 0x80 ADD PUSH1 0x40 MSTORE DUP1 PUSH1 0x0 DUP2 MSTORE PUSH1 0x20 ADD PUSH1 0x0 DUP2 MSTORE PUSH1 0x20 ADD PUSH1 0x60 DUP2 MSTORE PUSH1 0x20 ADD PUSH1 0x0 DUP2 MSTORE POP SWAP1 JUMP JUMPDEST PUSH1 0x0 PUSH1 0x40 MLOAD SWAP1 POP SWAP1 JUMP JUMPDEST PUSH1 0x0 DUP1 REVERT JUMPDEST PUSH1 0x0 DUP1 REVERT JUMPDEST PUSH1 0x0 DUP2 SWAP1 POP SWAP2 SWAP1 POP JUMP JUMPDEST PUSH2 0x1BC5 DUP2 PUSH2 0x1BB2 JUMP JUMPDEST DUP2 EQ PUSH2 0x1BD0 JUMPI PUSH1 0x0 DUP1 REVERT JUMPDEST POP JUMP JUMPDEST PUSH1 0x0 DUP2 CALLDATALOAD SWAP1 POP PUSH2 0x1BE2 DUP2 PUSH2 0x1BBC JUMP JUMPDEST SWAP3 SWAP2 POP POP JUMP JUMPDEST PUSH1 0x0 PUSH1 0x20 DUP3 DUP5 SUB SLT ISZERO PUSH2 0x1BFE JUMPI PUSH2 0x1BFD PUSH2 0x1BA8 JUMP JUMPDEST JUMPDEST PUSH1 0x0 PUSH2 0x1C0C DUP5 DUP3 DUP6 ADD PUSH2 0x1BD3 JUMP JUMPDEST SWAP2 POP POP SWAP3 SWAP2 POP POP JUMP JUMPDEST PUSH2 0x1C1E DUP2 PUSH2 0x1BB2 JUMP JUMPDEST DUP3 MSTORE POP POP JUMP JUMPDEST PUSH1 0x0 DUP2 MLOAD SWAP1 POP SWAP2 SWAP1 POP JUMP JUMPDEST PUSH1 0x0 DUP3 DUP3 MSTORE PUSH1 0x20 DUP3 ADD SWAP1 POP SWAP3 SWAP2 POP POP JUMP JUMPDEST PUSH1 0x0 JUMPDEST DUP4 DUP2 LT ISZERO PUSH2 0x1C5E JUMPI DUP1 DUP3 ADD MLOAD DUP2 DUP5 ADD MSTORE PUSH1 0x20 DUP2 ADD SWAP1 POP PUSH2 0x1C43 JUMP JUMPDEST PUSH1 0x0 DUP5 DUP5 ADD MSTORE POP POP POP POP JUMP JUMPDEST PUSH1 0x0 PUSH1 0x1F NOT PUSH1 0x1F DUP4 ADD AND SWAP1 POP SWAP2 SWAP1 POP JUMP JUMPDEST PUSH1 0x0 PUSH2 0x1C86 DUP3 PUSH2 0x1C24 JUMP JUMPDEST PUSH2 0x1C90 DUP2 DUP6 PUSH2 0x1C2F JUMP JUMPDEST SWAP4 POP PUSH2 0x1CA0 DUP2 DUP6 PUSH1 0x20 DUP7 ADD PUSH2 0x1C40 JUMP JUMPDEST PUSH2 0x1CA9 DUP2 PUSH2 0x1C6A JUMP JUMPDEST DUP5 ADD SWAP2 POP POP SWAP3 SWAP2 POP POP JUMP JUMPDEST PUSH1 0x0 PUSH20 0xFFFFFFFFFFFFFFFFFFFFFFFFFFFFFFFFFFFFFFFF DUP3 AND SWAP1 POP SWAP2 SWAP1 POP JUMP JUMPDEST PUSH1 0x0 PUSH2 0x1CDF DUP3 PUSH2 0x1CB4 JUMP JUMPDEST SWAP1 POP SWAP2 SWAP1 POP JUMP JUMPDEST PUSH2 0x1CEF DUP2 PUSH2 0x1CD4 JUMP JUMPDEST DUP3 MSTORE POP POP JUMP JUMPDEST PUSH1 0x0 DUP2 ISZERO ISZERO SWAP1 POP SWAP2 SWAP1 POP JUMP JUMPDEST PUSH2 0x1D0A DUP2 PUSH2 0x1CF5 JUMP JUMPDEST DUP3 MSTORE POP POP JUMP JUMPDEST PUSH1 0x0 PUSH1 0xE0 DUP3 ADD SWAP1 POP PUSH2 0x1D25 PUSH1 0x0 DUP4 ADD DUP11 PUSH2 0x1C15 JUMP JUMPDEST DUP2 DUP2 SUB PUSH1 0x20 DUP4 ADD MSTORE PUSH2 0x1D37 DUP2 DUP10 PUSH2 0x1C7B JUMP JUMPDEST SWAP1 POP PUSH2 0x1D46 PUSH1 0x40 DUP4 ADD DUP9 PUSH2 0x1CE6 JUMP JUMPDEST PUSH2 0x1D53 PUSH1 0x60 DUP4 ADD DUP8 PUSH2 0x1C15 JUMP JUMPDEST PUSH2 0x1D60 PUSH1 0x80 DUP4 ADD DUP7 PUSH2 0x1C15 JUMP JUMPDEST PUSH2 0x1D6D PUSH1 0xA0 DUP4 ADD DUP6 PUSH2 0x1D01 JUMP JUMPDEST PUSH2 0x1D7A PUSH1 0xC0 DUP4 ADD DUP5 PUSH2 0x1D01 JUMP JUMPDEST SWAP9 SWAP8 POP POP POP POP POP POP POP POP JUMP JUMPDEST PUSH1 0x0 DUP1 PUSH1 0x40 DUP4 DUP6 SUB SLT ISZERO PUSH2 0x1D9D JUMPI PUSH2 0x1D9C PUSH2 0x1BA8 JUMP JUMPDEST JUMPDEST PUSH1 0x0 PUSH2 0x1DAB DUP6 DUP3 DUP7 ADD PUSH2 0x1BD3 JUMP JUMPDEST SWAP3 POP POP PUSH1 0x20 PUSH2 0x1DBC DUP6 DUP3 DUP7 ADD PUSH2 0x1BD3 JUMP JUMPDEST SWAP2 POP POP SWAP3 POP SWAP3 SWAP1 POP JUMP JUMPDEST PUSH2 0x1DCF DUP2 PUSH2 0x1CD4 JUMP JUMPDEST DUP2 EQ PUSH2 0x1DDA JUMPI PUSH1 0x0 DUP1 REVERT JUMPDEST POP JUMP JUMPDEST PUSH1 0x0 DUP2 CALLDATALOAD SWAP1 POP PUSH2 0x1DEC DUP2 PUSH2 0x1DC6 JUMP JUMPDEST SWAP3 SWAP2 POP POP JUMP JUMPDEST PUSH1 0x0 DUP1 PUSH1 0x40 DUP4 DUP6 SUB SLT ISZERO PUSH2 0x1E09 JUMPI PUSH2 0x1E08 PUSH2 0x1BA8 JUMP JUMPDEST JUMPDEST PUSH1 0x0 PUSH2 0x1E17 DUP6 DUP3 DUP7 ADD PUSH2 0x1BD3 JUMP JUMPDEST SWAP3 POP POP PUSH1 0x20 PUSH2 0x1E28 DUP6 DUP3 DUP7 ADD PUSH2 0x1DDD JUMP JUMPDEST SWAP2 POP POP SWAP3 POP SWAP3 SWAP1 POP JUMP JUMPDEST PUSH1 0x0 PUSH1 0x20 DUP3 ADD SWAP1 POP PUSH2 0x1E47 PUSH1 0x0 DUP4 ADD DUP5 PUSH2 0x1C15 JUMP JUMPDEST SWAP3 SWAP2 POP POP JUMP JUMPDEST PUSH1 0x0 DUP2 MLOAD SWAP1 POP SWAP2 SWAP1 POP JUMP JUMPDEST PUSH1 0x0 DUP3 DUP3 MSTORE PUSH1 0x20 DUP3 ADD SWAP1 POP SWAP3 SWAP2 POP POP JUMP JUMPDEST PUSH1 0x0 DUP2 SWAP1 POP PUSH1 0x20 DUP3 ADD SWAP1 POP SWAP2 SWAP1 POP JUMP JUMPDEST PUSH2 0x1E82 DUP2 PUSH2 0x1BB2 JUMP JUMPDEST DUP3 MSTORE POP POP JUMP JUMPDEST PUSH2 0x1E91 DUP2 PUSH2 0x1CD4 JUMP JUMPDEST DUP3 MSTORE POP POP JUMP JUMPDEST PUSH1 0x80 DUP3 ADD PUSH1 0x0 DUP3 ADD MLOAD PUSH2 0x1EAD PUSH1 0x0 DUP6 ADD DUP3 PUSH2 0x1E79 JUMP JUMPDEST POP PUSH1 0x20 DUP3 ADD MLOAD PUSH2 0x1EC0 PUSH1 0x20 DUP6 ADD DUP3 PUSH2 0x1E88 JUMP JUMPDEST POP PUSH1 0x40 DUP3 ADD MLOAD PUSH2 0x1ED3 PUSH1 0x40 DUP6 ADD DUP3 PUSH2 0x1E79 JUMP JUMPDEST POP PUSH1 0x60 DUP3 ADD MLOAD PUSH2 0x1EE6 PUSH1 0x60 DUP6 ADD DUP3 PUSH2 0x1E79 JUMP JUMPDEST POP POP POP POP JUMP JUMPDEST PUSH1 0x0 PUSH2 0x1EF8 DUP4 DUP4 PUSH2 0x1E97 JUMP JUMPDEST PUSH1 0x80 DUP4 ADD SWAP1 POP SWAP3 SWAP2 POP POP JUMP JUMPDEST PUSH1 0x0 PUSH1 0x20 DUP3 ADD SWAP1 POP SWAP2 SWAP1 POP JUMP JUMPDEST PUSH1 0x0 PUSH2 0x1F1C DUP3 PUSH2 0x1E4D JUMP JUMPDEST PUSH2 0x1F26 DUP2 DUP6 PUSH2 0x1E58 JUMP JUMPDEST SWAP4 POP PUSH2 0x1F31 DUP4 PUSH2 0x1E69 JUMP JUMPDEST DUP1 PUSH1 0x0 JUMPDEST DUP4 DUP2 LT ISZERO PUSH2 0x1F62 JUMPI DUP2 MLOAD PUSH2 0x1F49 DUP9 DUP3 PUSH2 0x1EEC JUMP JUMPDEST SWAP8 POP PUSH2 0x1F54 DUP4 PUSH2 0x1F04 JUMP JUMPDEST SWAP3 POP POP PUSH1 0x1 DUP2 ADD SWAP1 POP PUSH2 0x1F35 JUMP JUMPDEST POP DUP6 SWAP4 POP POP POP POP SWAP3 SWAP2 POP POP JUMP JUMPDEST PUSH1 0x0 PUSH1 0x20 DUP3 ADD SWAP1 POP DUP2 DUP2 SUB PUSH1 0x0 DUP4 ADD MSTORE PUSH2 0x1F89 DUP2 DUP5 PUSH2 0x1F11 JUMP JUMPDEST SWAP1 POP SWAP3 SWAP2 POP POP JUMP JUMPDEST PUSH1 0x0 DUP1 REVERT JUMPDEST PUSH1 0x0 DUP1 REVERT JUMPDEST PUSH32 0x4E487B7100000000000000000000000000000000000000000000000000000000 PUSH1 0x0 MSTORE PUSH1 0x41 PUSH1 0x4 MSTORE PUSH1 0x24 PUSH1 0x0 REVERT JUMPDEST PUSH2 0x1FD3 DUP3 PUSH2 0x1C6A JUMP JUMPDEST DUP2 ADD DUP2 DUP2 LT PUSH8 0xFFFFFFFFFFFFFFFF DUP3 GT OR ISZERO PUSH2 0x1FF2 JUMPI PUSH2 0x1FF1 PUSH2 0x1F9B JUMP JUMPDEST JUMPDEST DUP1 PUSH1 0x40 MSTORE POP POP POP JUMP JUMPDEST PUSH1 0x0 PUSH2 0x2005 PUSH2 0x1B9E JUMP JUMPDEST SWAP1 POP PUSH2 0x2011 DUP3 DUP3 PUSH2 0x1FCA JUMP JUMPDEST SWAP2 SWAP1 POP JUMP JUMPDEST PUSH1 0x0 PUSH8 0xFFFFFFFFFFFFFFFF DUP3 GT ISZERO PUSH2 0x2031 JUMPI PUSH2 0x2030 PUSH2 0x1F9B JUMP JUMPDEST JUMPDEST PUSH2 0x203A DUP3 PUSH2 0x1C6A JUMP JUMPDEST SWAP1 POP PUSH1 0x20 DUP2 ADD SWAP1 POP SWAP2 SWAP1 POP JUMP JUMPDEST DUP3 DUP2 DUP4 CALLDATACOPY PUSH1 0x0 DUP4 DUP4 ADD MSTORE POP POP POP JUMP JUMPDEST PUSH1 0x0 PUSH2 0x2069 PUSH2 0x2064 DUP5 PUSH2 0x2016 JUMP JUMPDEST PUSH2 0x1FFB JUMP JUMPDEST SWAP1 POP DUP3 DUP2 MSTORE PUSH1 0x20 DUP2 ADD DUP5 DUP5 DUP5 ADD GT ISZERO PUSH2 0x2085 JUMPI PUSH2 0x2084 PUSH2 0x1F96 JUMP JUMPDEST JUMPDEST PUSH2 0x2090 DUP5 DUP3 DUP6 PUSH2 0x2047 JUMP JUMPDEST POP SWAP4 SWAP3 POP POP POP JUMP JUMPDEST PUSH1 0x0 DUP3 PUSH1 0x1F DUP4 ADD SLT PUSH2 0x20AD JUMPI PUSH2 0x20AC PUSH2 0x1F91 JUMP JUMPDEST JUMPDEST DUP2 CALLDATALOAD PUSH2 0x20BD DUP5 DUP3 PUSH1 0x20 DUP7 ADD PUSH2 0x2056 JUMP JUMPDEST SWAP2 POP POP SWAP3 SWAP2 POP POP JUMP JUMPDEST PUSH1 0x0 DUP1 PUSH1 0x0 DUP1 PUSH1 0x80 DUP6 DUP8 SUB SLT ISZERO PUSH2 0x20E0 JUMPI PUSH2 0x20DF PUSH2 0x1BA8 JUMP JUMPDEST JUMPDEST PUSH1 0x0 PUSH2 0x20EE DUP8 DUP3 DUP9 ADD PUSH2 0x1BD3 JUMP JUMPDEST SWAP5 POP POP PUSH1 0x20 DUP6 ADD CALLDATALOAD PUSH8 0xFFFFFFFFFFFFFFFF DUP2 GT ISZERO PUSH2 0x210F JUMPI PUSH2 0x210E PUSH2 0x1BAD JUMP JUMPDEST JUMPDEST PUSH2 0x211B DUP8 DUP3 DUP9 ADD PUSH2 0x2098 JUMP JUMPDEST SWAP4 POP POP PUSH1 0x40 PUSH2 0x212C DUP8 DUP3 DUP9 ADD PUSH2 0x1DDD JUMP JUMPDEST SWAP3 POP POP PUSH1 0x60 PUSH2 0x213D DUP8 DUP3 DUP9 ADD PUSH2 0x1BD3 JUMP JUMPDEST SWAP2 POP POP SWAP3 SWAP6 SWAP2 SWAP5 POP SWAP3 POP JUMP JUMPDEST PUSH1 0x0 DUP2 MLOAD SWAP1 POP SWAP2 SWAP1 POP JUMP JUMPDEST PUSH1 0x0 DUP3 DUP3 MSTORE PUSH1 0x20 DUP3 ADD SWAP1 POP SWAP3 SWAP2 POP POP JUMP JUMPDEST PUSH1 0x0 DUP2 SWAP1 POP PUSH1 0x20 DUP3 ADD SWAP1 POP SWAP2 SWAP1 POP JUMP JUMPDEST PUSH1 0x0 DUP3 DUP3 MSTORE PUSH1 0x20 DUP3 ADD SWAP1 POP SWAP3 SWAP2 POP POP JUMP JUMPDEST PUSH1 0x0 PUSH2 0x2191 DUP3 PUSH2 0x1C24 JUMP JUMPDEST PUSH2 0x219B DUP2 DUP6 PUSH2 0x2175 JUMP JUMPDEST SWAP4 POP PUSH2 0x21AB DUP2 DUP6 PUSH1 0x20 DUP7 ADD PUSH2 0x1C40 JUMP JUMPDEST PUSH2 0x21B4 DUP2 PUSH2 0x1C6A JUMP JUMPDEST DUP5 ADD SWAP2 POP POP SWAP3 SWAP2 POP POP JUMP JUMPDEST PUSH2 0x21C8 DUP2 PUSH2 0x1CF5 JUMP JUMPDEST DUP3 MSTORE POP POP JUMP JUMPDEST PUSH1 0x0 PUSH1 0xE0 DUP4 ADD PUSH1 0x0 DUP4 ADD MLOAD PUSH2 0x21E6 PUSH1 0x0 DUP7 ADD DUP3 PUSH2 0x1E79 JUMP JUMPDEST POP PUSH1 0x20 DUP4 ADD MLOAD DUP5 DUP3 SUB PUSH1 0x20 DUP7 ADD MSTORE PUSH2 0x21FE DUP3 DUP3 PUSH2 0x2186 JUMP JUMPDEST SWAP2 POP POP PUSH1 0x40 DUP4 ADD MLOAD PUSH2 0x2213 PUSH1 0x40 DUP7 ADD DUP3 PUSH2 0x1E88 JUMP JUMPDEST POP PUSH1 0x60 DUP4 ADD MLOAD PUSH2 0x2226 PUSH1 0x60 DUP7 ADD DUP3 PUSH2 0x1E79 JUMP JUMPDEST POP PUSH1 0x80 DUP4 ADD MLOAD PUSH2 0x2239 PUSH1 0x80 DUP7 ADD DUP3 PUSH2 0x1E79 JUMP JUMPDEST POP PUSH1 0xA0 DUP4 ADD MLOAD PUSH2 0x224C PUSH1 0xA0 DUP7 ADD DUP3 PUSH2 0x21BF JUMP JUMPDEST POP PUSH1 0xC0 DUP4 ADD MLOAD PUSH2 0x225F PUSH1 0xC0 DUP7 ADD DUP3 PUSH2 0x21BF JUMP JUMPDEST POP DUP1 SWAP2 POP POP SWAP3 SWAP2 POP POP JUMP JUMPDEST PUSH1 0x0 PUSH2 0x2276 DUP4 DUP4 PUSH2 0x21CE JUMP JUMPDEST SWAP1 POP SWAP3 SWAP2 POP POP JUMP JUMPDEST PUSH1 0x0 PUSH1 0x20 DUP3 ADD SWAP1 POP SWAP2 SWAP1 POP JUMP JUMPDEST PUSH1 0x0 PUSH2 0x2296 DUP3 PUSH2 0x2149 JUMP JUMPDEST PUSH2 0x22A0 DUP2 DUP6 PUSH2 0x2154 JUMP JUMPDEST SWAP4 POP DUP4 PUSH1 0x20 DUP3 MUL DUP6 ADD PUSH2 0x22B2 DUP6 PUSH2 0x2165 JUMP JUMPDEST DUP1 PUSH1 0x0 JUMPDEST DUP6 DUP2 LT ISZERO PUSH2 0x22EE JUMPI DUP5 DUP5 SUB DUP10 MSTORE DUP2 MLOAD PUSH2 0x22CF DUP6 DUP3 PUSH2 0x226A JUMP JUMPDEST SWAP5 POP PUSH2 0x22DA DUP4 PUSH2 0x227E JUMP JUMPDEST SWAP3 POP PUSH1 0x20 DUP11 ADD SWAP10 POP POP PUSH1 0x1 DUP2 ADD SWAP1 POP PUSH2 0x22B6 JUMP JUMPDEST POP DUP3 SWAP8 POP DUP8 SWAP6 POP POP POP POP POP POP SWAP3 SWAP2 POP POP JUMP JUMPDEST PUSH1 0x0 PUSH1 0x20 DUP3 ADD SWAP1 POP DUP2 DUP2 SUB PUSH1 0x0 DUP4 ADD MSTORE PUSH2 0x231A DUP2 DUP5 PUSH2 0x228B JUMP JUMPDEST SWAP1 POP SWAP3 SWAP2 POP POP JUMP JUMPDEST PUSH1 0x0 PUSH1 0x80 DUP3 ADD SWAP1 POP PUSH2 0x2337 PUSH1 0x0 DUP4 ADD DUP8 PUSH2 0x1C15 JUMP JUMPDEST PUSH2 0x2344 PUSH1 0x20 DUP4 ADD DUP7 PUSH2 0x1CE6 JUMP JUMPDEST PUSH2 0x2351 PUSH1 0x40 DUP4 ADD DUP6 PUSH2 0x1C15 JUMP JUMPDEST PUSH2 0x235E PUSH1 0x60 DUP4 ADD DUP5 PUSH2 0x1C15 JUMP JUMPDEST SWAP6 SWAP5 POP POP POP POP POP JUMP JUMPDEST PUSH1 0x0 DUP1 PUSH1 0x40 DUP4 DUP6 SUB SLT ISZERO PUSH2 0x237E JUMPI PUSH2 0x237D PUSH2 0x1BA8 JUMP JUMPDEST JUMPDEST PUSH1 0x0 DUP4 ADD CALLDATALOAD PUSH8 0xFFFFFFFFFFFFFFFF DUP2 GT ISZERO PUSH2 0x239C JUMPI PUSH2 0x239B PUSH2 0x1BAD JUMP JUMPDEST JUMPDEST PUSH2 0x23A8 DUP6 DUP3 DUP7 ADD PUSH2 0x2098 JUMP JUMPDEST SWAP3 POP POP PUSH1 0x20 PUSH2 0x23B9 DUP6 DUP3 DUP7 ADD PUSH2 0x1BD3 JUMP JUMPDEST SWAP2 POP POP SWAP3 POP SWAP3 SWAP1 POP JUMP JUMPDEST PUSH1 0x0 PUSH1 0x80 DUP3 ADD SWAP1 POP PUSH2 0x23D8 PUSH1 0x0 DUP4 ADD DUP8 PUSH2 0x1C15 JUMP JUMPDEST PUSH2 0x23E5 PUSH1 0x20 DUP4 ADD DUP7 PUSH2 0x1C15 JUMP JUMPDEST DUP2 DUP2 SUB PUSH1 0x40 DUP4 ADD MSTORE PUSH2 0x23F7 DUP2 DUP6 PUSH2 0x1C7B JUMP JUMPDEST SWAP1 POP PUSH2 0x2406 PUSH1 0x60 DUP4 ADD DUP5 PUSH2 0x1C15 JUMP JUMPDEST SWAP6 SWAP5 POP POP POP POP POP JUMP JUMPDEST PUSH1 0x0 DUP2 MLOAD SWAP1 POP SWAP2 SWAP1 POP JUMP JUMPDEST PUSH1 0x0 DUP3 DUP3 MSTORE PUSH1 0x20 DUP3 ADD SWAP1 POP SWAP3 SWAP2 POP POP JUMP JUMPDEST PUSH1 0x0 DUP2 SWAP1 POP PUSH1 0x20 DUP3 ADD SWAP1 POP SWAP2 SWAP1 POP JUMP JUMPDEST PUSH1 0x0 PUSH1 0x80 DUP4 ADD PUSH1 0x0 DUP4 ADD MLOAD PUSH2 0x2453 PUSH1 0x0 DUP7 ADD DUP3 PUSH2 0x1E79 JUMP JUMPDEST POP PUSH1 0x20 DUP4 ADD MLOAD PUSH2 0x2466 PUSH1 0x20 DUP7 ADD DUP3 PUSH2 0x1E79 JUMP JUMPDEST POP PUSH1 0x40 DUP4 ADD MLOAD DUP5 DUP3 SUB PUSH1 0x40 DUP7 ADD MSTORE PUSH2 0x247E DUP3 DUP3 PUSH2 0x2186 JUMP JUMPDEST SWAP2 POP POP PUSH1 0x60 DUP4 ADD MLOAD PUSH2 0x2493 PUSH1 0x60 DUP7 ADD DUP3 PUSH2 0x1E79 JUMP JUMPDEST POP DUP1 SWAP2 POP POP SWAP3 SWAP2 POP POP JUMP JUMPDEST PUSH1 0x0 PUSH2 0x24AA DUP4 DUP4 PUSH2 0x243B JUMP JUMPDEST SWAP1 POP SWAP3 SWAP2 POP POP JUMP JUMPDEST PUSH1 0x0 PUSH1 0x20 DUP3 ADD SWAP1 POP SWAP2 SWAP1 POP JUMP JUMPDEST PUSH1 0x0 PUSH2 0x24CA DUP3 PUSH2 0x240F JUMP JUMPDEST PUSH2 0x24D4 DUP2 DUP6 PUSH2 0x241A JUMP JUMPDEST SWAP4 POP DUP4 PUSH1 0x20 DUP3 MUL DUP6 ADD PUSH2 0x24E6 DUP6 PUSH2 0x242B JUMP JUMPDEST DUP1 PUSH1 0x0 JUMPDEST DUP6 DUP2 LT ISZERO PUSH2 0x2522 JUMPI DUP5 DUP5 SUB DUP10 MSTORE DUP2 MLOAD PUSH2 0x2503 DUP6 DUP3 PUSH2 0x249E JUMP JUMPDEST SWAP5 POP PUSH2 0x250E DUP4 PUSH2 0x24B2 JUMP JUMPDEST SWAP3 POP PUSH1 0x20 DUP11 ADD SWAP10 POP POP PUSH1 0x1 DUP2 ADD SWAP1 POP PUSH2 0x24EA JUMP JUMPDEST POP DUP3 SWAP8 POP DUP8 SWAP6 POP POP POP POP POP POP SWAP3 SWAP2 POP POP JUMP JUMPDEST PUSH1 0x0 PUSH1 0x20 DUP3 ADD SWAP1 POP DUP2 DUP2 SUB PUSH1 0x0 DUP4 ADD MSTORE PUSH2 0x254E DUP2 DUP5 PUSH2 0x24BF JUMP JUMPDEST SWAP1 POP SWAP3 SWAP2 POP POP JUMP JUMPDEST PUSH32 0x4E487B7100000000000000000000000000000000000000000000000000000000 PUSH1 0x0 MSTORE PUSH1 0x22 PUSH1 0x4 MSTORE PUSH1 0x24 PUSH1 0x0 REVERT JUMPDEST PUSH1 0x0 PUSH1 0x2 DUP3 DIV SWAP1 POP PUSH1 0x1 DUP3 AND DUP1 PUSH2 0x259D JUMPI PUSH1 0x7F DUP3 AND SWAP2 POP JUMPDEST PUSH1 0x20 DUP3 LT DUP2 SUB PUSH2 0x25B0 JUMPI PUSH2 0x25AF PUSH2 0x2556 JUMP JUMPDEST JUMPDEST POP SWAP2 SWAP1 POP JUMP JUMPDEST PUSH32 0x436F6E74726163746F72206E6F742061737369676E6564000000000000000000 PUSH1 0x0 DUP3 ADD MSTORE POP JUMP JUMPDEST PUSH1 0x0 PUSH2 0x25EC PUSH1 0x17 DUP4 PUSH2 0x1C2F JUMP JUMPDEST SWAP2 POP PUSH2 0x25F7 DUP3 PUSH2 0x25B6 JUMP JUMPDEST PUSH1 0x20 DUP3 ADD SWAP1 POP SWAP2 SWAP1 POP JUMP JUMPDEST PUSH1 0x0 PUSH1 0x20 DUP3 ADD SWAP1 POP DUP2 DUP2 SUB PUSH1 0x0 DUP4 ADD MSTORE PUSH2 0x261B DUP2 PUSH2 0x25DF JUMP JUMPDEST SWAP1 POP SWAP2 SWAP1 POP JUMP JUMPDEST PUSH32 0x416D6F756E74206D7573742062652067726561746572207468616E2030000000 PUSH1 0x0 DUP3 ADD MSTORE POP JUMP JUMPDEST PUSH1 0x0 PUSH2 0x2658 PUSH1 0x1D DUP4 PUSH2 0x1C2F JUMP JUMPDEST SWAP2 POP PUSH2 0x2663 DUP3 PUSH2 0x2622 JUMP JUMPDEST PUSH1 0x20 DUP3 ADD SWAP1 POP SWAP2 SWAP1 POP JUMP JUMPDEST PUSH1 0x0 PUSH1 0x20 DUP3 ADD SWAP1 POP DUP2 DUP2 SUB PUSH1 0x0 DUP4 ADD MSTORE PUSH2 0x2687 DUP2 PUSH2 0x264B JUMP JUMPDEST SWAP1 POP SWAP2 SWAP1 POP JUMP JUMPDEST PUSH32 0x4E487B7100000000000000000000000000000000000000000000000000000000 PUSH1 0x0 MSTORE PUSH1 0x11 PUSH1 0x4 MSTORE PUSH1 0x24 PUSH1 0x0 REVERT JUMPDEST PUSH1 0x0 PUSH2 0x26C8 DUP3 PUSH2 0x1BB2 JUMP JUMPDEST SWAP2 POP PUSH2 0x26D3 DUP4 PUSH2 0x1BB2 JUMP JUMPDEST SWAP3 POP DUP3 DUP3 ADD SWAP1 POP DUP1 DUP3 GT ISZERO PUSH2 0x26EB JUMPI PUSH2 0x26EA PUSH2 0x268E JUMP JUMPDEST JUMPDEST SWAP3 SWAP2 POP POP JUMP JUMPDEST PUSH32 0x4578636565647320627564676574000000000000000000000000000000000000 PUSH1 0x0 DUP3 ADD MSTORE POP JUMP JUMPDEST PUSH1 0x0 PUSH2 0x2727 PUSH1 0xE DUP4 PUSH2 0x1C2F JUMP JUMPDEST SWAP2 POP PUSH2 0x2732 DUP3 PUSH2 0x26F1 JUMP JUMPDEST PUSH1 0x20 DUP3 ADD SWAP1 POP SWAP2 SWAP1 POP JUMP JUMPDEST PUSH1 0x0 PUSH1 0x20 DUP3 ADD SWAP1 POP DUP2 DUP2 SUB PUSH1 0x0 DUP4 ADD MSTORE PUSH2 0x2756 DUP2 PUSH2 0x271A JUMP JUMPDEST SWAP1 POP SWAP2 SWAP1 POP JUMP JUMPDEST PUSH32 0x496E73756666696369656E7420636F6E74726163742062616C616E6365000000 PUSH1 0x0 DUP3 ADD MSTORE POP JUMP JUMPDEST PUSH1 0x0 PUSH2 0x2793 PUSH1 0x1D DUP4 PUSH2 0x1C2F JUMP JUMPDEST SWAP2 POP PUSH2 0x279E DUP3 PUSH2 0x275D JUMP JUMPDEST PUSH1 0x20 DUP3 ADD SWAP1 POP SWAP2 SWAP1 POP JUMP JUMPDEST PUSH1 0x0 PUSH1 0x20 DUP3 ADD SWAP1 POP DUP2 DUP2 SUB PUSH1 0x0 DUP4 ADD MSTORE PUSH2 0x27C2 DUP2 PUSH2 0x2786 JUMP JUMPDEST SWAP1 POP SWAP2 SWAP1 POP JUMP JUMPDEST PUSH1 0x0 PUSH2 0x27D4 DUP3 PUSH2 0x1BB2 JUMP JUMPDEST SWAP2 POP PUSH2 0x27DF DUP4 PUSH2 0x1BB2 JUMP JUMPDEST SWAP3 POP DUP3 DUP3 MUL PUSH2 0x27ED DUP2 PUSH2 0x1BB2 JUMP JUMPDEST SWAP2 POP DUP3 DUP3 DIV DUP5 EQ DUP4 ISZERO OR PUSH2 0x2804 JUMPI PUSH2 0x2803 PUSH2 0x268E JUMP JUMPDEST JUMPDEST POP SWAP3 SWAP2 POP POP JUMP JUMPDEST PUSH1 0x0 PUSH2 0x2816 DUP3 PUSH2 0x1BB2 JUMP JUMPDEST SWAP2 POP PUSH32 0xFFFFFFFFFFFFFFFFFFFFFFFFFFFFFFFFFFFFFFFFFFFFFFFFFFFFFFFFFFFFFFFF DUP3 SUB PUSH2 0x2848 JUMPI PUSH2 0x2847 PUSH2 0x268E JUMP JUMPDEST JUMPDEST PUSH1 0x1 DUP3 ADD SWAP1 POP SWAP2 SWAP1 POP JUMP JUMPDEST PUSH1 0x0 DUP2 SWAP1 POP DUP2 PUSH1 0x0 MSTORE PUSH1 0x20 PUSH1 0x0 KECCAK256 SWAP1 POP SWAP2 SWAP1 POP JUMP JUMPDEST PUSH1 0x0 PUSH1 0x20 PUSH1 0x1F DUP4 ADD DIV SWAP1 POP SWAP2 SWAP1 POP JUMP JUMPDEST PUSH1 0x0 DUP3 DUP3 SHL SWAP1 POP SWAP3 SWAP2 POP POP JUMP JUMPDEST PUSH1 0x0 PUSH1 0x8 DUP4 MUL PUSH2 0x28B5 PUSH32 0xFFFFFFFFFFFFFFFFFFFFFFFFFFFFFFFFFFFFFFFFFFFFFFFFFFFFFFFFFFFFFFFF DUP3 PUSH2 0x2878 JUMP JUMPDEST PUSH2 0x28BF DUP7 DUP4 PUSH2 0x2878 JUMP JUMPDEST SWAP6 POP DUP1 NOT DUP5 AND SWAP4 POP DUP1 DUP7 AND DUP5 OR SWAP3 POP POP POP SWAP4 SWAP3 POP POP POP JUMP JUMPDEST PUSH1 0x0 DUP2 SWAP1 POP SWAP2 SWAP1 POP JUMP JUMPDEST PUSH1 0x0 PUSH2 0x28FC PUSH2 0x28F7 PUSH2 0x28F2 DUP5 PUSH2 0x1BB2 JUMP JUMPDEST PUSH2 0x28D7 JUMP JUMPDEST PUSH2 0x1BB2 JUMP JUMPDEST SWAP1 POP SWAP2 SWAP1 POP JUMP JUMPDEST PUSH1 0x0 DUP2 SWAP1 POP SWAP2 SWAP1 POP JUMP JUMPDEST PUSH2 0x2916 DUP4 PUSH2 0x28E1 JUMP JUMPDEST PUSH2 0x292A PUSH2 0x2922 DUP3 PUSH2 0x2903 JUMP JUMPDEST DUP5 DUP5 SLOAD PUSH2 0x2885 JUMP JUMPDEST DUP3 SSTORE POP POP POP POP JUMP JUMPDEST PUSH1 0x0 SWAP1 JUMP JUMPDEST PUSH2 0x293F PUSH2 0x2932 JUMP JUMPDEST PUSH2 0x294A DUP2 DUP5 DUP5 PUSH2 0x290D JUMP JUMPDEST POP POP POP JUMP JUMPDEST JUMPDEST DUP2 DUP2 LT ISZERO PUSH2 0x296E JUMPI PUSH2 0x2963 PUSH1 0x0 DUP3 PUSH2 0x2937 JUMP JUMPDEST PUSH1 0x1 DUP2 ADD SWAP1 POP PUSH2 0x2950 JUMP JUMPDEST POP POP JUMP JUMPDEST PUSH1 0x1F DUP3 GT ISZERO PUSH2 0x29B3 JUMPI PUSH2 0x2984 DUP2 PUSH2 0x2853 JUMP JUMPDEST PUSH2 0x298D DUP5 PUSH2 0x2868 JUMP JUMPDEST DUP2 ADD PUSH1 0x20 DUP6 LT ISZERO PUSH2 0x299C JUMPI DUP2 SWAP1 POP JUMPDEST PUSH2 0x29B0 PUSH2 0x29A8 DUP6 PUSH2 0x2868 JUMP JUMPDEST DUP4 ADD DUP3 PUSH2 0x294F JUMP JUMPDEST POP POP JUMPDEST POP POP POP JUMP JUMPDEST PUSH1 0x0 DUP3 DUP3 SHR SWAP1 POP SWAP3 SWAP2 POP POP JUMP JUMPDEST PUSH1 0x0 PUSH2 0x29D6 PUSH1 0x0 NOT DUP5 PUSH1 0x8 MUL PUSH2 0x29B8 JUMP JUMPDEST NOT DUP1 DUP4 AND SWAP2 POP POP SWAP3 SWAP2 POP POP JUMP JUMPDEST PUSH1 0x0 PUSH2 0x29EF DUP4 DUP4 PUSH2 0x29C5 JUMP JUMPDEST SWAP2 POP DUP3 PUSH1 0x2 MUL DUP3 OR SWAP1 POP SWAP3 SWAP2 POP POP JUMP JUMPDEST PUSH2 0x2A08 DUP3 PUSH2 0x1C24 JUMP JUMPDEST PUSH8 0xFFFFFFFFFFFFFFFF DUP2 GT ISZERO PUSH2 0x2A21 JUMPI PUSH2 0x2A20 PUSH2 0x1F9B JUMP JUMPDEST JUMPDEST PUSH2 0x2A2B DUP3 SLOAD PUSH2 0x2585 JUMP JUMPDEST PUSH2 0x2A36 DUP3 DUP3 DUP6 PUSH2 0x2972 JUMP JUMPDEST PUSH1 0x0 PUSH1 0x20 SWAP1 POP PUSH1 0x1F DUP4 GT PUSH1 0x1 DUP2 EQ PUSH2 0x2A69 JUMPI PUSH1 0x0 DUP5 ISZERO PUSH2 0x2A57 JUMPI DUP3 DUP8 ADD MLOAD SWAP1 POP JUMPDEST PUSH2 0x2A61 DUP6 DUP3 PUSH2 0x29E3 JUMP JUMPDEST DUP7 SSTORE POP PUSH2 0x2AC9 JUMP JUMPDEST PUSH1 0x1F NOT DUP5 AND PUSH2 0x2A77 DUP7 PUSH2 0x2853 JUMP JUMPDEST PUSH1 0x0 JUMPDEST DUP3 DUP2 LT ISZERO PUSH2 0x2A9F JUMPI DUP5 DUP10 ADD MLOAD DUP3 SSTORE PUSH1 0x1 DUP3 ADD SWAP2 POP PUSH1 0x20 DUP6 ADD SWAP5 POP PUSH1 0x20 DUP2 ADD SWAP1 POP PUSH2 0x2A7A JUMP JUMPDEST DUP7 DUP4 LT ISZERO PUSH2 0x2ABC JUMPI DUP5 DUP10 ADD MLOAD PUSH2 0x2AB8 PUSH1 0x1F DUP10 AND DUP3 PUSH2 0x29C5 JUMP JUMPDEST DUP4 SSTORE POP JUMPDEST PUSH1 0x1 PUSH1 0x2 DUP9 MUL ADD DUP9 SSTORE POP POP POP JUMPDEST POP POP POP POP POP POP JUMP JUMPDEST PUSH1 0x0 PUSH1 0x60 DUP3 ADD SWAP1 POP PUSH2 0x2AE6 PUSH1 0x0 DUP4 ADD DUP7 PUSH2 0x1C15 JUMP JUMPDEST PUSH2 0x2AF3 PUSH1 0x20 DUP4 ADD DUP6 PUSH2 0x1CE6 JUMP JUMPDEST PUSH2 0x2B00 PUSH1 0x40 DUP4 ADD DUP5 PUSH2 0x1C15 JUMP JUMPDEST SWAP5 SWAP4 POP POP POP POP JUMP JUMPDEST PUSH32 0x5061796D656E7420746F20436F6E74726163746F720000000000000000000000 PUSH1 0x0 DUP3 ADD MSTORE POP JUMP JUMPDEST PUSH1 0x0 PUSH2 0x2B3E PUSH1 0x15 DUP4 PUSH2 0x1C2F JUMP JUMPDEST SWAP2 POP PUSH2 0x2B49 DUP3 PUSH2 0x2B08 JUMP JUMPDEST PUSH1 0x20 DUP3 ADD SWAP1 POP SWAP2 SWAP1 POP JUMP JUMPDEST PUSH1 0x0 PUSH1 0x80 DUP3 ADD SWAP1 POP PUSH2 0x2B69 PUSH1 0x0 DUP4 ADD DUP7 PUSH2 0x1C15 JUMP JUMPDEST PUSH2 0x2B76 PUSH1 0x20 DUP4 ADD DUP6 PUSH2 0x1C15 JUMP JUMPDEST DUP2 DUP2 SUB PUSH1 0x40 DUP4 ADD MSTORE PUSH2 0x2B87 DUP2 PUSH2 0x2B31 JUMP JUMPDEST SWAP1 POP PUSH2 0x2B96 PUSH1 0x60 DUP4 ADD DUP5 PUSH2 0x1C15 JUMP JUMPDEST SWAP5 SWAP4 POP POP POP POP JUMP JUMPDEST PUSH32 0x50726F6A65637420646F6573206E6F7420657869737400000000000000000000 PUSH1 0x0 DUP3 ADD MSTORE POP JUMP JUMPDEST PUSH1 0x0 PUSH2 0x2BD4 PUSH1 0x16 DUP4 PUSH2 0x1C2F JUMP JUMPDEST SWAP2 POP PUSH2 0x2BDF DUP3 PUSH2 0x2B9E JUMP JUMPDEST PUSH1 0x20 DUP3 ADD SWAP1 POP SWAP2 SWAP1 POP JUMP JUMPDEST PUSH1 0x0 PUSH1 0x20 DUP3 ADD SWAP1 POP DUP2 DUP2 SUB PUSH1 0x0 DUP4 ADD MSTORE PUSH2 0x2C03 DUP2 PUSH2 0x2BC7 JUMP JUMPDEST SWAP1 POP SWAP2 SWAP1 POP JUMP JUMPDEST PUSH32 0x436F6E74726163746F7220616C72656164792061737369676E65640000000000 PUSH1 0x0 DUP3 ADD MSTORE POP JUMP JUMPDEST PUSH1 0x0 PUSH2 0x2C40 PUSH1 0x1B DUP4 PUSH2 0x1C2F JUMP JUMPDEST SWAP2 POP PUSH2 0x2C4B DUP3 PUSH2 0x2C0A JUMP JUMPDEST PUSH1 0x20 DUP3 ADD SWAP1 POP SWAP2 SWAP1 POP JUMP JUMPDEST PUSH1 0x0 PUSH1 0x20 DUP3 ADD SWAP1 POP DUP2 DUP2 SUB PUSH1 0x0 DUP4 ADD MSTORE PUSH2 0x2C6F DUP2 PUSH2 0x2C33 JUMP JUMPDEST SWAP1 POP SWAP2 SWAP1 POP JUMP JUMPDEST PUSH1 0x0 PUSH1 0x40 DUP3 ADD SWAP1 POP PUSH2 0x2C8B PUSH1 0x0 DUP4 ADD DUP6 PUSH2 0x1C15 JUMP JUMPDEST PUSH2 0x2C98 PUSH1 0x20 DUP4 ADD DUP5 PUSH2 0x1CE6 JUMP JUMPDEST SWAP4 SWAP3 POP POP POP JUMP JUMPDEST PUSH32 0x4E487B7100000000000000000000000000000000000000000000000000000000 PUSH1 0x0 MSTORE PUSH1 0x32 PUSH1 0x4 MSTORE PUSH1 0x24 PUSH1 0x0 REVERT JUMPDEST PUSH32 0x457870656E7365206D7573742062652067726561746572207468616E20300000 PUSH1 0x0 DUP3 ADD MSTORE POP JUMP JUMPDEST PUSH1 0x0 PUSH2 0x2D04 PUSH1 0x1E DUP4 PUSH2 0x1C2F JUMP JUMPDEST SWAP2 POP PUSH2 0x2D0F DUP3 PUSH2 0x2CCE JUMP JUMPDEST PUSH1 0x20 DUP3 ADD SWAP1 POP SWAP2 SWAP1 POP JUMP JUMPDEST PUSH1 0x0 PUSH1 0x20 DUP3 ADD SWAP1 POP DUP2 DUP2 SUB PUSH1 0x0 DUP4 ADD MSTORE PUSH2 0x2D33 DUP2 PUSH2 0x2CF7 JUMP JUMPDEST SWAP1 POP SWAP2 SWAP1 POP JUMP JUMPDEST PUSH1 0x0 PUSH2 0x2D45 DUP3 PUSH2 0x1BB2 JUMP JUMPDEST SWAP2 POP PUSH2 0x2D50 DUP4 PUSH2 0x1BB2 JUMP JUMPDEST SWAP3 POP DUP3 DUP3 SUB SWAP1 POP DUP2 DUP2 GT ISZERO PUSH2 0x2D68 JUMPI PUSH2 0x2D67 PUSH2 0x268E JUMP JUMPDEST JUMPDEST SWAP3 SWAP2 POP POP JUMP JUMPDEST PUSH32 0x4D7573742073656E642066756E64730000000000000000000000000000000000 PUSH1 0x0 DUP3 ADD MSTORE POP JUMP JUMPDEST PUSH1 0x0 PUSH2 0x2DA4 PUSH1 0xF DUP4 PUSH2 0x1C2F JUMP JUMPDEST SWAP2 POP PUSH2 0x2DAF DUP3 PUSH2 0x2D6E JUMP JUMPDEST PUSH1 0x20 DUP3 ADD SWAP1 POP SWAP2 SWAP1 POP JUMP JUMPDEST PUSH1 0x0 PUSH1 0x20 DUP3 ADD SWAP1 POP DUP2 DUP2 SUB PUSH1 0x0 DUP4 ADD MSTORE PUSH2 0x2DD3 DUP2 PUSH2 0x2D97 JUMP JUMPDEST SWAP1 POP SWAP2 SWAP1 POP JUMP JUMPDEST PUSH1 0x0 PUSH1 0x60 DUP3 ADD SWAP1 POP PUSH2 0x2DEF PUSH1 0x0 DUP4 ADD DUP7 PUSH2 0x1CE6 JUMP JUMPDEST PUSH2 0x2DFC PUSH1 0x20 DUP4 ADD DUP6 PUSH2 0x1C15 JUMP JUMPDEST PUSH2 0x2E09 PUSH1 0x40 DUP4 ADD DUP5 PUSH2 0x1C15 JUMP JUMPDEST SWAP5 SWAP4 POP POP POP POP JUMP JUMPDEST PUSH32 0x427564676574206D7573742062652067726561746572207468616E2030000000 PUSH1 0x0 DUP3 ADD MSTORE POP JUMP JUMPDEST PUSH1 0x0 PUSH2 0x2E47 PUSH1 0x1D DUP4 PUSH2 0x1C2F JUMP JUMPDEST SWAP2 POP PUSH2 0x2E52 DUP3 PUSH2 0x2E11 JUMP JUMPDEST PUSH1 0x20 DUP3 ADD SWAP1 POP SWAP2 SWAP1 POP JUMP JUMPDEST PUSH1 0x0 PUSH1 0x20 DUP3 ADD SWAP1 POP DUP2 DUP2 SUB PUSH1 0x0 DUP4 ADD MSTORE PUSH2 0x2E76 DUP2 PUSH2 0x2E3A JUMP JUMPDEST SWAP1 POP SWAP2 SWAP1 POP JUMP JUMPDEST PUSH1 0x0 PUSH1 0x80 DUP3 ADD SWAP1 POP PUSH2 0x2E92 PUSH1 0x0 DUP4 ADD DUP8 PUSH2 0x1C15 JUMP JUMPDEST DUP2 DUP2 SUB PUSH1 0x20 DUP4 ADD MSTORE PUSH2 0x2EA4 DUP2 DUP7 PUSH2 0x1C7B JUMP JUMPDEST SWAP1 POP PUSH2 0x2EB3 PUSH1 0x40 DUP4 ADD DUP6 PUSH2 0x1CE6 JUMP JUMPDEST PUSH2 0x2EC0 PUSH1 0x60 DUP4 ADD DUP5 PUSH2 0x1C15 JUMP JUMPDEST SWAP6 SWAP5 POP POP POP POP POP JUMP INVALID LOG2 PUSH5 0x6970667358 0x22 SLT KECCAK256 ADDMOD PUSH1 0x31 CALLVALUE 0xC6 MSTORE 0xD4 DUP13 0xB8 0xA5 PUSH16 0xC0DE1A0494B530CD653F6A7B7CB16076 0xC1 0x21 POP SLOAD 0xB8 PUSH5 0x736F6C6343 STOP ADDMOD SHL STOP CALLER "
        },
        "methodIdentifiers": {
          "assignContractor(uint256,address)": "3434d6d5",
          "createProject(string,uint256)": "91754a5d",
          "expenseCount()": "52e7df5d",
          "expenses(uint256)": "af4afe0a",
          "getAllContributions()": "37f3061d",
          "getAllExpenses()": "dd53ff6c",
          "getAllExpensesByProjectId(uint256)": "fddf2a00",
          "getAllProjects()": "80d03829",
          "getContractBalance()": "6f9fb98a",
          "getContributionsByProjectId(uint256)": "96694b30",
          "incurExpense(uint256,string,address,uint256)": "720959f1",
          "payContractor(uint256,uint256)": "22c2ec60",
          "projectContributions(uint256,uint256)": "8f9b6b41",
          "projectCount()": "36fbad26",
          "projects(uint256)": "107046bd",
          "receiveFunds(uint256)": "8827e09b"
        }
      }
    }
  }
}