{
  "_format": "hh-sol-artifact-1",
  "contractName": "FundsTracker",
  "sourceName": "contracts/FundsTracker.sol",
  "abi": [
    {
      "inputs": [],
      "stateMutability": "nonpayable",
      "type": "constructor"
    },
    {
      "anonymous": false,
      "inputs": [
        {
          "indexed": false,
          "internalType": "uint256",
          "name": "projectId",
          "type": "uint256"
        },
        {
          "indexed": false,
          "internalType": "uint256",
          "name": "contractorId",
          "type": "uint256"
        }
      ],
      "name": "ContractorAssigned",
      "type": "event"
    },
    {
      "anonymous": false,
      "inputs": [
        {
          "indexed": false,
          "internalType": "uint256",
          "name": "contractorId",
          "type": "uint256"
        },
        {
          "indexed": false,
          "internalType": "string",
          "name": "name",
          "type": "string"
        }
      ],
      "name": "ContractorCreated",
      "type": "event"
    },
    {
      "anonymous": false,
      "inputs": [
        {
          "indexed": false,
          "internalType": "uint256",
          "name": "projectId",
          "type": "uint256"
        },
        {
          "indexed": false,
          "internalType": "string",
          "name": "description",
          "type": "string"
        },
        {
          "indexed": false,
          "internalType": "uint256",
          "name": "amount",
          "type": "uint256"
        }
      ],
      "name": "ExpenseLogged",
      "type": "event"
    },
    {
      "anonymous": false,
      "inputs": [
        {
          "indexed": false,
          "internalType": "uint256",
          "name": "projectId",
          "type": "uint256"
        },
        {
          "indexed": false,
          "internalType": "uint256",
          "name": "amount",
          "type": "uint256"
        }
      ],
      "name": "FundsReceived",
      "type": "event"
    },
    {
      "anonymous": false,
      "inputs": [
        {
          "indexed": false,
          "internalType": "uint256",
          "name": "paymentId",
          "type": "uint256"
        },
        {
          "indexed": false,
          "internalType": "uint256",
          "name": "amount",
          "type": "uint256"
        },
        {
          "indexed": false,
          "internalType": "uint256",
          "name": "projectId",
          "type": "uint256"
        },
        {
          "indexed": false,
          "internalType": "uint256",
          "name": "contractorId",
          "type": "uint256"
        },
        {
          "indexed": false,
          "internalType": "string",
          "name": "description",
          "type": "string"
        }
      ],
      "name": "PaymentMade",
      "type": "event"
    },
    {
      "anonymous": false,
      "inputs": [
        {
          "indexed": false,
          "internalType": "uint256",
          "name": "projectId",
          "type": "uint256"
        },
        {
          "indexed": false,
          "internalType": "string",
          "name": "name",
          "type": "string"
        },
        {
          "indexed": false,
          "internalType": "uint256",
          "name": "budget",
          "type": "uint256"
        },
        {
          "indexed": false,
          "internalType": "address",
          "name": "government",
          "type": "address"
        }
      ],
      "name": "ProjectCreated",
      "type": "event"
    },
    {
      "anonymous": false,
      "inputs": [
        {
          "indexed": false,
          "internalType": "uint256",
          "name": "projectId",
          "type": "uint256"
        },
        {
          "indexed": false,
          "internalType": "uint256",
          "name": "startDate",
          "type": "uint256"
        },
        {
          "indexed": false,
          "internalType": "uint256",
          "name": "endDate",
          "type": "uint256"
        }
      ],
      "name": "ProjectDatesSet",
      "type": "event"
    },
    {
      "anonymous": false,
      "inputs": [
        {
          "indexed": false,
          "internalType": "uint256",
          "name": "projectId",
          "type": "uint256"
        }
      ],
      "name": "ProjectFunded",
      "type": "event"
    },
    {
      "anonymous": false,
      "inputs": [
        {
          "indexed": true,
          "internalType": "address",
          "name": "user",
          "type": "address"
        },
        {
          "indexed": false,
          "internalType": "bytes32",
          "name": "role",
          "type": "bytes32"
        }
      ],
      "name": "RoleAssigned",
      "type": "event"
    },
    {
      "anonymous": false,
      "inputs": [
        {
          "indexed": true,
          "internalType": "address",
          "name": "user",
          "type": "address"
        },
        {
          "indexed": false,
          "internalType": "bytes32",
          "name": "role",
          "type": "bytes32"
        }
      ],
      "name": "RoleRevoked",
      "type": "event"
    },
    {
      "anonymous": false,
      "inputs": [
        {
          "indexed": true,
          "internalType": "address",
          "name": "user",
          "type": "address"
        }
      ],
      "name": "UserAdded",
      "type": "event"
    },
    {
      "inputs": [],
      "name": "CONTRACTOR_ROLE",
      "outputs": [
        {
          "internalType": "bytes32",
          "name": "",
          "type": "bytes32"
        }
      ],
      "stateMutability": "view",
      "type": "function"
    },
    {
      "inputs": [],
      "name": "MANAGER_ROLE",
      "outputs": [
        {
          "internalType": "bytes32",
          "name": "",
          "type": "bytes32"
        }
      ],
      "stateMutability": "view",
      "type": "function"
    },
    {
      "inputs": [],
      "name": "OWNER_ROLE",
      "outputs": [
        {
          "internalType": "bytes32",
          "name": "",
          "type": "bytes32"
        }
      ],
      "stateMutability": "view",
      "type": "function"
    },
    {
      "inputs": [],
      "name": "USER_ROLE",
      "outputs": [
        {
          "internalType": "bytes32",
          "name": "",
          "type": "bytes32"
        }
      ],
      "stateMutability": "view",
      "type": "function"
    },
    {
      "inputs": [
        {
          "internalType": "address",
          "name": "user",
          "type": "address"
        }
      ],
      "name": "addUser",
      "outputs": [],
      "stateMutability": "nonpayable",
      "type": "function"
    },
    {
      "inputs": [
        {
          "internalType": "uint256",
          "name": "projectId",
          "type": "uint256"
        },
        {
          "internalType": "uint256",
          "name": "contractorId",
          "type": "uint256"
        }
      ],
      "name": "assignContractor",
      "outputs": [],
      "stateMutability": "nonpayable",
      "type": "function"
    },
    {
      "inputs": [
        {
          "internalType": "address",
          "name": "user",
          "type": "address"
        },
        {
          "internalType": "bytes32",
          "name": "role",
          "type": "bytes32"
        }
      ],
      "name": "assignRole",
      "outputs": [],
      "stateMutability": "nonpayable",
      "type": "function"
    },
    {
      "inputs": [
        {
          "internalType": "uint256",
          "name": "",
          "type": "uint256"
        }
      ],
      "name": "contractors",
      "outputs": [
        {
          "internalType": "string",
          "name": "name",
          "type": "string"
        },
        {
          "internalType": "string",
          "name": "description",
          "type": "string"
        },
        {
          "internalType": "string",
          "name": "services",
          "type": "string"
        },
        {
          "internalType": "address payable",
          "name": "walletAddress",
          "type": "address"
        },
        {
          "internalType": "uint8",
          "name": "rating",
          "type": "uint8"
        }
      ],
      "stateMutability": "view",
      "type": "function"
    },
    {
      "inputs": [
        {
          "internalType": "string",
          "name": "_name",
          "type": "string"
        },
        {
          "internalType": "string",
          "name": "_description",
          "type": "string"
        },
        {
          "internalType": "string",
          "name": "_services",
          "type": "string"
        },
        {
          "internalType": "address payable",
          "name": "_walletAddress",
          "type": "address"
        }
      ],
      "name": "createContractor",
      "outputs": [],
      "stateMutability": "nonpayable",
      "type": "function"
    },
    {
      "inputs": [
        {
          "internalType": "string",
          "name": "name",
          "type": "string"
        },
        {
          "internalType": "uint256",
          "name": "budget",
          "type": "uint256"
        },
        {
          "internalType": "address payable",
          "name": "government",
          "type": "address"
        },
        {
          "internalType": "string",
          "name": "description",
          "type": "string"
        }
      ],
      "name": "createProject",
      "outputs": [],
      "stateMutability": "nonpayable",
      "type": "function"
    },
    {
      "inputs": [
        {
          "internalType": "uint256",
          "name": "projectId",
          "type": "uint256"
        }
      ],
      "name": "donate",
      "outputs": [],
      "stateMutability": "payable",
      "type": "function"
    },
    {
      "inputs": [],
      "name": "getAllContractors",
      "outputs": [
        {
          "components": [
            {
              "internalType": "string",
              "name": "name",
              "type": "string"
            },
            {
              "internalType": "string",
              "name": "description",
              "type": "string"
            },
            {
              "internalType": "string",
              "name": "services",
              "type": "string"
            },
            {
              "internalType": "address payable",
              "name": "walletAddress",
              "type": "address"
            },
            {
              "internalType": "uint8",
              "name": "rating",
              "type": "uint8"
            }
          ],
          "internalType": "struct FundsTracker.Contractor[]",
          "name": "",
          "type": "tuple[]"
        }
      ],
      "stateMutability": "view",
      "type": "function"
    },
    {
      "inputs": [],
      "name": "getAllProjects",
      "outputs": [
        {
          "components": [
            {
              "internalType": "string",
              "name": "name",
              "type": "string"
            },
            {
              "internalType": "uint256",
              "name": "budget",
              "type": "uint256"
            },
            {
              "internalType": "uint256",
              "name": "amountReceived",
              "type": "uint256"
            },
            {
              "internalType": "bool",
              "name": "funded",
              "type": "bool"
            },
            {
              "internalType": "address payable",
              "name": "government",
              "type": "address"
            },
            {
              "internalType": "uint256",
              "name": "startDate",
              "type": "uint256"
            },
            {
              "internalType": "uint256",
              "name": "endDate",
              "type": "uint256"
            },
            {
              "internalType": "string",
              "name": "description",
              "type": "string"
            }
          ],
          "internalType": "struct FundsTracker.Project[]",
          "name": "",
          "type": "tuple[]"
        }
      ],
      "stateMutability": "view",
      "type": "function"
    },
    {
      "inputs": [],
      "name": "getAllUsers",
      "outputs": [
        {
          "internalType": "address[]",
          "name": "",
          "type": "address[]"
        },
        {
          "internalType": "bytes32[]",
          "name": "",
          "type": "bytes32[]"
        }
      ],
      "stateMutability": "view",
      "type": "function"
    },
    {
      "inputs": [
        {
          "internalType": "uint256",
          "name": "projectId",
          "type": "uint256"
        }
      ],
      "name": "getContractorByProjectId",
      "outputs": [
        {
          "components": [
            {
              "internalType": "string",
              "name": "name",
              "type": "string"
            },
            {
              "internalType": "string",
              "name": "description",
              "type": "string"
            },
            {
              "internalType": "string",
              "name": "services",
              "type": "string"
            },
            {
              "internalType": "address payable",
              "name": "walletAddress",
              "type": "address"
            },
            {
              "internalType": "uint8",
              "name": "rating",
              "type": "uint8"
            }
          ],
          "internalType": "struct FundsTracker.Contractor",
          "name": "",
          "type": "tuple"
        }
      ],
      "stateMutability": "view",
      "type": "function"
    },
    {
      "inputs": [
        {
          "internalType": "uint256",
          "name": "projectId",
          "type": "uint256"
        }
      ],
      "name": "getExpensesByProjectId",
      "outputs": [
        {
          "components": [
            {
              "internalType": "uint256",
              "name": "projectId",
              "type": "uint256"
            },
            {
              "internalType": "string",
              "name": "description",
              "type": "string"
            },
            {
              "internalType": "uint256",
              "name": "amount",
              "type": "uint256"
            },
            {
              "internalType": "uint256",
              "name": "itemQuantity",
              "type": "uint256"
            },
            {
              "internalType": "address payable",
              "name": "walletAddress",
              "type": "address"
            },
            {
              "internalType": "uint256",
              "name": "timestamp",
              "type": "uint256"
            }
          ],
          "internalType": "struct FundsTracker.Expense[]",
          "name": "",
          "type": "tuple[]"
        }
      ],
      "stateMutability": "view",
      "type": "function"
    },
    {
      "inputs": [
        {
          "internalType": "uint256",
          "name": "projectId",
          "type": "uint256"
        }
      ],
      "name": "getPaymentsByProjectId",
      "outputs": [
        {
          "components": [
            {
              "internalType": "uint256",
              "name": "amount",
              "type": "uint256"
            },
            {
              "internalType": "uint256",
              "name": "projectId",
              "type": "uint256"
            },
            {
              "internalType": "uint256",
              "name": "contractorId",
              "type": "uint256"
            },
            {
              "internalType": "string",
              "name": "description",
              "type": "string"
            },
            {
              "internalType": "uint256",
              "name": "timestamp",
              "type": "uint256"
            }
          ],
          "internalType": "struct FundsTracker.Payment[]",
          "name": "",
          "type": "tuple[]"
        }
      ],
      "stateMutability": "view",
      "type": "function"
    },
    {
      "inputs": [
        {
          "internalType": "address",
          "name": "user",
          "type": "address"
        },
        {
          "internalType": "bytes32",
          "name": "role",
          "type": "bytes32"
        }
      ],
      "name": "hasRole",
      "outputs": [
        {
          "internalType": "bool",
          "name": "",
          "type": "bool"
        }
      ],
      "stateMutability": "view",
      "type": "function"
    },
    {
      "inputs": [
        {
          "internalType": "uint256",
          "name": "projectId",
          "type": "uint256"
        },
        {
          "internalType": "string",
          "name": "description",
          "type": "string"
        },
        {
          "internalType": "uint256",
          "name": "amount",
          "type": "uint256"
        },
        {
          "internalType": "uint256",
          "name": "itemQuantity",
          "type": "uint256"
        },
        {
          "internalType": "address payable",
          "name": "walletAddress",
          "type": "address"
        }
      ],
      "name": "logExpense",
      "outputs": [],
      "stateMutability": "nonpayable",
      "type": "function"
    },
    {
      "inputs": [],
      "name": "owner",
      "outputs": [
        {
          "internalType": "address",
          "name": "",
          "type": "address"
        }
      ],
      "stateMutability": "view",
      "type": "function"
    },
    {
      "inputs": [
        {
          "internalType": "uint256",
          "name": "projectId",
          "type": "uint256"
        },
        {
          "internalType": "uint256",
          "name": "contractorId",
          "type": "uint256"
        },
        {
          "internalType": "uint256",
          "name": "amount",
          "type": "uint256"
        },
        {
          "internalType": "string",
          "name": "description",
          "type": "string"
        }
      ],
      "name": "payContractor",
      "outputs": [],
      "stateMutability": "nonpayable",
      "type": "function"
    },
    {
      "inputs": [
        {
          "internalType": "uint256",
          "name": "",
          "type": "uint256"
        }
      ],
      "name": "payments",
      "outputs": [
        {
          "internalType": "uint256",
          "name": "amount",
          "type": "uint256"
        },
        {
          "internalType": "uint256",
          "name": "projectId",
          "type": "uint256"
        },
        {
          "internalType": "uint256",
          "name": "contractorId",
          "type": "uint256"
        },
        {
          "internalType": "string",
          "name": "description",
          "type": "string"
        },
        {
          "internalType": "uint256",
          "name": "timestamp",
          "type": "uint256"
        }
      ],
      "stateMutability": "view",
      "type": "function"
    },
    {
      "inputs": [
        {
          "internalType": "uint256",
          "name": "",
          "type": "uint256"
        }
      ],
      "name": "projectContractors",
      "outputs": [
        {
          "internalType": "uint256",
          "name": "",
          "type": "uint256"
        }
      ],
      "stateMutability": "view",
      "type": "function"
    },
    {
      "inputs": [
        {
          "internalType": "uint256",
          "name": "",
          "type": "uint256"
        },
        {
          "internalType": "uint256",
          "name": "",
          "type": "uint256"
        }
      ],
      "name": "projectExpenses",
      "outputs": [
        {
          "internalType": "uint256",
          "name": "projectId",
          "type": "uint256"
        },
        {
          "internalType": "string",
          "name": "description",
          "type": "string"
        },
        {
          "internalType": "uint256",
          "name": "amount",
          "type": "uint256"
        },
        {
          "internalType": "uint256",
          "name": "itemQuantity",
          "type": "uint256"
        },
        {
          "internalType": "address payable",
          "name": "walletAddress",
          "type": "address"
        },
        {
          "internalType": "uint256",
          "name": "timestamp",
          "type": "uint256"
        }
      ],
      "stateMutability": "view",
      "type": "function"
    },
    {
      "inputs": [
        {
          "internalType": "uint256",
          "name": "",
          "type": "uint256"
        }
      ],
      "name": "projects",
      "outputs": [
        {
          "internalType": "string",
          "name": "name",
          "type": "string"
        },
        {
          "internalType": "uint256",
          "name": "budget",
          "type": "uint256"
        },
        {
          "internalType": "uint256",
          "name": "amountReceived",
          "type": "uint256"
        },
        {
          "internalType": "bool",
          "name": "funded",
          "type": "bool"
        },
        {
          "internalType": "address payable",
          "name": "government",
          "type": "address"
        },
        {
          "internalType": "uint256",
          "name": "startDate",
          "type": "uint256"
        },
        {
          "internalType": "uint256",
          "name": "endDate",
          "type": "uint256"
        },
        {
          "internalType": "string",
          "name": "description",
          "type": "string"
        }
      ],
      "stateMutability": "view",
      "type": "function"
    },
    {
      "inputs": [
        {
          "internalType": "address",
          "name": "user",
          "type": "address"
        }
      ],
      "name": "revokeRole",
      "outputs": [],
      "stateMutability": "nonpayable",
      "type": "function"
    },
    {
      "inputs": [
        {
          "internalType": "address",
          "name": "",
          "type": "address"
        }
      ],
      "name": "roles",
      "outputs": [
        {
          "internalType": "bytes32",
          "name": "",
          "type": "bytes32"
        }
      ],
      "stateMutability": "view",
      "type": "function"
    },
    {
      "inputs": [
        {
          "internalType": "uint256",
          "name": "projectId",
          "type": "uint256"
        },
        {
          "internalType": "uint256",
          "name": "startDate",
          "type": "uint256"
        },
        {
          "internalType": "uint256",
          "name": "endDate",
          "type": "uint256"
        }
      ],
      "name": "setProjectDates",
      "outputs": [],
      "stateMutability": "nonpayable",
      "type": "function"
    },
    {
      "inputs": [
        {
          "internalType": "uint256",
          "name": "",
          "type": "uint256"
        }
      ],
      "name": "userList",
      "outputs": [
        {
          "internalType": "address",
          "name": "",
          "type": "address"
        }
      ],
      "stateMutability": "view",
      "type": "function"
    }
  ],
  "bytecode": "0x608060405234801561001057600080fd5b50336000806101000a81548173ffffffffffffffffffffffffffffffffffffffff021916908373ffffffffffffffffffffffffffffffffffffffff1602179055507f02016836a56b71f0d02689e69e326f4f4c1b9057164ef592671cf0d37c8040c0600160008060009054906101000a900473ffffffffffffffffffffffffffffffffffffffff1673ffffffffffffffffffffffffffffffffffffffff1673ffffffffffffffffffffffffffffffffffffffff16815260200190815260200160002081905550600260008054906101000a900473ffffffffffffffffffffffffffffffffffffffff169080600181540180825580915050600190039060005260206000200160009091909190916101000a81548173ffffffffffffffffffffffffffffffffffffffff021916908373ffffffffffffffffffffffffffffffffffffffff160217905550615490806101686000396000f3fe6080604052600436106101c25760003560e01c806387afe07c116100f7578063b62cbae911610095578063e9dd416111610064578063e9dd4161146106b1578063ec87621c146106ee578063f14faf6f14610719578063f88e320414610735576101c2565b8063b62cbae9146105f4578063e2842d791461061d578063e58378bb14610649578063e81a786814610674576101c2565b80638da5cb5b116100d15780638da5cb5b14610512578063993746421461053d5780639f4216e81461057a578063ac4ab3fb146105b7576101c2565b806387afe07c1461047f57806387d81789146104a85780638c28205a146104e9576101c2565b80634bd421be116101645780636ab0bd4c1161013e5780636ab0bd4c146103c357806380d03829146103ee57806380e52e3f1461041957806384078b0a14610442576101c2565b80634bd421be1461031b5780634c3c0db01461035d5780636744086814610386576101c2565b80631d9486de116101a05780631d9486de1461025f5780633481a95a146102885780633ad3b0ba146102c9578063421b2d8b146102f2576101c2565b80630562c680146101c7578063107046bd146101f05780631311916114610234575b600080fd5b3480156101d357600080fd5b506101ee60048036038101906101e99190613651565b610760565b005b3480156101fc57600080fd5b50610217600480360381019061021291906136d9565b610bcf565b60405161022b989796959493929190613801565b60405180910390f35b34801561024057600080fd5b50610249610d64565b60405161025691906138a6565b60405180910390f35b34801561026b57600080fd5b506102866004803603810190610281919061392b565b610d88565b005b34801561029457600080fd5b506102af60048036038101906102aa91906136d9565b610f1b565b6040516102c0959493929190613987565b60405180910390f35b3480156102d557600080fd5b506102f060048036038101906102eb9190613a1b565b611126565b005b3480156102fe57600080fd5b5061031960048036038101906103149190613ab5565b6115d4565b005b34801561032757600080fd5b50610342600480360381019061033d9190613ae2565b6117de565b60405161035496959493929190613b22565b60405180910390f35b34801561036957600080fd5b50610384600480360381019061037f9190613b8a565b6118df565b005b34801561039257600080fd5b506103ad60048036038101906103a891906136d9565b611b06565b6040516103ba9190613bdd565b60405180910390f35b3480156103cf57600080fd5b506103d8611b1e565b6040516103e59190613da6565b60405180910390f35b3480156103fa57600080fd5b50610403611da6565b6040516104109190613f5f565b60405180910390f35b34801561042557600080fd5b50610440600480360381019061043b9190613ab5565b611fc3565b005b34801561044e57600080fd5b50610469600480360381019061046491906136d9565b612199565b6040516104769190614005565b60405180910390f35b34801561048b57600080fd5b506104a660048036038101906104a19190614157565b6124a5565b005b3480156104b457600080fd5b506104cf60048036038101906104ca91906136d9565b61260d565b6040516104e0959493929190614212565b60405180910390f35b3480156104f557600080fd5b50610510600480360381019061050b919061426c565b6126db565b005b34801561051e57600080fd5b50610527612a72565b6040516105349190614322565b60405180910390f35b34801561054957600080fd5b50610564600480360381019061055f9190613ab5565b612a96565b60405161057191906138a6565b60405180910390f35b34801561058657600080fd5b506105a1600480360381019061059c91906136d9565b612aae565b6040516105ae9190614322565b60405180910390f35b3480156105c357600080fd5b506105de60048036038101906105d9919061392b565b612aed565b6040516105eb919061433d565b60405180910390f35b34801561060057600080fd5b5061061b60048036038101906106169190613ae2565b612b39565b005b34801561062957600080fd5b50610632612d26565b6040516106409291906144d4565b60405180910390f35b34801561065557600080fd5b5061065e612eca565b60405161066b91906138a6565b60405180910390f35b34801561068057600080fd5b5061069b600480360381019061069691906136d9565b612eee565b6040516106a89190614643565b60405180910390f35b3480156106bd57600080fd5b506106d860048036038101906106d391906136d9565b613153565b6040516106e591906147b0565b60405180910390f35b3480156106fa57600080fd5b5061070361331c565b60405161071091906138a6565b60405180910390f35b610733600480360381019061072e91906136d9565b613340565b005b34801561074157600080fd5b5061074a613507565b60405161075791906138a6565b60405180910390f35b7f2447c43a6160806768d4c947ce727fb12b7f2700badae716947943ea245c25d6600160003373ffffffffffffffffffffffffffffffffffffffff1673ffffffffffffffffffffffffffffffffffffffff16815260200190815260200160002054148061082b57507f02016836a56b71f0d02689e69e326f4f4c1b9057164ef592671cf0d37c8040c0600160003373ffffffffffffffffffffffffffffffffffffffff1673ffffffffffffffffffffffffffffffffffffffff16815260200190815260200160002054145b61086a576040517f08c379a00000000000000000000000000000000000000000000000000000000081526004016108619061481e565b60405180910390fd5b60048054905085106108b1576040517f08c379a00000000000000000000000000000000000000000000000000000000081526004016108a89061488a565b60405180910390fd5b60038054905084106108f8576040517f08c379a00000000000000000000000000000000000000000000000000000000081526004016108ef906148f6565b60405180910390fd5b6000831161093b576040517f08c379a000000000000000000000000000000000000000000000000000000000815260040161093290614962565b60405180910390fd5b60006004868154811061095157610950614982565b5b9060005260206000209060070201905083816002015410156109a8576040517f08c379a000000000000000000000000000000000000000000000000000000000815260040161099f906149fd565b60405180910390fd5b8060030160019054906101000a900473ffffffffffffffffffffffffffffffffffffffff1673ffffffffffffffffffffffffffffffffffffffff166108fc859081150290604051600060405180830381858888f19350505050158015610a12573d6000803e3d6000fd5b5060038581548110610a2757610a26614982565b5b906000526020600020906004020160030160009054906101000a900473ffffffffffffffffffffffffffffffffffffffff1673ffffffffffffffffffffffffffffffffffffffff166108fc859081150290604051600060405180830381858888f19350505050158015610a9e573d6000803e3d6000fd5b5060076040518060a0016040528086815260200188815260200187815260200185858080601f016020809104026020016040519081016040528093929190818152602001838380828437600081840152601f19601f8201169050808301925050505050505081526020014281525090806001815401808255809150506001900390600052602060002090600502016000909190919091506000820151816000015560208201518160010155604082015181600201556060820151816003019081610b689190614c29565b506080820151816004015550507f315cb998d4c63a97dde699051c45e869eae32139bc2bf8ff66e2eb322aa7731c6001600780549050610ba89190614d2a565b8588888787604051610bbf96959493929190614d8b565b60405180910390a1505050505050565b60048181548110610bdf57600080fd5b9060005260206000209060070201600091509050806000018054610c0290614a4c565b80601f0160208091040260200160405190810160405280929190818152602001828054610c2e90614a4c565b8015610c7b5780601f10610c5057610100808354040283529160200191610c7b565b820191906000526020600020905b815481529060010190602001808311610c5e57829003601f168201915b5050505050908060010154908060020154908060030160009054906101000a900460ff16908060030160019054906101000a900473ffffffffffffffffffffffffffffffffffffffff1690806004015490806005015490806006018054610ce190614a4c565b80601f0160208091040260200160405190810160405280929190818152602001828054610d0d90614a4c565b8015610d5a5780601f10610d2f57610100808354040283529160200191610d5a565b820191906000526020600020905b815481529060010190602001808311610d3d57829003601f168201915b5050505050905088565b7fcb61ad33d3763aed2bc16c0f57ff251ac638d3d03ab7550adfd3e166c2e7adb681565b60008054906101000a900473ffffffffffffffffffffffffffffffffffffffff1673ffffffffffffffffffffffffffffffffffffffff163373ffffffffffffffffffffffffffffffffffffffff1614610e16576040517f08c379a0000000000000000000000000000000000000000000000000000000008152600401610e0d90614e33565b60405180910390fd5b600073ffffffffffffffffffffffffffffffffffffffff168273ffffffffffffffffffffffffffffffffffffffff1603610e85576040517f08c379a0000000000000000000000000000000000000000000000000000000008152600401610e7c90614e9f565b60405180910390fd5b80600160008473ffffffffffffffffffffffffffffffffffffffff1673ffffffffffffffffffffffffffffffffffffffff168152602001908152602001600020819055508173ffffffffffffffffffffffffffffffffffffffff167f0666448aae9b9c8249fd8213a35a9c10218a0eac2fb39b96ed90c67214c7e76182604051610f0f91906138a6565b60405180910390a25050565b60038181548110610f2b57600080fd5b9060005260206000209060040201600091509050806000018054610f4e90614a4c565b80601f0160208091040260200160405190810160405280929190818152602001828054610f7a90614a4c565b8015610fc75780601f10610f9c57610100808354040283529160200191610fc7565b820191906000526020600020905b815481529060010190602001808311610faa57829003601f168201915b505050505090806001018054610fdc90614a4c565b80601f016020809104026020016040519081016040528092919081815260200182805461100890614a4c565b80156110555780601f1061102a57610100808354040283529160200191611055565b820191906000526020600020905b81548152906001019060200180831161103857829003601f168201915b50505050509080600201805461106a90614a4c565b80601f016020809104026020016040519081016040528092919081815260200182805461109690614a4c565b80156110e35780601f106110b8576101008083540402835291602001916110e3565b820191906000526020600020905b8154815290600101906020018083116110c657829003601f168201915b5050505050908060030160009054906101000a900473ffffffffffffffffffffffffffffffffffffffff16908060030160149054906101000a900460ff16905085565b600480549050861061116d576040517f08c379a00000000000000000000000000000000000000000000000000000000081526004016111649061488a565b60405180910390fd5b600083116111b0576040517f08c379a00000000000000000000000000000000000000000000000000000000081526004016111a790614f0b565b60405180910390fd5b600082116111f3576040517f08c379a00000000000000000000000000000000000000000000000000000000081526004016111ea90614f77565b60405180910390fd5b600073ffffffffffffffffffffffffffffffffffffffff168173ffffffffffffffffffffffffffffffffffffffff1603611262576040517f08c379a000000000000000000000000000000000000000000000000000000000815260040161125990614fe3565b60405180910390fd5b7f2447c43a6160806768d4c947ce727fb12b7f2700badae716947943ea245c25d6600160003373ffffffffffffffffffffffffffffffffffffffff1673ffffffffffffffffffffffffffffffffffffffff16815260200190815260200160002054148061132d57507f02016836a56b71f0d02689e69e326f4f4c1b9057164ef592671cf0d37c8040c0600160003373ffffffffffffffffffffffffffffffffffffffff1673ffffffffffffffffffffffffffffffffffffffff16815260200190815260200160002054145b61136c576040517f08c379a00000000000000000000000000000000000000000000000000000000081526004016113639061504f565b60405180910390fd5b60006004878154811061138257611381614982565b5b9060005260206000209060070201905083816002015410156113d9576040517f08c379a00000000000000000000000000000000000000000000000000000000081526004016113d0906149fd565b60405180910390fd5b8060030160019054906101000a900473ffffffffffffffffffffffffffffffffffffffff1673ffffffffffffffffffffffffffffffffffffffff166108fc859081150290604051600060405180830381858888f19350505050158015611443573d6000803e3d6000fd5b50600660008881526020019081526020016000206040518060c0016040528089815260200188888080601f016020809104026020016040519081016040528093929190818152602001838380828437600081840152601f19601f8201169050808301925050505050505081526020018681526020018581526020018473ffffffffffffffffffffffffffffffffffffffff1681526020014281525090806001815401808255809150506001900390600052602060002090600602016000909190919091506000820151816000015560208201518160010190816115269190614c29565b50604082015181600201556060820151816003015560808201518160040160006101000a81548173ffffffffffffffffffffffffffffffffffffffff021916908373ffffffffffffffffffffffffffffffffffffffff16021790555060a0820151816005015550507fee9ce74e1c4c69a088b563acec4eb6585b77220c8bdef0c41b4c734102b73ebc878787876040516115c3949392919061506f565b60405180910390a150505050505050565b60008054906101000a900473ffffffffffffffffffffffffffffffffffffffff1673ffffffffffffffffffffffffffffffffffffffff163373ffffffffffffffffffffffffffffffffffffffff1614611662576040517f08c379a000000000000000000000000000000000000000000000000000000000815260040161165990614e33565b60405180910390fd5b600073ffffffffffffffffffffffffffffffffffffffff168173ffffffffffffffffffffffffffffffffffffffff16036116d1576040517f08c379a00000000000000000000000000000000000000000000000000000000081526004016116c890614e9f565b60405180910390fd5b7fcb61ad33d3763aed2bc16c0f57ff251ac638d3d03ab7550adfd3e166c2e7adb6600160008373ffffffffffffffffffffffffffffffffffffffff1673ffffffffffffffffffffffffffffffffffffffff168152602001908152602001600020819055506002819080600181540180825580915050600190039060005260206000200160009091909190916101000a81548173ffffffffffffffffffffffffffffffffffffffff021916908373ffffffffffffffffffffffffffffffffffffffff1602179055508073ffffffffffffffffffffffffffffffffffffffff167f19ef9a4877199f89440a26acb26895ec02ed86f2df1aeaa90dc18041b892f71f60405160405180910390a250565b600660205281600052604060002081815481106117fa57600080fd5b90600052602060002090600602016000915091505080600001549080600101805461182490614a4c565b80601f016020809104026020016040519081016040528092919081815260200182805461185090614a4c565b801561189d5780601f106118725761010080835404028352916020019161189d565b820191906000526020600020905b81548152906001019060200180831161188057829003601f168201915b5050505050908060020154908060030154908060040160009054906101000a900473ffffffffffffffffffffffffffffffffffffffff16908060050154905086565b6004805490508310611926576040517f08c379a000000000000000000000000000000000000000000000000000000000815260040161191d9061488a565b60405180910390fd5b7f2447c43a6160806768d4c947ce727fb12b7f2700badae716947943ea245c25d6600160003373ffffffffffffffffffffffffffffffffffffffff1673ffffffffffffffffffffffffffffffffffffffff1681526020019081526020016000205414806119f157507f02016836a56b71f0d02689e69e326f4f4c1b9057164ef592671cf0d37c8040c0600160003373ffffffffffffffffffffffffffffffffffffffff1673ffffffffffffffffffffffffffffffffffffffff16815260200190815260200160002054145b611a30576040517f08c379a0000000000000000000000000000000000000000000000000000000008152600401611a279061504f565b60405180910390fd5b808210611a72576040517f08c379a0000000000000000000000000000000000000000000000000000000008152600401611a6990615121565b60405180910390fd5b8160048481548110611a8757611a86614982565b5b9060005260206000209060070201600401819055508060048481548110611ab157611ab0614982565b5b9060005260206000209060070201600501819055507f15d227cec4b642f6fa0f2b593ece8ae6a8bc9c6e207fd97ccfea737abbfcf110838383604051611af993929190615141565b60405180910390a1505050565b60056020528060005260406000206000915090505481565b60606003805480602002602001604051908101604052809291908181526020016000905b82821015611d9d57838290600052602060002090600402016040518060a0016040529081600082018054611b7590614a4c565b80601f0160208091040260200160405190810160405280929190818152602001828054611ba190614a4c565b8015611bee5780601f10611bc357610100808354040283529160200191611bee565b820191906000526020600020905b815481529060010190602001808311611bd157829003601f168201915b50505050508152602001600182018054611c0790614a4c565b80601f0160208091040260200160405190810160405280929190818152602001828054611c3390614a4c565b8015611c805780601f10611c5557610100808354040283529160200191611c80565b820191906000526020600020905b815481529060010190602001808311611c6357829003601f168201915b50505050508152602001600282018054611c9990614a4c565b80601f0160208091040260200160405190810160405280929190818152602001828054611cc590614a4c565b8015611d125780601f10611ce757610100808354040283529160200191611d12565b820191906000526020600020905b815481529060010190602001808311611cf557829003601f168201915b505050505081526020016003820160009054906101000a900473ffffffffffffffffffffffffffffffffffffffff1673ffffffffffffffffffffffffffffffffffffffff1673ffffffffffffffffffffffffffffffffffffffff1681526020016003820160149054906101000a900460ff1660ff1660ff168152505081526020019060010190611b42565b50505050905090565b60606004805480602002602001604051908101604052809291908181526020016000905b82821015611fba578382906000526020600020906007020160405180610100016040529081600082018054611dfe90614a4c565b80601f0160208091040260200160405190810160405280929190818152602001828054611e2a90614a4c565b8015611e775780601f10611e4c57610100808354040283529160200191611e77565b820191906000526020600020905b815481529060010190602001808311611e5a57829003601f168201915b5050505050815260200160018201548152602001600282015481526020016003820160009054906101000a900460ff161515151581526020016003820160019054906101000a900473ffffffffffffffffffffffffffffffffffffffff1673ffffffffffffffffffffffffffffffffffffffff1673ffffffffffffffffffffffffffffffffffffffff1681526020016004820154815260200160058201548152602001600682018054611f2990614a4c565b80601f0160208091040260200160405190810160405280929190818152602001828054611f5590614a4c565b8015611fa25780601f10611f7757610100808354040283529160200191611fa2565b820191906000526020600020905b815481529060010190602001808311611f8557829003601f168201915b50505050508152505081526020019060010190611dca565b50505050905090565b60008054906101000a900473ffffffffffffffffffffffffffffffffffffffff1673ffffffffffffffffffffffffffffffffffffffff163373ffffffffffffffffffffffffffffffffffffffff1614612051576040517f08c379a000000000000000000000000000000000000000000000000000000000815260040161204890614e33565b60405180910390fd5b600073ffffffffffffffffffffffffffffffffffffffff168173ffffffffffffffffffffffffffffffffffffffff16036120c0576040517f08c379a00000000000000000000000000000000000000000000000000000000081526004016120b790614e9f565b60405180910390fd5b6000600160008373ffffffffffffffffffffffffffffffffffffffff1673ffffffffffffffffffffffffffffffffffffffff168152602001908152602001600020549050600160008373ffffffffffffffffffffffffffffffffffffffff1673ffffffffffffffffffffffffffffffffffffffff168152602001908152602001600020600090558173ffffffffffffffffffffffffffffffffffffffff167fea83a7caef01824e96446a8c4bc8ff4669edd99e129b53e32c077f85d21680818260405161218d91906138a6565b60405180910390a25050565b6121a161352b565b60048054905082106121e8576040517f08c379a00000000000000000000000000000000000000000000000000000000081526004016121df9061488a565b60405180910390fd5b6000600560008481526020019081526020016000205490506003805490508110612247576040517f08c379a000000000000000000000000000000000000000000000000000000000815260040161223e906151ea565b60405180910390fd5b6003818154811061225b5761225a614982565b5b90600052602060002090600402016040518060a001604052908160008201805461228490614a4c565b80601f01602080910402602001604051908101604052809291908181526020018280546122b090614a4c565b80156122fd5780601f106122d2576101008083540402835291602001916122fd565b820191906000526020600020905b8154815290600101906020018083116122e057829003601f168201915b5050505050815260200160018201805461231690614a4c565b80601f016020809104026020016040519081016040528092919081815260200182805461234290614a4c565b801561238f5780601f106123645761010080835404028352916020019161238f565b820191906000526020600020905b81548152906001019060200180831161237257829003601f168201915b505050505081526020016002820180546123a890614a4c565b80601f01602080910402602001604051908101604052809291908181526020018280546123d490614a4c565b80156124215780601f106123f657610100808354040283529160200191612421565b820191906000526020600020905b81548152906001019060200180831161240457829003601f168201915b505050505081526020016003820160009054906101000a900473ffffffffffffffffffffffffffffffffffffffff1673ffffffffffffffffffffffffffffffffffffffff1673ffffffffffffffffffffffffffffffffffffffff1681526020016003820160149054906101000a900460ff1660ff1660ff1681525050915050919050565b60036040518060a001604052808681526020018581526020018481526020018373ffffffffffffffffffffffffffffffffffffffff168152602001600060ff16815250908060018154018082558091505060019003906000526020600020906004020160009091909190915060008201518160000190816125269190614c29565b50602082015181600101908161253c9190614c29565b5060408201518160020190816125529190614c29565b5060608201518160030160006101000a81548173ffffffffffffffffffffffffffffffffffffffff021916908373ffffffffffffffffffffffffffffffffffffffff16021790555060808201518160030160146101000a81548160ff021916908360ff16021790555050507fae35c51576253c2c107585feea6f1fea0d60fe8d1bcb9300241011b3bc06b02960016003805490506125f09190614d2a565b856040516125ff92919061520a565b60405180910390a150505050565b6007818154811061261d57600080fd5b906000526020600020906005020160009150905080600001549080600101549080600201549080600301805461265290614a4c565b80601f016020809104026020016040519081016040528092919081815260200182805461267e90614a4c565b80156126cb5780601f106126a0576101008083540402835291602001916126cb565b820191906000526020600020905b8154815290600101906020018083116126ae57829003601f168201915b5050505050908060040154905085565b7f2447c43a6160806768d4c947ce727fb12b7f2700badae716947943ea245c25d6600160003373ffffffffffffffffffffffffffffffffffffffff1673ffffffffffffffffffffffffffffffffffffffff1681526020019081526020016000205414806127a657507f02016836a56b71f0d02689e69e326f4f4c1b9057164ef592671cf0d37c8040c0600160003373ffffffffffffffffffffffffffffffffffffffff1673ffffffffffffffffffffffffffffffffffffffff16815260200190815260200160002054145b6127e5576040517f08c379a00000000000000000000000000000000000000000000000000000000081526004016127dc9061481e565b60405180910390fd5b600073ffffffffffffffffffffffffffffffffffffffff168373ffffffffffffffffffffffffffffffffffffffff1603612854576040517f08c379a000000000000000000000000000000000000000000000000000000000815260040161284b90615286565b60405180910390fd5b600460405180610100016040528088888080601f016020809104026020016040519081016040528093929190818152602001838380828437600081840152601f19601f820116905080830192505050505050508152602001868152602001600081526020016000151581526020018573ffffffffffffffffffffffffffffffffffffffff168152602001600081526020016000815260200184848080601f016020809104026020016040519081016040528093929190818152602001838380828437600081840152601f19601f82011690508083019250505050505050815250908060018154018082558091505060019003906000526020600020906007020160009091909190915060008201518160000190816129729190614c29565b50602082015181600101556040820151816002015560608201518160030160006101000a81548160ff02191690831515021790555060808201518160030160016101000a81548173ffffffffffffffffffffffffffffffffffffffff021916908373ffffffffffffffffffffffffffffffffffffffff16021790555060a0820151816004015560c0820151816005015560e0820151816006019081612a179190614c29565b5050507fbb4637bbc1f7f92783410fb90807fcced52c1562da987ac649876f09a750a5e36001600480549050612a4d9190614d2a565b87878787604051612a629594939291906152fb565b60405180910390a1505050505050565b60008054906101000a900473ffffffffffffffffffffffffffffffffffffffff1681565b60016020528060005260406000206000915090505481565b60028181548110612abe57600080fd5b906000526020600020016000915054906101000a900473ffffffffffffffffffffffffffffffffffffffff1681565b600081600160008573ffffffffffffffffffffffffffffffffffffffff1673ffffffffffffffffffffffffffffffffffffffff1681526020019081526020016000205414905092915050565b7f2447c43a6160806768d4c947ce727fb12b7f2700badae716947943ea245c25d6600160003373ffffffffffffffffffffffffffffffffffffffff1673ffffffffffffffffffffffffffffffffffffffff168152602001908152602001600020541480612c0457507f02016836a56b71f0d02689e69e326f4f4c1b9057164ef592671cf0d37c8040c0600160003373ffffffffffffffffffffffffffffffffffffffff1673ffffffffffffffffffffffffffffffffffffffff16815260200190815260200160002054145b612c43576040517f08c379a0000000000000000000000000000000000000000000000000000000008152600401612c3a9061481e565b60405180910390fd5b6004805490508210612c8a576040517f08c379a0000000000000000000000000000000000000000000000000000000008152600401612c819061488a565b60405180910390fd5b6003805490508110612cd1576040517f08c379a0000000000000000000000000000000000000000000000000000000008152600401612cc8906148f6565b60405180910390fd5b8060056000848152602001908152602001600020819055507f0affb2395dc21f9d896008d59590df1d6920ec092bf5f473413b8c5bfb6d48068282604051612d1a929190615349565b60405180910390a15050565b606080600060028054905067ffffffffffffffff811115612d4a57612d4961402c565b5b604051908082528060200260200182016040528015612d785781602001602082028036833780820191505090505b50905060005b600280549050811015612e35576001600060028381548110612da357612da2614982565b5b9060005260206000200160009054906101000a900473ffffffffffffffffffffffffffffffffffffffff1673ffffffffffffffffffffffffffffffffffffffff1673ffffffffffffffffffffffffffffffffffffffff16815260200190815260200160002054828281518110612e1c57612e1b614982565b5b6020026020010181815250508080600101915050612d7e565b5060028181805480602002602001604051908101604052809291908181526020018280548015612eba57602002820191906000526020600020905b8160009054906101000a900473ffffffffffffffffffffffffffffffffffffffff1673ffffffffffffffffffffffffffffffffffffffff1681526020019060010190808311612e70575b5050505050915092509250509091565b7f02016836a56b71f0d02689e69e326f4f4c1b9057164ef592671cf0d37c8040c081565b60606004805490508210612f37576040517f08c379a0000000000000000000000000000000000000000000000000000000008152600401612f2e9061488a565b60405180910390fd5b6000805b600780549050811015612f90578360078281548110612f5d57612f5c614982565b5b90600052602060002090600502016001015403612f83578180612f7f90615372565b9250505b8080600101915050612f3b565b5060008167ffffffffffffffff811115612fad57612fac61402c565b5b604051908082528060200260200182016040528015612fe657816020015b612fd3613573565b815260200190600190039081612fcb5790505b5090506000805b60078054905081101561314757856007828154811061300f5761300e614982565b5b9060005260206000209060050201600101540361313a576007818154811061303a57613039614982565b5b90600052602060002090600502016040518060a001604052908160008201548152602001600182015481526020016002820154815260200160038201805461308190614a4c565b80601f01602080910402602001604051908101604052809291908181526020018280546130ad90614a4c565b80156130fa5780601f106130cf576101008083540402835291602001916130fa565b820191906000526020600020905b8154815290600101906020018083116130dd57829003601f168201915b505050505081526020016004820154815250508383815181106131205761311f614982565b5b6020026020010181905250818061313690615372565b9250505b8080600101915050612fed565b50819350505050919050565b6060600480549050821061319c576040517f08c379a00000000000000000000000000000000000000000000000000000000081526004016131939061488a565b60405180910390fd5b60066000838152602001908152602001600020805480602002602001604051908101604052809291908181526020016000905b8282101561331157838290600052602060002090600602016040518060c00160405290816000820154815260200160018201805461320c90614a4c565b80601f016020809104026020016040519081016040528092919081815260200182805461323890614a4c565b80156132855780601f1061325a57610100808354040283529160200191613285565b820191906000526020600020905b81548152906001019060200180831161326857829003601f168201915b5050505050815260200160028201548152602001600382015481526020016004820160009054906101000a900473ffffffffffffffffffffffffffffffffffffffff1673ffffffffffffffffffffffffffffffffffffffff1673ffffffffffffffffffffffffffffffffffffffff168152602001600582015481525050815260200190600101906131cf565b505050509050919050565b7f2447c43a6160806768d4c947ce727fb12b7f2700badae716947943ea245c25d681565b6004805490508110613387576040517f08c379a000000000000000000000000000000000000000000000000000000000815260040161337e9061488a565b60405180910390fd5b600034116133ca576040517f08c379a00000000000000000000000000000000000000000000000000000000081526004016133c190615406565b60405180910390fd5b6000600482815481106133e0576133df614982565b5b90600052602060002090600702019050348160020160008282546134049190615426565b925050819055507f063d07ee72a7483b8e07ca09054bb686775c5c030f945dde3823a5257a0a93eb823460405161343c929190615349565b60405180910390a18060030160019054906101000a900473ffffffffffffffffffffffffffffffffffffffff1673ffffffffffffffffffffffffffffffffffffffff166108fc349081150290604051600060405180830381858888f193505050501580156134ae573d6000803e3d6000fd5b5060018160030160006101000a81548160ff0219169083151502179055507f2301e0a2ad8f6e28a7fbb09e96f5c14e588fac346ed5ce607e1a018bc7688646826040516134fb9190613bdd565b60405180910390a15050565b7fe73c0d9505516993d6e7f97506b8b4840bdda64c6bb2d31ca46d6395e2030e5b81565b6040518060a00160405280606081526020016060815260200160608152602001600073ffffffffffffffffffffffffffffffffffffffff168152602001600060ff1681525090565b6040518060a0016040528060008152602001600081526020016000815260200160608152602001600081525090565b6000604051905090565b600080fd5b600080fd5b6000819050919050565b6135c9816135b6565b81146135d457600080fd5b50565b6000813590506135e6816135c0565b92915050565b600080fd5b600080fd5b600080fd5b60008083601f840112613611576136106135ec565b5b8235905067ffffffffffffffff81111561362e5761362d6135f1565b5b60208301915083600182028301111561364a576136496135f6565b5b9250929050565b60008060008060006080868803121561366d5761366c6135ac565b5b600061367b888289016135d7565b955050602061368c888289016135d7565b945050604061369d888289016135d7565b935050606086013567ffffffffffffffff8111156136be576136bd6135b1565b5b6136ca888289016135fb565b92509250509295509295909350565b6000602082840312156136ef576136ee6135ac565b5b60006136fd848285016135d7565b91505092915050565b600081519050919050565b600082825260208201905092915050565b60005b83811015613740578082015181840152602081019050613725565b60008484015250505050565b6000601f19601f8301169050919050565b600061376882613706565b6137728185613711565b9350613782818560208601613722565b61378b8161374c565b840191505092915050565b61379f816135b6565b82525050565b60008115159050919050565b6137ba816137a5565b82525050565b600073ffffffffffffffffffffffffffffffffffffffff82169050919050565b60006137eb826137c0565b9050919050565b6137fb816137e0565b82525050565b600061010082019050818103600083015261381c818b61375d565b905061382b602083018a613796565b6138386040830189613796565b61384560608301886137b1565b61385260808301876137f2565b61385f60a0830186613796565b61386c60c0830185613796565b81810360e083015261387e818461375d565b90509998505050505050505050565b6000819050919050565b6138a08161388d565b82525050565b60006020820190506138bb6000830184613897565b92915050565b60006138cc826137c0565b9050919050565b6138dc816138c1565b81146138e757600080fd5b50565b6000813590506138f9816138d3565b92915050565b6139088161388d565b811461391357600080fd5b50565b600081359050613925816138ff565b92915050565b60008060408385031215613942576139416135ac565b5b6000613950858286016138ea565b925050602061396185828601613916565b9150509250929050565b600060ff82169050919050565b6139818161396b565b82525050565b600060a08201905081810360008301526139a1818861375d565b905081810360208301526139b5818761375d565b905081810360408301526139c9818661375d565b90506139d860608301856137f2565b6139e56080830184613978565b9695505050505050565b6139f8816137e0565b8114613a0357600080fd5b50565b600081359050613a15816139ef565b92915050565b60008060008060008060a08789031215613a3857613a376135ac565b5b6000613a4689828a016135d7565b965050602087013567ffffffffffffffff811115613a6757613a666135b1565b5b613a7389828a016135fb565b95509550506040613a8689828a016135d7565b9350506060613a9789828a016135d7565b9250506080613aa889828a01613a06565b9150509295509295509295565b600060208284031215613acb57613aca6135ac565b5b6000613ad9848285016138ea565b91505092915050565b60008060408385031215613af957613af86135ac565b5b6000613b07858286016135d7565b9250506020613b18858286016135d7565b9150509250929050565b600060c082019050613b376000830189613796565b8181036020830152613b49818861375d565b9050613b586040830187613796565b613b656060830186613796565b613b7260808301856137f2565b613b7f60a0830184613796565b979650505050505050565b600080600060608486031215613ba357613ba26135ac565b5b6000613bb1868287016135d7565b9350506020613bc2868287016135d7565b9250506040613bd3868287016135d7565b9150509250925092565b6000602082019050613bf26000830184613796565b92915050565b600081519050919050565b600082825260208201905092915050565b6000819050602082019050919050565b600082825260208201905092915050565b6000613c4082613706565b613c4a8185613c24565b9350613c5a818560208601613722565b613c638161374c565b840191505092915050565b613c77816137e0565b82525050565b613c868161396b565b82525050565b600060a0830160008301518482036000860152613ca98282613c35565b91505060208301518482036020860152613cc38282613c35565b91505060408301518482036040860152613cdd8282613c35565b9150506060830151613cf26060860182613c6e565b506080830151613d056080860182613c7d565b508091505092915050565b6000613d1c8383613c8c565b905092915050565b6000602082019050919050565b6000613d3c82613bf8565b613d468185613c03565b935083602082028501613d5885613c14565b8060005b85811015613d945784840389528151613d758582613d10565b9450613d8083613d24565b925060208a01995050600181019050613d5c565b50829750879550505050505092915050565b60006020820190508181036000830152613dc08184613d31565b905092915050565b600081519050919050565b600082825260208201905092915050565b6000819050602082019050919050565b613dfd816135b6565b82525050565b613e0c816137a5565b82525050565b6000610100830160008301518482036000860152613e308282613c35565b9150506020830151613e456020860182613df4565b506040830151613e586040860182613df4565b506060830151613e6b6060860182613e03565b506080830151613e7e6080860182613c6e565b5060a0830151613e9160a0860182613df4565b5060c0830151613ea460c0860182613df4565b5060e083015184820360e0860152613ebc8282613c35565b9150508091505092915050565b6000613ed58383613e12565b905092915050565b6000602082019050919050565b6000613ef582613dc8565b613eff8185613dd3565b935083602082028501613f1185613de4565b8060005b85811015613f4d5784840389528151613f2e8582613ec9565b9450613f3983613edd565b925060208a01995050600181019050613f15565b50829750879550505050505092915050565b60006020820190508181036000830152613f798184613eea565b905092915050565b600060a0830160008301518482036000860152613f9e8282613c35565b91505060208301518482036020860152613fb88282613c35565b91505060408301518482036040860152613fd28282613c35565b9150506060830151613fe76060860182613c6e565b506080830151613ffa6080860182613c7d565b508091505092915050565b6000602082019050818103600083015261401f8184613f81565b905092915050565b600080fd5b7f4e487b7100000000000000000000000000000000000000000000000000000000600052604160045260246000fd5b6140648261374c565b810181811067ffffffffffffffff821117156140835761408261402c565b5b80604052505050565b60006140966135a2565b90506140a2828261405b565b919050565b600067ffffffffffffffff8211156140c2576140c161402c565b5b6140cb8261374c565b9050602081019050919050565b82818337600083830152505050565b60006140fa6140f5846140a7565b61408c565b90508281526020810184848401111561411657614115614027565b5b6141218482856140d8565b509392505050565b600082601f83011261413e5761413d6135ec565b5b813561414e8482602086016140e7565b91505092915050565b60008060008060808587031215614171576141706135ac565b5b600085013567ffffffffffffffff81111561418f5761418e6135b1565b5b61419b87828801614129565b945050602085013567ffffffffffffffff8111156141bc576141bb6135b1565b5b6141c887828801614129565b935050604085013567ffffffffffffffff8111156141e9576141e86135b1565b5b6141f587828801614129565b925050606061420687828801613a06565b91505092959194509250565b600060a0820190506142276000830188613796565b6142346020830187613796565b6142416040830186613796565b8181036060830152614253818561375d565b90506142626080830184613796565b9695505050505050565b60008060008060008060808789031215614289576142886135ac565b5b600087013567ffffffffffffffff8111156142a7576142a66135b1565b5b6142b389828a016135fb565b965096505060206142c689828a016135d7565b94505060406142d789828a01613a06565b935050606087013567ffffffffffffffff8111156142f8576142f76135b1565b5b61430489828a016135fb565b92509250509295509295509295565b61431c816138c1565b82525050565b60006020820190506143376000830184614313565b92915050565b600060208201905061435260008301846137b1565b92915050565b600081519050919050565b600082825260208201905092915050565b6000819050602082019050919050565b61438d816138c1565b82525050565b600061439f8383614384565b60208301905092915050565b6000602082019050919050565b60006143c382614358565b6143cd8185614363565b93506143d883614374565b8060005b838110156144095781516143f08882614393565b97506143fb836143ab565b9250506001810190506143dc565b5085935050505092915050565b600081519050919050565b600082825260208201905092915050565b6000819050602082019050919050565b61444b8161388d565b82525050565b600061445d8383614442565b60208301905092915050565b6000602082019050919050565b600061448182614416565b61448b8185614421565b935061449683614432565b8060005b838110156144c75781516144ae8882614451565b97506144b983614469565b92505060018101905061449a565b5085935050505092915050565b600060408201905081810360008301526144ee81856143b8565b905081810360208301526145028184614476565b90509392505050565b600081519050919050565b600082825260208201905092915050565b6000819050602082019050919050565b600060a08301600083015161454f6000860182613df4565b5060208301516145626020860182613df4565b5060408301516145756040860182613df4565b506060830151848203606086015261458d8282613c35565b91505060808301516145a26080860182613df4565b508091505092915050565b60006145b98383614537565b905092915050565b6000602082019050919050565b60006145d98261450b565b6145e38185614516565b9350836020820285016145f585614527565b8060005b85811015614631578484038952815161461285826145ad565b945061461d836145c1565b925060208a019950506001810190506145f9565b50829750879550505050505092915050565b6000602082019050818103600083015261465d81846145ce565b905092915050565b600081519050919050565b600082825260208201905092915050565b6000819050602082019050919050565b600060c0830160008301516146a96000860182613df4565b50602083015184820360208601526146c18282613c35565b91505060408301516146d66040860182613df4565b5060608301516146e96060860182613df4565b5060808301516146fc6080860182613c6e565b5060a083015161470f60a0860182613df4565b508091505092915050565b60006147268383614691565b905092915050565b6000602082019050919050565b600061474682614665565b6147508185614670565b93508360208202850161476285614681565b8060005b8581101561479e578484038952815161477f858261471a565b945061478a8361472e565b925060208a01995050600181019050614766565b50829750879550505050505092915050565b600060208201905081810360008301526147ca818461473b565b905092915050565b7f4e6f7420617574686f72697a6564000000000000000000000000000000000000600082015250565b6000614808600e83613711565b9150614813826147d2565b602082019050919050565b60006020820190508181036000830152614837816147fb565b9050919050565b7f50726f6a65637420646f6573206e6f7420657869737400000000000000000000600082015250565b6000614874601683613711565b915061487f8261483e565b602082019050919050565b600060208201905081810360008301526148a381614867565b9050919050565b7f436f6e74726163746f7220646f6573206e6f7420657869737400000000000000600082015250565b60006148e0601983613711565b91506148eb826148aa565b602082019050919050565b6000602082019050818103600083015261490f816148d3565b9050919050565b7f416d6f756e74206d7573742062652067726561746572207468616e207a65726f600082015250565b600061494c602083613711565b915061495782614916565b602082019050919050565b6000602082019050818103600083015261497b8161493f565b9050919050565b7f4e487b7100000000000000000000000000000000000000000000000000000000600052603260045260246000fd5b7f496e73756666696369656e742066756e64730000000000000000000000000000600082015250565b60006149e7601283613711565b91506149f2826149b1565b602082019050919050565b60006020820190508181036000830152614a16816149da565b9050919050565b7f4e487b7100000000000000000000000000000000000000000000000000000000600052602260045260246000fd5b60006002820490506001821680614a6457607f821691505b602082108103614a7757614a76614a1d565b5b50919050565b60008190508160005260206000209050919050565b60006020601f8301049050919050565b600082821b905092915050565b600060088302614adf7fffffffffffffffffffffffffffffffffffffffffffffffffffffffffffffffff82614aa2565b614ae98683614aa2565b95508019841693508086168417925050509392505050565b6000819050919050565b6000614b26614b21614b1c846135b6565b614b01565b6135b6565b9050919050565b6000819050919050565b614b4083614b0b565b614b54614b4c82614b2d565b848454614aaf565b825550505050565b600090565b614b69614b5c565b614b74818484614b37565b505050565b5b81811015614b9857614b8d600082614b61565b600181019050614b7a565b5050565b601f821115614bdd57614bae81614a7d565b614bb784614a92565b81016020851015614bc6578190505b614bda614bd285614a92565b830182614b79565b50505b505050565b600082821c905092915050565b6000614c0060001984600802614be2565b1980831691505092915050565b6000614c198383614bef565b9150826002028217905092915050565b614c3282613706565b67ffffffffffffffff811115614c4b57614c4a61402c565b5b614c558254614a4c565b614c60828285614b9c565b600060209050601f831160018114614c935760008415614c81578287015190505b614c8b8582614c0d565b865550614cf3565b601f198416614ca186614a7d565b60005b82811015614cc957848901518255600182019150602085019450602081019050614ca4565b86831015614ce65784890151614ce2601f891682614bef565b8355505b6001600288020188555050505b505050505050565b7f4e487b7100000000000000000000000000000000000000000000000000000000600052601160045260246000fd5b6000614d35826135b6565b9150614d40836135b6565b9250828203905081811115614d5857614d57614cfb565b5b92915050565b6000614d6a8385613711565b9350614d778385846140d8565b614d808361374c565b840190509392505050565b600060a082019050614da06000830189613796565b614dad6020830188613796565b614dba6040830187613796565b614dc76060830186613796565b8181036080830152614dda818486614d5e565b9050979650505050505050565b7f4e6f7420617574686f72697a65643a204f6e6c79206f776e6572000000000000600082015250565b6000614e1d601a83613711565b9150614e2882614de7565b602082019050919050565b60006020820190508181036000830152614e4c81614e10565b9050919050565b7f496e76616c696420616464726573730000000000000000000000000000000000600082015250565b6000614e89600f83613711565b9150614e9482614e53565b602082019050919050565b60006020820190508181036000830152614eb881614e7c565b9050919050565b7f496e76616c696420616d6f756e74000000000000000000000000000000000000600082015250565b6000614ef5600e83613711565b9150614f0082614ebf565b602082019050919050565b60006020820190508181036000830152614f2481614ee8565b9050919050565b7f496e76616c6964206974656d207175616e746974790000000000000000000000600082015250565b6000614f61601583613711565b9150614f6c82614f2b565b602082019050919050565b60006020820190508181036000830152614f9081614f54565b9050919050565b7f496e76616c69642077616c6c6574206164647265737300000000000000000000600082015250565b6000614fcd601683613711565b9150614fd882614f97565b602082019050919050565b60006020820190508181036000830152614ffc81614fc0565b9050919050565b7f556e617574686f72697a65640000000000000000000000000000000000000000600082015250565b6000615039600c83613711565b915061504482615003565b602082019050919050565b600060208201905081810360008301526150688161502c565b9050919050565b60006060820190506150846000830187613796565b8181036020830152615097818587614d5e565b90506150a66040830184613796565b95945050505050565b7f53746172742064617465206d757374206265206265666f726520656e6420646160008201527f7465000000000000000000000000000000000000000000000000000000000000602082015250565b600061510b602283613711565b9150615116826150af565b604082019050919050565b6000602082019050818103600083015261513a816150fe565b9050919050565b60006060820190506151566000830186613796565b6151636020830185613796565b6151706040830184613796565b949350505050565b7f4e6f20636f6e74726163746f722061737369676e656420746f2074686973207060008201527f726f6a6563740000000000000000000000000000000000000000000000000000602082015250565b60006151d4602683613711565b91506151df82615178565b604082019050919050565b60006020820190508181036000830152615203816151c7565b9050919050565b600060408201905061521f6000830185613796565b8181036020830152615231818461375d565b90509392505050565b7f496e76616c696420676f7665726e6d656e742061646472657373000000000000600082015250565b6000615270601a83613711565b915061527b8261523a565b602082019050919050565b6000602082019050818103600083015261529f81615263565b9050919050565b60006152c16152bc6152b7846137c0565b614b01565b6137c0565b9050919050565b60006152d3826152a6565b9050919050565b60006152e5826152c8565b9050919050565b6152f5816152da565b82525050565b60006080820190506153106000830188613796565b8181036020830152615323818688614d5e565b90506153326040830185613796565b61533f60608301846152ec565b9695505050505050565b600060408201905061535e6000830185613796565b61536b6020830184613796565b9392505050565b600061537d826135b6565b91507fffffffffffffffffffffffffffffffffffffffffffffffffffffffffffffffff82036153af576153ae614cfb565b5b600182019050919050565b7f4d7573742073656e6420736f6d65206574686572000000000000000000000000600082015250565b60006153f0601483613711565b91506153fb826153ba565b602082019050919050565b6000602082019050818103600083015261541f816153e3565b9050919050565b6000615431826135b6565b915061543c836135b6565b925082820190508082111561545457615453614cfb565b5b9291505056fea2646970667358221220738527c2d9e61a5a4012dd7052c289eee4ecbebe308ca568b5be65f84b3da81064736f6c634300081b0033",
  "linkReferences": {},
  "deployedLinkReferences": {}
}