{
  "_format": "hh-sol-artifact-1",
  "contractName": "FundsTracker",
  "sourceName": "contracts/FundsTracker.sol",
  "abi": [
    {
      "inputs": [],
      "stateMutability": "nonpayable",
      "type": "constructor"
    },
    {
      "anonymous": false,
      "inputs": [
        {
          "indexed": false,
          "internalType": "uint256",
          "name": "projectId",
          "type": "uint256"
        },
        {
          "indexed": false,
          "internalType": "uint256",
          "name": "contractorId",
          "type": "uint256"
        }
      ],
      "name": "ContractorAssigned",
      "type": "event"
    },
    {
      "anonymous": false,
      "inputs": [
        {
          "indexed": false,
          "internalType": "uint256",
          "name": "contractorId",
          "type": "uint256"
        },
        {
          "indexed": false,
          "internalType": "string",
          "name": "name",
          "type": "string"
        }
      ],
      "name": "ContractorCreated",
      "type": "event"
    },
    {
      "anonymous": false,
      "inputs": [
        {
          "indexed": false,
          "internalType": "uint256",
          "name": "projectId",
          "type": "uint256"
        },
        {
          "indexed": false,
          "internalType": "string",
          "name": "description",
          "type": "string"
        },
        {
          "indexed": false,
          "internalType": "uint256",
          "name": "amount",
          "type": "uint256"
        }
      ],
      "name": "ExpenseLogged",
      "type": "event"
    },
    {
      "anonymous": false,
      "inputs": [
        {
          "indexed": false,
          "internalType": "uint256",
          "name": "projectId",
          "type": "uint256"
        },
        {
          "indexed": false,
          "internalType": "uint256",
          "name": "amount",
          "type": "uint256"
        }
      ],
      "name": "FundsReceived",
      "type": "event"
    },
    {
      "anonymous": false,
      "inputs": [
        {
          "indexed": false,
          "internalType": "uint256",
          "name": "projectId",
          "type": "uint256"
        },
        {
          "indexed": false,
          "internalType": "string",
          "name": "name",
          "type": "string"
        },
        {
          "indexed": false,
          "internalType": "uint256",
          "name": "budget",
          "type": "uint256"
        },
        {
          "indexed": false,
          "internalType": "address",
          "name": "government",
          "type": "address"
        }
      ],
      "name": "ProjectCreated",
      "type": "event"
    },
    {
      "anonymous": false,
      "inputs": [
        {
          "indexed": false,
          "internalType": "uint256",
          "name": "projectId",
          "type": "uint256"
        },
        {
          "indexed": false,
          "internalType": "uint256",
          "name": "startDate",
          "type": "uint256"
        },
        {
          "indexed": false,
          "internalType": "uint256",
          "name": "endDate",
          "type": "uint256"
        }
      ],
      "name": "ProjectDatesSet",
      "type": "event"
    },
    {
      "anonymous": false,
      "inputs": [
        {
          "indexed": false,
          "internalType": "uint256",
          "name": "projectId",
          "type": "uint256"
        }
      ],
      "name": "ProjectFunded",
      "type": "event"
    },
    {
      "anonymous": false,
      "inputs": [
        {
          "indexed": true,
          "internalType": "address",
          "name": "user",
          "type": "address"
        },
        {
          "indexed": false,
          "internalType": "bytes32",
          "name": "role",
          "type": "bytes32"
        }
      ],
      "name": "RoleAssigned",
      "type": "event"
    },
    {
      "anonymous": false,
      "inputs": [
        {
          "indexed": true,
          "internalType": "address",
          "name": "user",
          "type": "address"
        },
        {
          "indexed": false,
          "internalType": "bytes32",
          "name": "role",
          "type": "bytes32"
        }
      ],
      "name": "RoleRevoked",
      "type": "event"
    },
    {
      "anonymous": false,
      "inputs": [
        {
          "indexed": true,
          "internalType": "address",
          "name": "user",
          "type": "address"
        }
      ],
      "name": "UserAdded",
      "type": "event"
    },
    {
      "inputs": [],
      "name": "CONTRACTOR_ROLE",
      "outputs": [
        {
          "internalType": "bytes32",
          "name": "",
          "type": "bytes32"
        }
      ],
      "stateMutability": "view",
      "type": "function"
    },
    {
      "inputs": [],
      "name": "MANAGER_ROLE",
      "outputs": [
        {
          "internalType": "bytes32",
          "name": "",
          "type": "bytes32"
        }
      ],
      "stateMutability": "view",
      "type": "function"
    },
    {
      "inputs": [],
      "name": "OWNER_ROLE",
      "outputs": [
        {
          "internalType": "bytes32",
          "name": "",
          "type": "bytes32"
        }
      ],
      "stateMutability": "view",
      "type": "function"
    },
    {
      "inputs": [],
      "name": "USER_ROLE",
      "outputs": [
        {
          "internalType": "bytes32",
          "name": "",
          "type": "bytes32"
        }
      ],
      "stateMutability": "view",
      "type": "function"
    },
    {
      "inputs": [
        {
          "internalType": "address",
          "name": "user",
          "type": "address"
        }
      ],
      "name": "addUser",
      "outputs": [],
      "stateMutability": "nonpayable",
      "type": "function"
    },
    {
      "inputs": [
        {
          "internalType": "uint256",
          "name": "projectId",
          "type": "uint256"
        },
        {
          "internalType": "uint256",
          "name": "contractorId",
          "type": "uint256"
        }
      ],
      "name": "assignContractor",
      "outputs": [],
      "stateMutability": "nonpayable",
      "type": "function"
    },
    {
      "inputs": [
        {
          "internalType": "address",
          "name": "user",
          "type": "address"
        },
        {
          "internalType": "bytes32",
          "name": "role",
          "type": "bytes32"
        }
      ],
      "name": "assignRole",
      "outputs": [],
      "stateMutability": "nonpayable",
      "type": "function"
    },
    {
      "inputs": [
        {
          "internalType": "uint256",
          "name": "",
          "type": "uint256"
        }
      ],
      "name": "contractors",
      "outputs": [
        {
          "internalType": "uint256",
          "name": "id",
          "type": "uint256"
        },
        {
          "internalType": "string",
          "name": "name",
          "type": "string"
        }
      ],
      "stateMutability": "view",
      "type": "function"
    },
    {
      "inputs": [
        {
          "internalType": "string",
          "name": "name",
          "type": "string"
        }
      ],
      "name": "createContractor",
      "outputs": [],
      "stateMutability": "nonpayable",
      "type": "function"
    },
    {
      "inputs": [
        {
          "internalType": "string",
          "name": "name",
          "type": "string"
        },
        {
          "internalType": "uint256",
          "name": "budget",
          "type": "uint256"
        },
        {
          "internalType": "address payable",
          "name": "government",
          "type": "address"
        },
        {
          "internalType": "string",
          "name": "description",
          "type": "string"
        }
      ],
      "name": "createProject",
      "outputs": [],
      "stateMutability": "nonpayable",
      "type": "function"
    },
    {
      "inputs": [
        {
          "internalType": "uint256",
          "name": "projectId",
          "type": "uint256"
        }
      ],
      "name": "donate",
      "outputs": [],
      "stateMutability": "payable",
      "type": "function"
    },
    {
      "inputs": [
        {
          "internalType": "uint256",
          "name": "contractorId",
          "type": "uint256"
        }
      ],
      "name": "getContractor",
      "outputs": [
        {
          "components": [
            {
              "internalType": "uint256",
              "name": "id",
              "type": "uint256"
            },
            {
              "internalType": "string",
              "name": "name",
              "type": "string"
            }
          ],
          "internalType": "struct FundsTracker.Contractor",
          "name": "",
          "type": "tuple"
        }
      ],
      "stateMutability": "view",
      "type": "function"
    },
    {
      "inputs": [],
      "name": "getContractorCount",
      "outputs": [
        {
          "internalType": "uint256",
          "name": "",
          "type": "uint256"
        }
      ],
      "stateMutability": "view",
      "type": "function"
    },
    {
      "inputs": [
        {
          "internalType": "uint256",
          "name": "projectId",
          "type": "uint256"
        }
      ],
      "name": "getProject",
      "outputs": [
        {
          "components": [
            {
              "internalType": "string",
              "name": "name",
              "type": "string"
            },
            {
              "internalType": "uint256",
              "name": "budget",
              "type": "uint256"
            },
            {
              "internalType": "uint256",
              "name": "amountReceived",
              "type": "uint256"
            },
            {
              "internalType": "bool",
              "name": "funded",
              "type": "bool"
            },
            {
              "internalType": "address payable",
              "name": "government",
              "type": "address"
            },
            {
              "internalType": "uint256",
              "name": "startDate",
              "type": "uint256"
            },
            {
              "internalType": "uint256",
              "name": "endDate",
              "type": "uint256"
            },
            {
              "internalType": "string",
              "name": "description",
              "type": "string"
            }
          ],
          "internalType": "struct FundsTracker.Project",
          "name": "",
          "type": "tuple"
        }
      ],
      "stateMutability": "view",
      "type": "function"
    },
    {
      "inputs": [],
      "name": "getProjectCount",
      "outputs": [
        {
          "internalType": "uint256",
          "name": "",
          "type": "uint256"
        }
      ],
      "stateMutability": "view",
      "type": "function"
    },
    {
      "inputs": [
        {
          "internalType": "uint256",
          "name": "projectId",
          "type": "uint256"
        }
      ],
      "name": "getProjectExpenses",
      "outputs": [
        {
          "components": [
            {
              "internalType": "uint256",
              "name": "projectId",
              "type": "uint256"
            },
            {
              "internalType": "string",
              "name": "description",
              "type": "string"
            },
            {
              "internalType": "uint256",
              "name": "amount",
              "type": "uint256"
            },
            {
              "internalType": "uint256",
              "name": "timestamp",
              "type": "uint256"
            }
          ],
          "internalType": "struct FundsTracker.Expense[]",
          "name": "",
          "type": "tuple[]"
        }
      ],
      "stateMutability": "view",
      "type": "function"
    },
    {
      "inputs": [
        {
          "internalType": "address",
          "name": "user",
          "type": "address"
        },
        {
          "internalType": "bytes32",
          "name": "role",
          "type": "bytes32"
        }
      ],
      "name": "hasRole",
      "outputs": [
        {
          "internalType": "bool",
          "name": "",
          "type": "bool"
        }
      ],
      "stateMutability": "view",
      "type": "function"
    },
    {
      "inputs": [
        {
          "internalType": "uint256",
          "name": "projectId",
          "type": "uint256"
        },
        {
          "internalType": "string",
          "name": "description",
          "type": "string"
        },
        {
          "internalType": "uint256",
          "name": "amount",
          "type": "uint256"
        }
      ],
      "name": "logExpense",
      "outputs": [],
      "stateMutability": "nonpayable",
      "type": "function"
    },
    {
      "inputs": [],
      "name": "owner",
      "outputs": [
        {
          "internalType": "address",
          "name": "",
          "type": "address"
        }
      ],
      "stateMutability": "view",
      "type": "function"
    },
    {
      "inputs": [
        {
          "internalType": "uint256",
          "name": "",
          "type": "uint256"
        }
      ],
      "name": "projectContractors",
      "outputs": [
        {
          "internalType": "uint256",
          "name": "",
          "type": "uint256"
        }
      ],
      "stateMutability": "view",
      "type": "function"
    },
    {
      "inputs": [
        {
          "internalType": "uint256",
          "name": "",
          "type": "uint256"
        },
        {
          "internalType": "uint256",
          "name": "",
          "type": "uint256"
        }
      ],
      "name": "projectExpenses",
      "outputs": [
        {
          "internalType": "uint256",
          "name": "projectId",
          "type": "uint256"
        },
        {
          "internalType": "string",
          "name": "description",
          "type": "string"
        },
        {
          "internalType": "uint256",
          "name": "amount",
          "type": "uint256"
        },
        {
          "internalType": "uint256",
          "name": "timestamp",
          "type": "uint256"
        }
      ],
      "stateMutability": "view",
      "type": "function"
    },
    {
      "inputs": [
        {
          "internalType": "uint256",
          "name": "",
          "type": "uint256"
        }
      ],
      "name": "projects",
      "outputs": [
        {
          "internalType": "string",
          "name": "name",
          "type": "string"
        },
        {
          "internalType": "uint256",
          "name": "budget",
          "type": "uint256"
        },
        {
          "internalType": "uint256",
          "name": "amountReceived",
          "type": "uint256"
        },
        {
          "internalType": "bool",
          "name": "funded",
          "type": "bool"
        },
        {
          "internalType": "address payable",
          "name": "government",
          "type": "address"
        },
        {
          "internalType": "uint256",
          "name": "startDate",
          "type": "uint256"
        },
        {
          "internalType": "uint256",
          "name": "endDate",
          "type": "uint256"
        },
        {
          "internalType": "string",
          "name": "description",
          "type": "string"
        }
      ],
      "stateMutability": "view",
      "type": "function"
    },
    {
      "inputs": [
        {
          "internalType": "address",
          "name": "user",
          "type": "address"
        }
      ],
      "name": "revokeRole",
      "outputs": [],
      "stateMutability": "nonpayable",
      "type": "function"
    },
    {
      "inputs": [
        {
          "internalType": "address",
          "name": "",
          "type": "address"
        }
      ],
      "name": "roles",
      "outputs": [
        {
          "internalType": "bytes32",
          "name": "",
          "type": "bytes32"
        }
      ],
      "stateMutability": "view",
      "type": "function"
    },
    {
      "inputs": [
        {
          "internalType": "uint256",
          "name": "projectId",
          "type": "uint256"
        },
        {
          "internalType": "uint256",
          "name": "startDate",
          "type": "uint256"
        },
        {
          "internalType": "uint256",
          "name": "endDate",
          "type": "uint256"
        }
      ],
      "name": "setProjectDates",
      "outputs": [],
      "stateMutability": "nonpayable",
      "type": "function"
    }
  ],
  "bytecode": "0x6080604052348015600f57600080fd5b50336000806101000a81548173ffffffffffffffffffffffffffffffffffffffff021916908373ffffffffffffffffffffffffffffffffffffffff1602179055507f02016836a56b71f0d02689e69e326f4f4c1b9057164ef592671cf0d37c8040c0600160008060009054906101000a900473ffffffffffffffffffffffffffffffffffffffff1673ffffffffffffffffffffffffffffffffffffffff1673ffffffffffffffffffffffffffffffffffffffff168152602001908152602001600020819055506135c0806100e46000396000f3fe6080604052600436106101665760003560e01c806380e52e3f116100d1578063db8192bc1161008a578063ec87621c11610064578063ec87621c1461057d578063f0f3f2c8146105a8578063f14faf6f146105e5578063f88e32041461060157610166565b8063db8192bc146104ea578063df02353e14610527578063e58378bb1461055257610166565b806380e52e3f146103ca5780638c28205a146103f35780638da5cb5b1461041c5780639937464214610447578063ac4ab3fb14610484578063b62cbae9146104c157610166565b8063421b2d8b11610123578063421b2d8b146102955780634ba8872c146102be5780634bd421be146102fb5780634c3c0db01461033b578063674408681461036457806380a0b5bc146103a157610166565b8063107046bd1461016b57806313119161146101af5780631d9486de146101da57806332c6b3af146102035780633481a95a1461022c5780633bcff3b01461026a575b600080fd5b34801561017757600080fd5b50610192600480360381019061018d9190612187565b61062c565b6040516101a69897969594939291906122af565b60405180910390f35b3480156101bb57600080fd5b506101c46107c1565b6040516101d19190612354565b60405180910390f35b3480156101e657600080fd5b5061020160048036038101906101fc91906123d9565b6107e5565b005b34801561020f57600080fd5b5061022a6004803603810190610225919061247e565b610978565b005b34801561023857600080fd5b50610253600480360381019061024e9190612187565b610bbf565b6040516102619291906124f2565b60405180910390f35b34801561027657600080fd5b5061027f610c7b565b60405161028c9190612522565b60405180910390f35b3480156102a157600080fd5b506102bc60048036038101906102b7919061253d565b610c88565b005b3480156102ca57600080fd5b506102e560048036038101906102e09190612187565b610e2f565b6040516102f29190612600565b60405180910390f35b34801561030757600080fd5b50610322600480360381019061031d9190612622565b610f4e565b6040516103329493929190612662565b60405180910390f35b34801561034757600080fd5b50610362600480360381019061035d91906126ae565b611023565b005b34801561037057600080fd5b5061038b60048036038101906103869190612187565b6111c0565b6040516103989190612522565b60405180910390f35b3480156103ad57600080fd5b506103c860048036038101906103c39190612701565b6111d8565b005b3480156103d657600080fd5b506103f160048036038101906103ec919061253d565b61136b565b005b3480156103ff57600080fd5b5061041a6004803603810190610415919061277a565b611541565b005b34801561042857600080fd5b506104316118d8565b60405161043e9190612830565b60405180910390f35b34801561045357600080fd5b5061046e6004803603810190610469919061253d565b6118fc565b60405161047b9190612354565b60405180910390f35b34801561049057600080fd5b506104ab60048036038101906104a691906123d9565b611914565b6040516104b8919061284b565b60405180910390f35b3480156104cd57600080fd5b506104e860048036038101906104e39190612622565b611960565b005b3480156104f657600080fd5b50610511600480360381019061050c9190612187565b611ae6565b60405161051e919061298b565b60405180910390f35b34801561053357600080fd5b5061053c611c4f565b6040516105499190612522565b60405180910390f35b34801561055e57600080fd5b50610567611c5c565b6040516105749190612354565b60405180910390f35b34801561058957600080fd5b50610592611c80565b60405161059f9190612354565b60405180910390f35b3480156105b457600080fd5b506105cf60048036038101906105ca9190612187565b611ca4565b6040516105dc9190612a82565b60405180910390f35b6105ff60048036038101906105fa9190612187565b611ee5565b005b34801561060d57600080fd5b506106166120ac565b6040516106239190612354565b60405180910390f35b6002818154811061063c57600080fd5b906000526020600020906007020160009150905080600001805461065f90612ad3565b80601f016020809104026020016040519081016040528092919081815260200182805461068b90612ad3565b80156106d85780601f106106ad576101008083540402835291602001916106d8565b820191906000526020600020905b8154815290600101906020018083116106bb57829003601f168201915b5050505050908060010154908060020154908060030160009054906101000a900460ff16908060030160019054906101000a900473ffffffffffffffffffffffffffffffffffffffff169080600401549080600501549080600601805461073e90612ad3565b80601f016020809104026020016040519081016040528092919081815260200182805461076a90612ad3565b80156107b75780601f1061078c576101008083540402835291602001916107b7565b820191906000526020600020905b81548152906001019060200180831161079a57829003601f168201915b5050505050905088565b7fcb61ad33d3763aed2bc16c0f57ff251ac638d3d03ab7550adfd3e166c2e7adb681565b60008054906101000a900473ffffffffffffffffffffffffffffffffffffffff1673ffffffffffffffffffffffffffffffffffffffff163373ffffffffffffffffffffffffffffffffffffffff1614610873576040517f08c379a000000000000000000000000000000000000000000000000000000000815260040161086a90612b76565b60405180910390fd5b600073ffffffffffffffffffffffffffffffffffffffff168273ffffffffffffffffffffffffffffffffffffffff16036108e2576040517f08c379a00000000000000000000000000000000000000000000000000000000081526004016108d990612be2565b60405180910390fd5b80600160008473ffffffffffffffffffffffffffffffffffffffff1673ffffffffffffffffffffffffffffffffffffffff168152602001908152602001600020819055508173ffffffffffffffffffffffffffffffffffffffff167f0666448aae9b9c8249fd8213a35a9c10218a0eac2fb39b96ed90c67214c7e7618260405161096c9190612354565b60405180910390a25050565b7f2447c43a6160806768d4c947ce727fb12b7f2700badae716947943ea245c25d680600160003373ffffffffffffffffffffffffffffffffffffffff1673ffffffffffffffffffffffffffffffffffffffff1681526020019081526020016000205414610a1a576040517f08c379a0000000000000000000000000000000000000000000000000000000008152600401610a1190612c74565b60405180910390fd5b6002805490508510610a61576040517f08c379a0000000000000000000000000000000000000000000000000000000008152600401610a5890612ce0565b60405180910390fd5b60008211610aa4576040517f08c379a0000000000000000000000000000000000000000000000000000000008152600401610a9b90612d4c565b60405180910390fd5b60056000868152602001908152602001600020604051806080016040528087815260200186868080601f016020809104026020016040519081016040528093929190818152602001838380828437600081840152601f19601f820116905080830192505050505050508152602001848152602001428152509080600181540180825580915050600190039060005260206000209060040201600090919091909150600082015181600001556020820151816001019081610b649190612f47565b50604082015181600201556060820151816003015550507fee9ce74e1c4c69a088b563acec4eb6585b77220c8bdef0c41b4c734102b73ebc85858585604051610bb09493929190613055565b60405180910390a15050505050565b60038181548110610bcf57600080fd5b9060005260206000209060020201600091509050806000015490806001018054610bf890612ad3565b80601f0160208091040260200160405190810160405280929190818152602001828054610c2490612ad3565b8015610c715780601f10610c4657610100808354040283529160200191610c71565b820191906000526020600020905b815481529060010190602001808311610c5457829003601f168201915b5050505050905082565b6000600280549050905090565b60008054906101000a900473ffffffffffffffffffffffffffffffffffffffff1673ffffffffffffffffffffffffffffffffffffffff163373ffffffffffffffffffffffffffffffffffffffff1614610d16576040517f08c379a0000000000000000000000000000000000000000000000000000000008152600401610d0d90612b76565b60405180910390fd5b600073ffffffffffffffffffffffffffffffffffffffff168173ffffffffffffffffffffffffffffffffffffffff1603610d85576040517f08c379a0000000000000000000000000000000000000000000000000000000008152600401610d7c90612be2565b60405180910390fd5b7fcb61ad33d3763aed2bc16c0f57ff251ac638d3d03ab7550adfd3e166c2e7adb6600160008373ffffffffffffffffffffffffffffffffffffffff1673ffffffffffffffffffffffffffffffffffffffff168152602001908152602001600020819055508073ffffffffffffffffffffffffffffffffffffffff167f19ef9a4877199f89440a26acb26895ec02ed86f2df1aeaa90dc18041b892f71f60405160405180910390a250565b610e376120d0565b6003805490508210610e7e576040517f08c379a0000000000000000000000000000000000000000000000000000000008152600401610e75906130e1565b60405180910390fd5b60038281548110610e9257610e91613101565b5b906000526020600020906002020160405180604001604052908160008201548152602001600182018054610ec590612ad3565b80601f0160208091040260200160405190810160405280929190818152602001828054610ef190612ad3565b8015610f3e5780601f10610f1357610100808354040283529160200191610f3e565b820191906000526020600020905b815481529060010190602001808311610f2157829003601f168201915b5050505050815250509050919050565b60056020528160005260406000208181548110610f6a57600080fd5b906000526020600020906004020160009150915050806000015490806001018054610f9490612ad3565b80601f0160208091040260200160405190810160405280929190818152602001828054610fc090612ad3565b801561100d5780601f10610fe25761010080835404028352916020019161100d565b820191906000526020600020905b815481529060010190602001808311610ff057829003601f168201915b5050505050908060020154908060030154905084565b600280549050831061106a576040517f08c379a000000000000000000000000000000000000000000000000000000000815260040161106190612ce0565b60405180910390fd5b600060046000858152602001908152602001600020549050806003828154811061109757611096613101565b5b906000526020600020906002020160000154146110e9576040517f08c379a00000000000000000000000000000000000000000000000000000000081526004016110e0906131a2565b60405180910390fd5b81831061112b576040517f08c379a000000000000000000000000000000000000000000000000000000000815260040161112290613234565b60405180910390fd5b82600285815481106111405761113f613101565b5b906000526020600020906007020160040181905550816002858154811061116a57611169613101565b5b9060005260206000209060070201600501819055507f15d227cec4b642f6fa0f2b593ece8ae6a8bc9c6e207fd97ccfea737abbfcf1108484846040516111b293929190613254565b60405180910390a150505050565b60046020528060005260406000206000915090505481565b7f2447c43a6160806768d4c947ce727fb12b7f2700badae716947943ea245c25d680600160003373ffffffffffffffffffffffffffffffffffffffff1673ffffffffffffffffffffffffffffffffffffffff168152602001908152602001600020541461127a576040517f08c379a000000000000000000000000000000000000000000000000000000000815260040161127190612c74565b60405180910390fd5b600060038054905090506003604051806040016040528083815260200186868080601f016020809104026020016040519081016040528093929190818152602001838380828437600081840152601f19601f8201169050808301925050505050505081525090806001815401808255809150506001900390600052602060002090600202016000909190919091506000820151816000015560208201518160010190816113279190612f47565b5050507fae35c51576253c2c107585feea6f1fea0d60fe8d1bcb9300241011b3bc06b02981858560405161135d9392919061328b565b60405180910390a150505050565b60008054906101000a900473ffffffffffffffffffffffffffffffffffffffff1673ffffffffffffffffffffffffffffffffffffffff163373ffffffffffffffffffffffffffffffffffffffff16146113f9576040517f08c379a00000000000000000000000000000000000000000000000000000000081526004016113f090612b76565b60405180910390fd5b600073ffffffffffffffffffffffffffffffffffffffff168173ffffffffffffffffffffffffffffffffffffffff1603611468576040517f08c379a000000000000000000000000000000000000000000000000000000000815260040161145f90612be2565b60405180910390fd5b6000600160008373ffffffffffffffffffffffffffffffffffffffff1673ffffffffffffffffffffffffffffffffffffffff168152602001908152602001600020549050600160008373ffffffffffffffffffffffffffffffffffffffff1673ffffffffffffffffffffffffffffffffffffffff168152602001908152602001600020600090558173ffffffffffffffffffffffffffffffffffffffff167fea83a7caef01824e96446a8c4bc8ff4669edd99e129b53e32c077f85d2168081826040516115359190612354565b60405180910390a25050565b7f2447c43a6160806768d4c947ce727fb12b7f2700badae716947943ea245c25d6600160003373ffffffffffffffffffffffffffffffffffffffff1673ffffffffffffffffffffffffffffffffffffffff16815260200190815260200160002054148061160c57507f02016836a56b71f0d02689e69e326f4f4c1b9057164ef592671cf0d37c8040c0600160003373ffffffffffffffffffffffffffffffffffffffff1673ffffffffffffffffffffffffffffffffffffffff16815260200190815260200160002054145b61164b576040517f08c379a00000000000000000000000000000000000000000000000000000000081526004016116429061332f565b60405180910390fd5b600073ffffffffffffffffffffffffffffffffffffffff168373ffffffffffffffffffffffffffffffffffffffff16036116ba576040517f08c379a00000000000000000000000000000000000000000000000000000000081526004016116b19061339b565b60405180910390fd5b600260405180610100016040528088888080601f016020809104026020016040519081016040528093929190818152602001838380828437600081840152601f19601f820116905080830192505050505050508152602001868152602001600081526020016000151581526020018573ffffffffffffffffffffffffffffffffffffffff168152602001600081526020016000815260200184848080601f016020809104026020016040519081016040528093929190818152602001838380828437600081840152601f19601f82011690508083019250505050505050815250908060018154018082558091505060019003906000526020600020906007020160009091909190915060008201518160000190816117d89190612f47565b50602082015181600101556040820151816002015560608201518160030160006101000a81548160ff02191690831515021790555060808201518160030160016101000a81548173ffffffffffffffffffffffffffffffffffffffff021916908373ffffffffffffffffffffffffffffffffffffffff16021790555060a0820151816004015560c0820151816005015560e082015181600601908161187d9190612f47565b5050507fbb4637bbc1f7f92783410fb90807fcced52c1562da987ac649876f09a750a5e360016002805490506118b391906133ea565b878787876040516118c8959493929190613473565b60405180910390a1505050505050565b60008054906101000a900473ffffffffffffffffffffffffffffffffffffffff1681565b60016020528060005260406000206000915090505481565b600081600160008573ffffffffffffffffffffffffffffffffffffffff1673ffffffffffffffffffffffffffffffffffffffff1681526020019081526020016000205414905092915050565b7f2447c43a6160806768d4c947ce727fb12b7f2700badae716947943ea245c25d680600160003373ffffffffffffffffffffffffffffffffffffffff1673ffffffffffffffffffffffffffffffffffffffff1681526020019081526020016000205414611a02576040517f08c379a00000000000000000000000000000000000000000000000000000000081526004016119f990612c74565b60405180910390fd5b6002805490508310611a49576040517f08c379a0000000000000000000000000000000000000000000000000000000008152600401611a4090612ce0565b60405180910390fd5b6003805490508210611a90576040517f08c379a0000000000000000000000000000000000000000000000000000000008152600401611a87906130e1565b60405180910390fd5b8160046000858152602001908152602001600020819055507f0affb2395dc21f9d896008d59590df1d6920ec092bf5f473413b8c5bfb6d48068383604051611ad99291906134c1565b60405180910390a1505050565b60606002805490508210611b2f576040517f08c379a0000000000000000000000000000000000000000000000000000000008152600401611b2690612ce0565b60405180910390fd5b60056000838152602001908152602001600020805480602002602001604051908101604052809291908181526020016000905b82821015611c44578382906000526020600020906004020160405180608001604052908160008201548152602001600182018054611b9f90612ad3565b80601f0160208091040260200160405190810160405280929190818152602001828054611bcb90612ad3565b8015611c185780601f10611bed57610100808354040283529160200191611c18565b820191906000526020600020905b815481529060010190602001808311611bfb57829003601f168201915b505050505081526020016002820154815260200160038201548152505081526020019060010190611b62565b505050509050919050565b6000600380549050905090565b7f02016836a56b71f0d02689e69e326f4f4c1b9057164ef592671cf0d37c8040c081565b7f2447c43a6160806768d4c947ce727fb12b7f2700badae716947943ea245c25d681565b611cac6120ea565b6002805490508210611cf3576040517f08c379a0000000000000000000000000000000000000000000000000000000008152600401611cea90612ce0565b60405180910390fd5b60028281548110611d0757611d06613101565b5b906000526020600020906007020160405180610100016040529081600082018054611d3190612ad3565b80601f0160208091040260200160405190810160405280929190818152602001828054611d5d90612ad3565b8015611daa5780601f10611d7f57610100808354040283529160200191611daa565b820191906000526020600020905b815481529060010190602001808311611d8d57829003601f168201915b5050505050815260200160018201548152602001600282015481526020016003820160009054906101000a900460ff161515151581526020016003820160019054906101000a900473ffffffffffffffffffffffffffffffffffffffff1673ffffffffffffffffffffffffffffffffffffffff1673ffffffffffffffffffffffffffffffffffffffff1681526020016004820154815260200160058201548152602001600682018054611e5c90612ad3565b80601f0160208091040260200160405190810160405280929190818152602001828054611e8890612ad3565b8015611ed55780601f10611eaa57610100808354040283529160200191611ed5565b820191906000526020600020905b815481529060010190602001808311611eb857829003601f168201915b5050505050815250509050919050565b6002805490508110611f2c576040517f08c379a0000000000000000000000000000000000000000000000000000000008152600401611f2390612ce0565b60405180910390fd5b60003411611f6f576040517f08c379a0000000000000000000000000000000000000000000000000000000008152600401611f6690613536565b60405180910390fd5b600060028281548110611f8557611f84613101565b5b9060005260206000209060070201905034816002016000828254611fa99190613556565b925050819055507f063d07ee72a7483b8e07ca09054bb686775c5c030f945dde3823a5257a0a93eb8234604051611fe19291906134c1565b60405180910390a18060030160019054906101000a900473ffffffffffffffffffffffffffffffffffffffff1673ffffffffffffffffffffffffffffffffffffffff166108fc349081150290604051600060405180830381858888f19350505050158015612053573d6000803e3d6000fd5b5060018160030160006101000a81548160ff0219169083151502179055507f2301e0a2ad8f6e28a7fbb09e96f5c14e588fac346ed5ce607e1a018bc7688646826040516120a09190612522565b60405180910390a15050565b7fe73c0d9505516993d6e7f97506b8b4840bdda64c6bb2d31ca46d6395e2030e5b81565b604051806040016040528060008152602001606081525090565b604051806101000160405280606081526020016000815260200160008152602001600015158152602001600073ffffffffffffffffffffffffffffffffffffffff1681526020016000815260200160008152602001606081525090565b600080fd5b600080fd5b6000819050919050565b61216481612151565b811461216f57600080fd5b50565b6000813590506121818161215b565b92915050565b60006020828403121561219d5761219c612147565b5b60006121ab84828501612172565b91505092915050565b600081519050919050565b600082825260208201905092915050565b60005b838110156121ee5780820151818401526020810190506121d3565b60008484015250505050565b6000601f19601f8301169050919050565b6000612216826121b4565b61222081856121bf565b93506122308185602086016121d0565b612239816121fa565b840191505092915050565b61224d81612151565b82525050565b60008115159050919050565b61226881612253565b82525050565b600073ffffffffffffffffffffffffffffffffffffffff82169050919050565b60006122998261226e565b9050919050565b6122a98161228e565b82525050565b60006101008201905081810360008301526122ca818b61220b565b90506122d9602083018a612244565b6122e66040830189612244565b6122f3606083018861225f565b61230060808301876122a0565b61230d60a0830186612244565b61231a60c0830185612244565b81810360e083015261232c818461220b565b90509998505050505050505050565b6000819050919050565b61234e8161233b565b82525050565b60006020820190506123696000830184612345565b92915050565b600061237a8261226e565b9050919050565b61238a8161236f565b811461239557600080fd5b50565b6000813590506123a781612381565b92915050565b6123b68161233b565b81146123c157600080fd5b50565b6000813590506123d3816123ad565b92915050565b600080604083850312156123f0576123ef612147565b5b60006123fe85828601612398565b925050602061240f858286016123c4565b9150509250929050565b600080fd5b600080fd5b600080fd5b60008083601f84011261243e5761243d612419565b5b8235905067ffffffffffffffff81111561245b5761245a61241e565b5b60208301915083600182028301111561247757612476612423565b5b9250929050565b6000806000806060858703121561249857612497612147565b5b60006124a687828801612172565b945050602085013567ffffffffffffffff8111156124c7576124c661214c565b5b6124d387828801612428565b935093505060406124e687828801612172565b91505092959194509250565b60006040820190506125076000830185612244565b8181036020830152612519818461220b565b90509392505050565b60006020820190506125376000830184612244565b92915050565b60006020828403121561255357612552612147565b5b600061256184828501612398565b91505092915050565b61257381612151565b82525050565b600082825260208201905092915050565b6000612595826121b4565b61259f8185612579565b93506125af8185602086016121d0565b6125b8816121fa565b840191505092915050565b60006040830160008301516125db600086018261256a565b50602083015184820360208601526125f3828261258a565b9150508091505092915050565b6000602082019050818103600083015261261a81846125c3565b905092915050565b6000806040838503121561263957612638612147565b5b600061264785828601612172565b925050602061265885828601612172565b9150509250929050565b60006080820190506126776000830187612244565b8181036020830152612689818661220b565b90506126986040830185612244565b6126a56060830184612244565b95945050505050565b6000806000606084860312156126c7576126c6612147565b5b60006126d586828701612172565b93505060206126e686828701612172565b92505060406126f786828701612172565b9150509250925092565b6000806020838503121561271857612717612147565b5b600083013567ffffffffffffffff8111156127365761273561214c565b5b61274285828601612428565b92509250509250929050565b6127578161228e565b811461276257600080fd5b50565b6000813590506127748161274e565b92915050565b6000806000806000806080878903121561279757612796612147565b5b600087013567ffffffffffffffff8111156127b5576127b461214c565b5b6127c189828a01612428565b965096505060206127d489828a01612172565b94505060406127e589828a01612765565b935050606087013567ffffffffffffffff8111156128065761280561214c565b5b61281289828a01612428565b92509250509295509295509295565b61282a8161236f565b82525050565b60006020820190506128456000830184612821565b92915050565b6000602082019050612860600083018461225f565b92915050565b600081519050919050565b600082825260208201905092915050565b6000819050602082019050919050565b60006080830160008301516128aa600086018261256a565b50602083015184820360208601526128c2828261258a565b91505060408301516128d7604086018261256a565b5060608301516128ea606086018261256a565b508091505092915050565b60006129018383612892565b905092915050565b6000602082019050919050565b600061292182612866565b61292b8185612871565b93508360208202850161293d85612882565b8060005b85811015612979578484038952815161295a85826128f5565b945061296583612909565b925060208a01995050600181019050612941565b50829750879550505050505092915050565b600060208201905081810360008301526129a58184612916565b905092915050565b6129b681612253565b82525050565b6129c58161228e565b82525050565b60006101008301600083015184820360008601526129e9828261258a565b91505060208301516129fe602086018261256a565b506040830151612a11604086018261256a565b506060830151612a2460608601826129ad565b506080830151612a3760808601826129bc565b5060a0830151612a4a60a086018261256a565b5060c0830151612a5d60c086018261256a565b5060e083015184820360e0860152612a75828261258a565b9150508091505092915050565b60006020820190508181036000830152612a9c81846129cb565b905092915050565b7f4e487b7100000000000000000000000000000000000000000000000000000000600052602260045260246000fd5b60006002820490506001821680612aeb57607f821691505b602082108103612afe57612afd612aa4565b5b50919050565b7f4e6f7420617574686f72697a65643a204f6e6c79206f776e65722063616e207060008201527f6572666f726d207468697320616374696f6e0000000000000000000000000000602082015250565b6000612b606032836121bf565b9150612b6b82612b04565b604082019050919050565b60006020820190508181036000830152612b8f81612b53565b9050919050565b7f496e76616c696420616464726573730000000000000000000000000000000000600082015250565b6000612bcc600f836121bf565b9150612bd782612b96565b602082019050919050565b60006020820190508181036000830152612bfb81612bbf565b9050919050565b7f4e6f7420617574686f72697a65643a20596f7520646f206e6f7420686176652060008201527f74686520726571756972656420726f6c65000000000000000000000000000000602082015250565b6000612c5e6031836121bf565b9150612c6982612c02565b604082019050919050565b60006020820190508181036000830152612c8d81612c51565b9050919050565b7f50726f6a65637420646f6573206e6f7420657869737400000000000000000000600082015250565b6000612cca6016836121bf565b9150612cd582612c94565b602082019050919050565b60006020820190508181036000830152612cf981612cbd565b9050919050565b7f496e76616c696420616d6f756e74000000000000000000000000000000000000600082015250565b6000612d36600e836121bf565b9150612d4182612d00565b602082019050919050565b60006020820190508181036000830152612d6581612d29565b9050919050565b7f4e487b7100000000000000000000000000000000000000000000000000000000600052604160045260246000fd5b60008190508160005260206000209050919050565b60006020601f8301049050919050565b600082821b905092915050565b600060088302612dfd7fffffffffffffffffffffffffffffffffffffffffffffffffffffffffffffffff82612dc0565b612e078683612dc0565b95508019841693508086168417925050509392505050565b6000819050919050565b6000612e44612e3f612e3a84612151565b612e1f565b612151565b9050919050565b6000819050919050565b612e5e83612e29565b612e72612e6a82612e4b565b848454612dcd565b825550505050565b600090565b612e87612e7a565b612e92818484612e55565b505050565b5b81811015612eb657612eab600082612e7f565b600181019050612e98565b5050565b601f821115612efb57612ecc81612d9b565b612ed584612db0565b81016020851015612ee4578190505b612ef8612ef085612db0565b830182612e97565b50505b505050565b600082821c905092915050565b6000612f1e60001984600802612f00565b1980831691505092915050565b6000612f378383612f0d565b9150826002028217905092915050565b612f50826121b4565b67ffffffffffffffff811115612f6957612f68612d6c565b5b612f738254612ad3565b612f7e828285612eba565b600060209050601f831160018114612fb15760008415612f9f578287015190505b612fa98582612f2b565b865550613011565b601f198416612fbf86612d9b565b60005b82811015612fe757848901518255600182019150602085019450602081019050612fc2565b868310156130045784890151613000601f891682612f0d565b8355505b6001600288020188555050505b505050505050565b82818337600083830152505050565b600061303483856121bf565b9350613041838584613019565b61304a836121fa565b840190509392505050565b600060608201905061306a6000830187612244565b818103602083015261307d818587613028565b905061308c6040830184612244565b95945050505050565b7f436f6e74726163746f7220646f6573206e6f7420657869737400000000000000600082015250565b60006130cb6019836121bf565b91506130d682613095565b602082019050919050565b600060208201905081810360008301526130fa816130be565b9050919050565b7f4e487b7100000000000000000000000000000000000000000000000000000000600052603260045260246000fd5b7f4f6e6c79207468652061737369676e656420636f6e74726163746f722063616e60008201527f207365742070726f6a6563742064617465730000000000000000000000000000602082015250565b600061318c6032836121bf565b915061319782613130565b604082019050919050565b600060208201905081810360008301526131bb8161317f565b9050919050565b7f53746172742064617465206d757374206265206265666f726520656e6420646160008201527f7465000000000000000000000000000000000000000000000000000000000000602082015250565b600061321e6022836121bf565b9150613229826131c2565b604082019050919050565b6000602082019050818103600083015261324d81613211565b9050919050565b60006060820190506132696000830186612244565b6132766020830185612244565b6132836040830184612244565b949350505050565b60006040820190506132a06000830186612244565b81810360208301526132b3818486613028565b9050949350505050565b7f4e6f7420617574686f72697a65643a204f6e6c79206d616e61676572206f722060008201527f6f776e65722063616e206372656174652070726f6a6563747300000000000000602082015250565b60006133196039836121bf565b9150613324826132bd565b604082019050919050565b600060208201905081810360008301526133488161330c565b9050919050565b7f496e76616c696420676f7665726e6d656e742061646472657373000000000000600082015250565b6000613385601a836121bf565b91506133908261334f565b602082019050919050565b600060208201905081810360008301526133b481613378565b9050919050565b7f4e487b7100000000000000000000000000000000000000000000000000000000600052601160045260246000fd5b60006133f582612151565b915061340083612151565b9250828203905081811115613418576134176133bb565b5b92915050565b600061343961343461342f8461226e565b612e1f565b61226e565b9050919050565b600061344b8261341e565b9050919050565b600061345d82613440565b9050919050565b61346d81613452565b82525050565b60006080820190506134886000830188612244565b818103602083015261349b818688613028565b90506134aa6040830185612244565b6134b76060830184613464565b9695505050505050565b60006040820190506134d66000830185612244565b6134e36020830184612244565b9392505050565b7f4d7573742073656e6420736f6d65206574686572000000000000000000000000600082015250565b60006135206014836121bf565b915061352b826134ea565b602082019050919050565b6000602082019050818103600083015261354f81613513565b9050919050565b600061356182612151565b915061356c83612151565b9250828201905080821115613584576135836133bb565b5b9291505056fea2646970667358221220a725d20ae2b5687efe1c4c1c04016c5052b7b302482656a6376d6f90ebd8117c64736f6c634300081b0033",
  "linkReferences": {},
  "deployedLinkReferences": {}
}