{
  "_format": "hh-sol-artifact-1",
  "contractName": "InfrastructureFunds",
  "sourceName": "contracts/InfrastructureFunds.sol",
  "abi": [
    {
      "inputs": [
        {
          "internalType": "address",
          "name": "_governmentWallet",
          "type": "address"
        }
      ],
      "stateMutability": "nonpayable",
      "type": "constructor"
    },
    {
      "anonymous": false,
      "inputs": [
        {
          "indexed": false,
          "internalType": "uint256",
          "name": "projectId",
          "type": "uint256"
        },
        {
          "indexed": false,
          "internalType": "address",
          "name": "contractor",
          "type": "address"
        }
      ],
      "name": "ContractorAssigned",
      "type": "event"
    },
    {
      "anonymous": false,
      "inputs": [
        {
          "indexed": false,
          "internalType": "uint256",
          "name": "projectId",
          "type": "uint256"
        },
        {
          "indexed": false,
          "internalType": "address",
          "name": "contractor",
          "type": "address"
        },
        {
          "indexed": false,
          "internalType": "uint256",
          "name": "amount",
          "type": "uint256"
        }
      ],
      "name": "ContractorPaid",
      "type": "event"
    },
    {
      "anonymous": false,
      "inputs": [
        {
          "indexed": false,
          "internalType": "uint256",
          "name": "projectId",
          "type": "uint256"
        },
        {
          "indexed": false,
          "internalType": "uint256",
          "name": "expenseId",
          "type": "uint256"
        },
        {
          "indexed": false,
          "internalType": "string",
          "name": "description",
          "type": "string"
        },
        {
          "indexed": false,
          "internalType": "uint256",
          "name": "amount",
          "type": "uint256"
        }
      ],
      "name": "ExpenseIncurred",
      "type": "event"
    },
    {
      "anonymous": false,
      "inputs": [
        {
          "indexed": false,
          "internalType": "address",
          "name": "contributor",
          "type": "address"
        },
        {
          "indexed": false,
          "internalType": "uint256",
          "name": "amount",
          "type": "uint256"
        },
        {
          "indexed": false,
          "internalType": "uint256",
          "name": "projectId",
          "type": "uint256"
        }
      ],
      "name": "FundsReceived",
      "type": "event"
    },
    {
      "anonymous": false,
      "inputs": [
        {
          "indexed": false,
          "internalType": "uint256",
          "name": "projectId",
          "type": "uint256"
        },
        {
          "indexed": false,
          "internalType": "string",
          "name": "name",
          "type": "string"
        },
        {
          "indexed": false,
          "internalType": "address",
          "name": "contractor",
          "type": "address"
        },
        {
          "indexed": false,
          "internalType": "uint256",
          "name": "budget",
          "type": "uint256"
        }
      ],
      "name": "ProjectCreated",
      "type": "event"
    },
    {
      "inputs": [
        {
          "internalType": "uint256",
          "name": "_projectId",
          "type": "uint256"
        },
        {
          "internalType": "address",
          "name": "_contractor",
          "type": "address"
        }
      ],
      "name": "assignContractor",
      "outputs": [],
      "stateMutability": "nonpayable",
      "type": "function"
    },
    {
      "inputs": [
        {
          "internalType": "address",
          "name": "",
          "type": "address"
        }
      ],
      "name": "contributions",
      "outputs": [
        {
          "internalType": "uint256",
          "name": "",
          "type": "uint256"
        }
      ],
      "stateMutability": "view",
      "type": "function"
    },
    {
      "inputs": [
        {
          "internalType": "string",
          "name": "_name",
          "type": "string"
        }
      ],
      "name": "createProject",
      "outputs": [],
      "stateMutability": "payable",
      "type": "function"
    },
    {
      "inputs": [],
      "name": "expenseCount",
      "outputs": [
        {
          "internalType": "uint256",
          "name": "",
          "type": "uint256"
        }
      ],
      "stateMutability": "view",
      "type": "function"
    },
    {
      "inputs": [
        {
          "internalType": "uint256",
          "name": "",
          "type": "uint256"
        }
      ],
      "name": "expenses",
      "outputs": [
        {
          "internalType": "uint256",
          "name": "projectId",
          "type": "uint256"
        },
        {
          "internalType": "uint256",
          "name": "id",
          "type": "uint256"
        },
        {
          "internalType": "string",
          "name": "description",
          "type": "string"
        },
        {
          "internalType": "uint256",
          "name": "amount",
          "type": "uint256"
        }
      ],
      "stateMutability": "view",
      "type": "function"
    },
    {
      "inputs": [],
      "name": "getAllExpenses",
      "outputs": [
        {
          "components": [
            {
              "internalType": "uint256",
              "name": "projectId",
              "type": "uint256"
            },
            {
              "internalType": "uint256",
              "name": "id",
              "type": "uint256"
            },
            {
              "internalType": "string",
              "name": "description",
              "type": "string"
            },
            {
              "internalType": "uint256",
              "name": "amount",
              "type": "uint256"
            }
          ],
          "internalType": "struct InfrastructureFunds.Expense[]",
          "name": "",
          "type": "tuple[]"
        }
      ],
      "stateMutability": "view",
      "type": "function"
    },
    {
      "inputs": [
        {
          "internalType": "uint256",
          "name": "_projectId",
          "type": "uint256"
        }
      ],
      "name": "getAllExpensesByProjectId",
      "outputs": [
        {
          "components": [
            {
              "internalType": "uint256",
              "name": "projectId",
              "type": "uint256"
            },
            {
              "internalType": "uint256",
              "name": "id",
              "type": "uint256"
            },
            {
              "internalType": "string",
              "name": "description",
              "type": "string"
            },
            {
              "internalType": "uint256",
              "name": "amount",
              "type": "uint256"
            }
          ],
          "internalType": "struct InfrastructureFunds.Expense[]",
          "name": "",
          "type": "tuple[]"
        }
      ],
      "stateMutability": "view",
      "type": "function"
    },
    {
      "inputs": [],
      "name": "getAllProjects",
      "outputs": [
        {
          "components": [
            {
              "internalType": "uint256",
              "name": "id",
              "type": "uint256"
            },
            {
              "internalType": "string",
              "name": "name",
              "type": "string"
            },
            {
              "internalType": "address",
              "name": "contractor",
              "type": "address"
            },
            {
              "internalType": "uint256",
              "name": "budget",
              "type": "uint256"
            },
            {
              "internalType": "uint256",
              "name": "spent",
              "type": "uint256"
            },
            {
              "internalType": "bool",
              "name": "completed",
              "type": "bool"
            },
            {
              "internalType": "bool",
              "name": "funded",
              "type": "bool"
            }
          ],
          "internalType": "struct InfrastructureFunds.Project[]",
          "name": "",
          "type": "tuple[]"
        }
      ],
      "stateMutability": "view",
      "type": "function"
    },
    {
      "inputs": [],
      "name": "governmentWallet",
      "outputs": [
        {
          "internalType": "address",
          "name": "",
          "type": "address"
        }
      ],
      "stateMutability": "view",
      "type": "function"
    },
    {
      "inputs": [
        {
          "internalType": "uint256",
          "name": "_projectId",
          "type": "uint256"
        },
        {
          "internalType": "string",
          "name": "_description",
          "type": "string"
        }
      ],
      "name": "incurExpense",
      "outputs": [],
      "stateMutability": "payable",
      "type": "function"
    },
    {
      "inputs": [
        {
          "internalType": "uint256",
          "name": "_projectId",
          "type": "uint256"
        }
      ],
      "name": "payContractor",
      "outputs": [],
      "stateMutability": "payable",
      "type": "function"
    },
    {
      "inputs": [
        {
          "internalType": "uint256",
          "name": "",
          "type": "uint256"
        }
      ],
      "name": "projectContributions",
      "outputs": [
        {
          "internalType": "uint256",
          "name": "",
          "type": "uint256"
        }
      ],
      "stateMutability": "view",
      "type": "function"
    },
    {
      "inputs": [],
      "name": "projectCount",
      "outputs": [
        {
          "internalType": "uint256",
          "name": "",
          "type": "uint256"
        }
      ],
      "stateMutability": "view",
      "type": "function"
    },
    {
      "inputs": [
        {
          "internalType": "uint256",
          "name": "",
          "type": "uint256"
        }
      ],
      "name": "projects",
      "outputs": [
        {
          "internalType": "uint256",
          "name": "id",
          "type": "uint256"
        },
        {
          "internalType": "string",
          "name": "name",
          "type": "string"
        },
        {
          "internalType": "address",
          "name": "contractor",
          "type": "address"
        },
        {
          "internalType": "uint256",
          "name": "budget",
          "type": "uint256"
        },
        {
          "internalType": "uint256",
          "name": "spent",
          "type": "uint256"
        },
        {
          "internalType": "bool",
          "name": "completed",
          "type": "bool"
        },
        {
          "internalType": "bool",
          "name": "funded",
          "type": "bool"
        }
      ],
      "stateMutability": "view",
      "type": "function"
    },
    {
      "inputs": [
        {
          "internalType": "uint256",
          "name": "_projectId",
          "type": "uint256"
        }
      ],
      "name": "receiveFunds",
      "outputs": [],
      "stateMutability": "payable",
      "type": "function"
    }
  ],
  "bytecode": "0x608060405234801561001057600080fd5b506040516128b43803806128b4833981810160405281019061003291906100db565b806000806101000a81548173ffffffffffffffffffffffffffffffffffffffff021916908373ffffffffffffffffffffffffffffffffffffffff16021790555050610108565b600080fd5b600073ffffffffffffffffffffffffffffffffffffffff82169050919050565b60006100a88261007d565b9050919050565b6100b88161009d565b81146100c357600080fd5b50565b6000815190506100d5816100af565b92915050565b6000602082840312156100f1576100f0610078565b5b60006100ff848285016100c6565b91505092915050565b61279d806101176000396000f3fe6080604052600436106100e85760003560e01c806380d038291161008a578063af4afe0a11610059578063af4afe0a146102d3578063d236476d14610313578063dd53ff6c1461032f578063fddf2a001461035a576100e8565b806380d038291461024557806384d18662146102705780638827e09b1461028c578063a4a348e7146102a8576100e8565b80633434d6d5116100c65780633434d6d51461018957806336fbad26146101b257806342e94c90146101dd57806352e7df5d1461021a576100e8565b8063107046bd146100ed57806315ee4df114610130578063193f85b91461014c575b600080fd5b3480156100f957600080fd5b50610114600480360381019061010f91906116d1565b610397565b60405161012797969594939291906117f9565b60405180910390f35b61014a600480360381019061014591906119a4565b61049b565b005b34801561015857600080fd5b50610173600480360381019061016e91906116d1565b61065f565b60405161018091906119ed565b60405180910390f35b34801561019557600080fd5b506101b060048036038101906101ab9190611a34565b610677565b005b3480156101be57600080fd5b506101c7610807565b6040516101d491906119ed565b60405180910390f35b3480156101e957600080fd5b5061020460048036038101906101ff9190611a74565b61080d565b60405161021191906119ed565b60405180910390f35b34801561022657600080fd5b5061022f610825565b60405161023c91906119ed565b60405180910390f35b34801561025157600080fd5b5061025a61082b565b6040516102679190611c76565b60405180910390f35b61028a60048036038101906102859190611c98565b610a36565b005b6102a660048036038101906102a191906116d1565b610c43565b005b3480156102b457600080fd5b506102bd610de8565b6040516102ca9190611cf4565b60405180910390f35b3480156102df57600080fd5b506102fa60048036038101906102f591906116d1565b610e0c565b60405161030a9493929190611d0f565b60405180910390f35b61032d600480360381019061032891906116d1565b610ec4565b005b34801561033b57600080fd5b5061034461123d565b6040516103519190611e80565b60405180910390f35b34801561036657600080fd5b50610381600480360381019061037c91906116d1565b6113bc565b60405161038e9190611e80565b60405180910390f35b60016020528060005260406000206000915090508060000154908060010180546103c090611ed1565b80601f01602080910402602001604051908101604052809291908181526020018280546103ec90611ed1565b80156104395780601f1061040e57610100808354040283529160200191610439565b820191906000526020600020905b81548152906001019060200180831161041c57829003601f168201915b5050505050908060020160009054906101000a900473ffffffffffffffffffffffffffffffffffffffff16908060030154908060040154908060050160009054906101000a900460ff16908060050160019054906101000a900460ff16905087565b600034116104de576040517f08c379a00000000000000000000000000000000000000000000000000000000081526004016104d590611f4e565b60405180910390fd5b600560008154809291906104f190611f9d565b91905055506040518060e001604052806005548152602001828152602001600073ffffffffffffffffffffffffffffffffffffffff168152602001348152602001600081526020016000151581526020016000151581525060016000600554815260200190815260200160002060008201518160000155602082015181600101908161057d9190612191565b5060408201518160020160006101000a81548173ffffffffffffffffffffffffffffffffffffffff021916908373ffffffffffffffffffffffffffffffffffffffff160217905550606082015181600301556080820151816004015560a08201518160050160006101000a81548160ff02191690831515021790555060c08201518160050160016101000a81548160ff0219169083151502179055509050507fa026ee65bff24e0219543a4cec2746ef952b145e2658ac5db36953d7044712a9600554826000346040516106549493929190612263565b60405180910390a150565b60046020528060005260406000206000915090505481565b60006001600084815260200190815260200160002060000154036106d0576040517f08c379a00000000000000000000000000000000000000000000000000000000081526004016106c7906122fb565b60405180910390fd5b600073ffffffffffffffffffffffffffffffffffffffff166001600084815260200190815260200160002060020160009054906101000a900473ffffffffffffffffffffffffffffffffffffffff1673ffffffffffffffffffffffffffffffffffffffff1614610775576040517f08c379a000000000000000000000000000000000000000000000000000000000815260040161076c90612367565b60405180910390fd5b806001600084815260200190815260200160002060020160006101000a81548173ffffffffffffffffffffffffffffffffffffffff021916908373ffffffffffffffffffffffffffffffffffffffff1602179055507f44f1f4aa1ae6aa480e93c8392cc3b10ea56fa5a0e299e0699809026eaea6639682826040516107fb929190612387565b60405180910390a15050565b60055481565b60036020528060005260406000206000915090505481565b60065481565b6060600060055467ffffffffffffffff81111561084b5761084a611879565b5b60405190808252806020026020018201604052801561088457816020015b610871611608565b8152602001906001900390816108695790505b5090506000600190505b6005548111610a2e57600160008281526020019081526020016000206040518060e0016040529081600082015481526020016001820180546108cf90611ed1565b80601f01602080910402602001604051908101604052809291908181526020018280546108fb90611ed1565b80156109485780601f1061091d57610100808354040283529160200191610948565b820191906000526020600020905b81548152906001019060200180831161092b57829003601f168201915b505050505081526020016002820160009054906101000a900473ffffffffffffffffffffffffffffffffffffffff1673ffffffffffffffffffffffffffffffffffffffff1673ffffffffffffffffffffffffffffffffffffffff16815260200160038201548152602001600482015481526020016005820160009054906101000a900460ff161515151581526020016005820160019054906101000a900460ff161515151581525050826001836109ff91906123b0565b81518110610a1057610a0f6123e4565b5b60200260200101819052508080610a2690611f9d565b91505061088e565b508091505090565b6000600160008481526020019081526020016000206000015403610a8f576040517f08c379a0000000000000000000000000000000000000000000000000000000008152600401610a86906122fb565b60405180910390fd5b60003411610ad2576040517f08c379a0000000000000000000000000000000000000000000000000000000008152600401610ac99061245f565b60405180910390fd5b6001600083815260200190815260200160002060030154346001600085815260200190815260200160002060040154610b0b919061247f565b1115610b4c576040517f08c379a0000000000000000000000000000000000000000000000000000000008152600401610b43906124ff565b60405180910390fd5b60066000815480929190610b5f90611f9d565b9190505550604051806080016040528083815260200160065481526020018281526020013481525060026000600654815260200190815260200160002060008201518160000155602082015181600101556040820151816002019081610bc59190612191565b506060820151816003015590505034600160008481526020019081526020016000206004016000828254610bf9919061247f565b925050819055507fccbbd25a39d091195458b3eb433bd458a5c176f99639fd0b18aa1b36be80f4a1826006548334604051610c379493929190611d0f565b60405180910390a15050565b60003411610c86576040517f08c379a0000000000000000000000000000000000000000000000000000000008152600401610c7d9061256b565b60405180910390fd5b6000600160008381526020019081526020016000206000015403610cdf576040517f08c379a0000000000000000000000000000000000000000000000000000000008152600401610cd6906122fb565b60405180910390fd5b34600360003373ffffffffffffffffffffffffffffffffffffffff1673ffffffffffffffffffffffffffffffffffffffff1681526020019081526020016000206000828254610d2e919061247f565b9250508190555034600460008381526020019081526020016000206000828254610d58919061247f565b92505081905550600060046000838152602001908152602001600020541115610daa57600180600083815260200190815260200160002060050160016101000a81548160ff0219169083151502179055505b7f363f315f930a17d1266b86a20d6dd34b1cfbc5a9db9f13a65d06a689c3a2af8a333483604051610ddd9392919061258b565b60405180910390a150565b60008054906101000a900473ffffffffffffffffffffffffffffffffffffffff1681565b6002602052806000526040600020600091509050806000015490806001015490806002018054610e3b90611ed1565b80601f0160208091040260200160405190810160405280929190818152602001828054610e6790611ed1565b8015610eb45780601f10610e8957610100808354040283529160200191610eb4565b820191906000526020600020905b815481529060010190602001808311610e9757829003601f168201915b5050505050908060030154905084565b600073ffffffffffffffffffffffffffffffffffffffff166001600083815260200190815260200160002060020160009054906101000a900473ffffffffffffffffffffffffffffffffffffffff1673ffffffffffffffffffffffffffffffffffffffff1603610f69576040517f08c379a0000000000000000000000000000000000000000000000000000000008152600401610f609061260e565b60405180910390fd5b60003411610fac576040517f08c379a0000000000000000000000000000000000000000000000000000000008152600401610fa39061267a565b60405180910390fd5b6001600082815260200190815260200160002060030154346001600084815260200190815260200160002060040154610fe5919061247f565b1115611026576040517f08c379a000000000000000000000000000000000000000000000000000000000815260040161101d906124ff565b60405180910390fd5b6006600081548092919061103990611f9d565b9190505550604051806080016040528082815260200160065481526020016040518060400160405280601581526020017f5061796d656e7420746f20436f6e74726163746f720000000000000000000000815250815260200134815250600260006006548152602001908152602001600020600082015181600001556020820151816001015560408201518160020190816110d49190612191565b506060820151816003015590505034600160008381526020019081526020016000206004016000828254611108919061247f565b925050819055506001600082815260200190815260200160002060020160009054906101000a900473ffffffffffffffffffffffffffffffffffffffff1673ffffffffffffffffffffffffffffffffffffffff166108fc349081150290604051600060405180830381858888f1935050505015801561118b573d6000803e3d6000fd5b507f1733a4c87d5bbf75b3d2c8157bcc2104705a85666ed7f41e7ade3affa3817f8c816001600084815260200190815260200160002060020160009054906101000a900473ffffffffffffffffffffffffffffffffffffffff16346040516111f59392919061269a565b60405180910390a17fccbbd25a39d091195458b3eb433bd458a5c176f99639fd0b18aa1b36be80f4a181600654346040516112329392919061271d565b60405180910390a150565b6060600060065467ffffffffffffffff81111561125d5761125c611879565b5b60405190808252806020026020018201604052801561129657816020015b61128361165f565b81526020019060019003908161127b5790505b5090506000600190505b60065481116113b4576002600082815260200190815260200160002060405180608001604052908160008201548152602001600182015481526020016002820180546112eb90611ed1565b80601f016020809104026020016040519081016040528092919081815260200182805461131790611ed1565b80156113645780601f1061133957610100808354040283529160200191611364565b820191906000526020600020905b81548152906001019060200180831161134757829003601f168201915b505050505081526020016003820154815250508260018361138591906123b0565b81518110611396576113956123e4565b5b602002602001018190525080806113ac90611f9d565b9150506112a0565b508091505090565b60606000600160008481526020019081526020016000206000015403611417576040517f08c379a000000000000000000000000000000000000000000000000000000000815260040161140e906122fb565b60405180910390fd5b600080600190505b6006548111611467578360026000838152602001908152602001600020600001540361145457818061145090611f9d565b9250505b808061145f90611f9d565b91505061141f565b5060008167ffffffffffffffff81111561148457611483611879565b5b6040519080825280602002602001820160405280156114bd57816020015b6114aa61165f565b8152602001906001900390816114a25790505b509050600080600190505b60065481116115fc57856002600083815260200190815260200160002060000154036115e95760026000828152602001908152602001600020604051806080016040529081600082015481526020016001820154815260200160028201805461153090611ed1565b80601f016020809104026020016040519081016040528092919081815260200182805461155c90611ed1565b80156115a95780601f1061157e576101008083540402835291602001916115a9565b820191906000526020600020905b81548152906001019060200180831161158c57829003601f168201915b505050505081526020016003820154815250508383815181106115cf576115ce6123e4565b5b602002602001018190525081806115e590611f9d565b9250505b80806115f490611f9d565b9150506114c8565b50819350505050919050565b6040518060e001604052806000815260200160608152602001600073ffffffffffffffffffffffffffffffffffffffff16815260200160008152602001600081526020016000151581526020016000151581525090565b6040518060800160405280600081526020016000815260200160608152602001600081525090565b6000604051905090565b600080fd5b600080fd5b6000819050919050565b6116ae8161169b565b81146116b957600080fd5b50565b6000813590506116cb816116a5565b92915050565b6000602082840312156116e7576116e6611691565b5b60006116f5848285016116bc565b91505092915050565b6117078161169b565b82525050565b600081519050919050565b600082825260208201905092915050565b60005b8381101561174757808201518184015260208101905061172c565b60008484015250505050565b6000601f19601f8301169050919050565b600061176f8261170d565b6117798185611718565b9350611789818560208601611729565b61179281611753565b840191505092915050565b600073ffffffffffffffffffffffffffffffffffffffff82169050919050565b60006117c88261179d565b9050919050565b6117d8816117bd565b82525050565b60008115159050919050565b6117f3816117de565b82525050565b600060e08201905061180e600083018a6116fe565b81810360208301526118208189611764565b905061182f60408301886117cf565b61183c60608301876116fe565b61184960808301866116fe565b61185660a08301856117ea565b61186360c08301846117ea565b98975050505050505050565b600080fd5b600080fd5b7f4e487b7100000000000000000000000000000000000000000000000000000000600052604160045260246000fd5b6118b182611753565b810181811067ffffffffffffffff821117156118d0576118cf611879565b5b80604052505050565b60006118e3611687565b90506118ef82826118a8565b919050565b600067ffffffffffffffff82111561190f5761190e611879565b5b61191882611753565b9050602081019050919050565b82818337600083830152505050565b6000611947611942846118f4565b6118d9565b90508281526020810184848401111561196357611962611874565b5b61196e848285611925565b509392505050565b600082601f83011261198b5761198a61186f565b5b813561199b848260208601611934565b91505092915050565b6000602082840312156119ba576119b9611691565b5b600082013567ffffffffffffffff8111156119d8576119d7611696565b5b6119e484828501611976565b91505092915050565b6000602082019050611a0260008301846116fe565b92915050565b611a11816117bd565b8114611a1c57600080fd5b50565b600081359050611a2e81611a08565b92915050565b60008060408385031215611a4b57611a4a611691565b5b6000611a59858286016116bc565b9250506020611a6a85828601611a1f565b9150509250929050565b600060208284031215611a8a57611a89611691565b5b6000611a9884828501611a1f565b91505092915050565b600081519050919050565b600082825260208201905092915050565b6000819050602082019050919050565b611ad68161169b565b82525050565b600082825260208201905092915050565b6000611af88261170d565b611b028185611adc565b9350611b12818560208601611729565b611b1b81611753565b840191505092915050565b611b2f816117bd565b82525050565b611b3e816117de565b82525050565b600060e083016000830151611b5c6000860182611acd565b5060208301518482036020860152611b748282611aed565b9150506040830151611b896040860182611b26565b506060830151611b9c6060860182611acd565b506080830151611baf6080860182611acd565b5060a0830151611bc260a0860182611b35565b5060c0830151611bd560c0860182611b35565b508091505092915050565b6000611bec8383611b44565b905092915050565b6000602082019050919050565b6000611c0c82611aa1565b611c168185611aac565b935083602082028501611c2885611abd565b8060005b85811015611c645784840389528151611c458582611be0565b9450611c5083611bf4565b925060208a01995050600181019050611c2c565b50829750879550505050505092915050565b60006020820190508181036000830152611c908184611c01565b905092915050565b60008060408385031215611caf57611cae611691565b5b6000611cbd858286016116bc565b925050602083013567ffffffffffffffff811115611cde57611cdd611696565b5b611cea85828601611976565b9150509250929050565b6000602082019050611d0960008301846117cf565b92915050565b6000608082019050611d2460008301876116fe565b611d3160208301866116fe565b8181036040830152611d438185611764565b9050611d5260608301846116fe565b95945050505050565b600081519050919050565b600082825260208201905092915050565b6000819050602082019050919050565b6000608083016000830151611d9f6000860182611acd565b506020830151611db26020860182611acd565b5060408301518482036040860152611dca8282611aed565b9150506060830151611ddf6060860182611acd565b508091505092915050565b6000611df68383611d87565b905092915050565b6000602082019050919050565b6000611e1682611d5b565b611e208185611d66565b935083602082028501611e3285611d77565b8060005b85811015611e6e5784840389528151611e4f8582611dea565b9450611e5a83611dfe565b925060208a01995050600181019050611e36565b50829750879550505050505092915050565b60006020820190508181036000830152611e9a8184611e0b565b905092915050565b7f4e487b7100000000000000000000000000000000000000000000000000000000600052602260045260246000fd5b60006002820490506001821680611ee957607f821691505b602082108103611efc57611efb611ea2565b5b50919050565b7f427564676574206d7573742062652067726561746572207468616e2030000000600082015250565b6000611f38601d83611718565b9150611f4382611f02565b602082019050919050565b60006020820190508181036000830152611f6781611f2b565b9050919050565b7f4e487b7100000000000000000000000000000000000000000000000000000000600052601160045260246000fd5b6000611fa88261169b565b91507fffffffffffffffffffffffffffffffffffffffffffffffffffffffffffffffff8203611fda57611fd9611f6e565b5b600182019050919050565b60008190508160005260206000209050919050565b60006020601f8301049050919050565b600082821b905092915050565b6000600883026120477fffffffffffffffffffffffffffffffffffffffffffffffffffffffffffffffff8261200a565b612051868361200a565b95508019841693508086168417925050509392505050565b6000819050919050565b600061208e6120896120848461169b565b612069565b61169b565b9050919050565b6000819050919050565b6120a883612073565b6120bc6120b482612095565b848454612017565b825550505050565b600090565b6120d16120c4565b6120dc81848461209f565b505050565b5b81811015612100576120f56000826120c9565b6001810190506120e2565b5050565b601f8211156121455761211681611fe5565b61211f84611ffa565b8101602085101561212e578190505b61214261213a85611ffa565b8301826120e1565b50505b505050565b600082821c905092915050565b60006121686000198460080261214a565b1980831691505092915050565b60006121818383612157565b9150826002028217905092915050565b61219a8261170d565b67ffffffffffffffff8111156121b3576121b2611879565b5b6121bd8254611ed1565b6121c8828285612104565b600060209050601f8311600181146121fb57600084156121e9578287015190505b6121f38582612175565b86555061225b565b601f19841661220986611fe5565b60005b828110156122315784890151825560018201915060208501945060208101905061220c565b8683101561224e578489015161224a601f891682612157565b8355505b6001600288020188555050505b505050505050565b600060808201905061227860008301876116fe565b818103602083015261228a8186611764565b905061229960408301856117cf565b6122a660608301846116fe565b95945050505050565b7f50726f6a65637420646f6573206e6f7420657869737400000000000000000000600082015250565b60006122e5601683611718565b91506122f0826122af565b602082019050919050565b60006020820190508181036000830152612314816122d8565b9050919050565b7f436f6e74726163746f7220616c72656164792061737369676e65640000000000600082015250565b6000612351601b83611718565b915061235c8261231b565b602082019050919050565b6000602082019050818103600083015261238081612344565b9050919050565b600060408201905061239c60008301856116fe565b6123a960208301846117cf565b9392505050565b60006123bb8261169b565b91506123c68361169b565b92508282039050818111156123de576123dd611f6e565b5b92915050565b7f4e487b7100000000000000000000000000000000000000000000000000000000600052603260045260246000fd5b7f457870656e7365206d7573742062652067726561746572207468616e20300000600082015250565b6000612449601e83611718565b915061245482612413565b602082019050919050565b600060208201905081810360008301526124788161243c565b9050919050565b600061248a8261169b565b91506124958361169b565b92508282019050808211156124ad576124ac611f6e565b5b92915050565b7f4578636565647320627564676574000000000000000000000000000000000000600082015250565b60006124e9600e83611718565b91506124f4826124b3565b602082019050919050565b60006020820190508181036000830152612518816124dc565b9050919050565b7f4d7573742073656e642066756e64730000000000000000000000000000000000600082015250565b6000612555600f83611718565b91506125608261251f565b602082019050919050565b6000602082019050818103600083015261258481612548565b9050919050565b60006060820190506125a060008301866117cf565b6125ad60208301856116fe565b6125ba60408301846116fe565b949350505050565b7f436f6e74726163746f72206e6f742061737369676e6564000000000000000000600082015250565b60006125f8601783611718565b9150612603826125c2565b602082019050919050565b60006020820190508181036000830152612627816125eb565b9050919050565b7f416d6f756e74206d7573742062652067726561746572207468616e2030000000600082015250565b6000612664601d83611718565b915061266f8261262e565b602082019050919050565b6000602082019050818103600083015261269381612657565b9050919050565b60006060820190506126af60008301866116fe565b6126bc60208301856117cf565b6126c960408301846116fe565b949350505050565b7f5061796d656e7420746f20436f6e74726163746f720000000000000000000000600082015250565b6000612707601583611718565b9150612712826126d1565b602082019050919050565b600060808201905061273260008301866116fe565b61273f60208301856116fe565b8181036040830152612750816126fa565b905061275f60608301846116fe565b94935050505056fea2646970667358221220f6c252bab114893235c7283c77efeac0f89a688e88b64f6c0ca01c83a3829d9764736f6c634300081b0033",
  "linkReferences": {},
  "deployedLinkReferences": {}
}